{
  "_format": "hh-sol-artifact-1",
  "contractName": "Lottery",
  "sourceName": "contracts/lottery/Lottery.sol",
  "abi": [
    {
      "inputs": [
        {
          "internalType": "contract IERC20",
          "name": "_fusdt",
          "type": "address"
        },
        {
          "internalType": "contract IClaimVault",
          "name": "_claimVault",
          "type": "address"
        },
        {
          "internalType": "contract IRewardVault",
          "name": "_rewardVault",
          "type": "address"
        },
        {
          "internalType": "contract IFirstPlacePrizeVault",
          "name": "_firstPlacePrizeVault",
          "type": "address"
        },
        {
          "internalType": "address",
          "name": "_taemVault",
          "type": "address"
        },
        {
          "internalType": "uint256",
          "name": "_startingTime",
          "type": "uint256"
        }
      ],
      "stateMutability": "nonpayable",
      "type": "constructor"
    },
    {
      "inputs": [],
      "name": "AccessControlBadConfirmation",
      "type": "error"
    },
    {
      "inputs": [
        {
          "internalType": "address",
          "name": "account",
          "type": "address"
        },
        {
          "internalType": "bytes32",
          "name": "neededRole",
          "type": "bytes32"
        }
      ],
      "name": "AccessControlUnauthorizedAccount",
      "type": "error"
    },
    {
      "inputs": [],
      "name": "Active",
      "type": "error"
    },
    {
      "inputs": [],
      "name": "AlreadyClaimed",
      "type": "error"
    },
    {
      "inputs": [],
      "name": "Expired",
      "type": "error"
    },
    {
      "inputs": [],
      "name": "GameOver",
      "type": "error"
    },
    {
      "inputs": [],
      "name": "InEqualTo5Numbers",
      "type": "error"
    },
    {
      "inputs": [],
      "name": "MustBeEqaulToBPS",
      "type": "error"
    },
    {
      "inputs": [],
      "name": "MustBeLaterThanNow",
      "type": "error"
    },
    {
      "inputs": [],
      "name": "NotFound",
      "type": "error"
    },
    {
      "inputs": [],
      "name": "NotWinningNumber",
      "type": "error"
    },
    {
      "inputs": [],
      "name": "Valid",
      "type": "error"
    },
    {
      "anonymous": false,
      "inputs": [
        {
          "indexed": true,
          "internalType": "uint256",
          "name": "round",
          "type": "uint256"
        },
        {
          "indexed": false,
          "internalType": "string",
          "name": "winningNumber",
          "type": "string"
        }
      ],
      "name": "Announce",
      "type": "event"
    },
    {
      "anonymous": false,
      "inputs": [
        {
          "indexed": true,
          "internalType": "uint256",
          "name": "round",
          "type": "uint256"
        },
        {
          "indexed": true,
          "internalType": "address",
          "name": "user",
          "type": "address"
        },
        {
          "indexed": true,
          "internalType": "string",
          "name": "selectedNumberTopic",
          "type": "string"
        },
        {
          "indexed": false,
          "internalType": "string",
          "name": "selectedNumber",
          "type": "string"
        }
      ],
      "name": "Buy",
      "type": "event"
    },
    {
      "anonymous": false,
      "inputs": [
        {
          "indexed": true,
          "internalType": "uint256",
          "name": "round",
          "type": "uint256"
        },
        {
          "indexed": true,
          "internalType": "address",
          "name": "user",
          "type": "address"
        },
        {
          "indexed": false,
          "internalType": "uint8",
          "name": "prizeType",
          "type": "uint8"
        },
        {
          "indexed": false,
          "internalType": "uint256",
          "name": "prizeAmount",
          "type": "uint256"
        },
        {
          "indexed": false,
          "internalType": "string",
          "name": "winningNumber",
          "type": "string"
        }
      ],
      "name": "Claim",
      "type": "event"
    },
    {
      "anonymous": false,
      "inputs": [
        {
          "indexed": true,
          "internalType": "bytes32",
          "name": "role",
          "type": "bytes32"
        },
        {
          "indexed": true,
          "internalType": "bytes32",
          "name": "previousAdminRole",
          "type": "bytes32"
        },
        {
          "indexed": true,
          "internalType": "bytes32",
          "name": "newAdminRole",
          "type": "bytes32"
        }
      ],
      "name": "RoleAdminChanged",
      "type": "event"
    },
    {
      "anonymous": false,
      "inputs": [
        {
          "indexed": true,
          "internalType": "bytes32",
          "name": "role",
          "type": "bytes32"
        },
        {
          "indexed": true,
          "internalType": "address",
          "name": "account",
          "type": "address"
        },
        {
          "indexed": true,
          "internalType": "address",
          "name": "sender",
          "type": "address"
        }
      ],
      "name": "RoleGranted",
      "type": "event"
    },
    {
      "anonymous": false,
      "inputs": [
        {
          "indexed": true,
          "internalType": "bytes32",
          "name": "role",
          "type": "bytes32"
        },
        {
          "indexed": true,
          "internalType": "address",
          "name": "account",
          "type": "address"
        },
        {
          "indexed": true,
          "internalType": "address",
          "name": "sender",
          "type": "address"
        }
      ],
      "name": "RoleRevoked",
      "type": "event"
    },
    {
      "inputs": [],
      "name": "BPS",
      "outputs": [
        {
          "internalType": "uint256",
          "name": "",
          "type": "uint256"
        }
      ],
      "stateMutability": "view",
      "type": "function"
    },
    {
      "inputs": [],
      "name": "CLAIM_VAULT",
      "outputs": [
        {
          "internalType": "contract IClaimVault",
          "name": "",
          "type": "address"
        }
      ],
      "stateMutability": "view",
      "type": "function"
    },
    {
      "inputs": [],
      "name": "DEFAULT_ADMIN_ROLE",
      "outputs": [
        {
          "internalType": "bytes32",
          "name": "",
          "type": "bytes32"
        }
      ],
      "stateMutability": "view",
      "type": "function"
    },
    {
      "inputs": [],
      "name": "FIRST_PLACE_PRIZE_VAULT",
      "outputs": [
        {
          "internalType": "contract IFirstPlacePrizeVault",
          "name": "",
          "type": "address"
        }
      ],
      "stateMutability": "view",
      "type": "function"
    },
    {
      "inputs": [],
      "name": "FUSDT",
      "outputs": [
        {
          "internalType": "contract IERC20",
          "name": "",
          "type": "address"
        }
      ],
      "stateMutability": "view",
      "type": "function"
    },
    {
      "inputs": [],
      "name": "MANAGER",
      "outputs": [
        {
          "internalType": "bytes32",
          "name": "",
          "type": "bytes32"
        }
      ],
      "stateMutability": "view",
      "type": "function"
    },
    {
      "inputs": [],
      "name": "REWARD_VAULT",
      "outputs": [
        {
          "internalType": "contract IRewardVault",
          "name": "",
          "type": "address"
        }
      ],
      "stateMutability": "view",
      "type": "function"
    },
    {
      "inputs": [],
      "name": "TEAM_VAULT",
      "outputs": [
        {
          "internalType": "address",
          "name": "",
          "type": "address"
        }
      ],
      "stateMutability": "view",
      "type": "function"
    },
    {
      "inputs": [
        {
          "internalType": "string",
          "name": "_winningNumber",
          "type": "string"
        },
        {
          "internalType": "uint256",
          "name": "_totalFirstPlaceWinners",
          "type": "uint256"
        },
        {
          "internalType": "uint256",
          "name": "_totalSecondPlaceWinners",
          "type": "uint256"
        },
        {
          "internalType": "uint256",
          "name": "_totalThirdPlaceWinners",
          "type": "uint256"
        }
      ],
      "name": "announce",
      "outputs": [],
      "stateMutability": "nonpayable",
      "type": "function"
    },
    {
      "inputs": [],
      "name": "announcingTime",
      "outputs": [
        {
          "internalType": "uint256",
          "name": "",
          "type": "uint256"
        }
      ],
      "stateMutability": "view",
      "type": "function"
    },
    {
      "inputs": [
        {
          "internalType": "string[]",
          "name": "selectedNumbers",
          "type": "string[]"
        }
      ],
      "name": "buyTickets",
      "outputs": [],
      "stateMutability": "nonpayable",
      "type": "function"
    },
    {
      "inputs": [
        {
          "internalType": "uint256",
          "name": "_round",
          "type": "uint256"
        },
        {
          "internalType": "string",
          "name": "_wonNumber",
          "type": "string"
        }
      ],
      "name": "claim",
      "outputs": [],
      "stateMutability": "nonpayable",
      "type": "function"
    },
    {
      "inputs": [],
      "name": "claimableRound",
      "outputs": [
        {
          "internalType": "uint8",
          "name": "",
          "type": "uint8"
        }
      ],
      "stateMutability": "view",
      "type": "function"
    },
    {
      "inputs": [
        {
          "internalType": "uint256",
          "name": "",
          "type": "uint256"
        }
      ],
      "name": "claimedPrizeAmount",
      "outputs": [
        {
          "internalType": "uint256",
          "name": "",
          "type": "uint256"
        }
      ],
      "stateMutability": "view",
      "type": "function"
    },
    {
      "inputs": [
        {
          "internalType": "uint256[]",
          "name": "_rounds",
          "type": "uint256[]"
        }
      ],
      "name": "collectExpiredPrize",
      "outputs": [],
      "stateMutability": "nonpayable",
      "type": "function"
    },
    {
      "inputs": [],
      "name": "getCurrentRoundTotalPrize",
      "outputs": [
        {
          "internalType": "uint256",
          "name": "totalPrize",
          "type": "uint256"
        },
        {
          "internalType": "uint256",
          "name": "firstPlacePrize",
          "type": "uint256"
        },
        {
          "internalType": "uint256",
          "name": "secondPlacePrize",
          "type": "uint256"
        },
        {
          "internalType": "uint256",
          "name": "thirdPlacePrize",
          "type": "uint256"
        }
      ],
      "stateMutability": "view",
      "type": "function"
    },
    {
      "inputs": [],
      "name": "getDeadline",
      "outputs": [
        {
          "internalType": "uint256",
          "name": "",
          "type": "uint256"
        }
      ],
      "stateMutability": "view",
      "type": "function"
    },
    {
      "inputs": [
        {
          "internalType": "uint256",
          "name": "_winningRound",
          "type": "uint256"
        }
      ],
      "name": "getLeftoverClaimableRound",
      "outputs": [
        {
          "internalType": "uint256",
          "name": "",
          "type": "uint256"
        }
      ],
      "stateMutability": "view",
      "type": "function"
    },
    {
      "inputs": [
        {
          "internalType": "uint256",
          "name": "_round",
          "type": "uint256"
        },
        {
          "internalType": "string",
          "name": "_wonNumber",
          "type": "string"
        },
        {
          "internalType": "address",
          "name": "_user",
          "type": "address"
        }
      ],
      "name": "getRewards",
      "outputs": [
        {
          "internalType": "uint256",
          "name": "",
          "type": "uint256"
        }
      ],
      "stateMutability": "view",
      "type": "function"
    },
    {
      "inputs": [
        {
          "internalType": "bytes32",
          "name": "role",
          "type": "bytes32"
        }
      ],
      "name": "getRoleAdmin",
      "outputs": [
        {
          "internalType": "bytes32",
          "name": "",
          "type": "bytes32"
        }
      ],
      "stateMutability": "view",
      "type": "function"
    },
    {
      "inputs": [
        {
          "internalType": "bytes32",
          "name": "role",
          "type": "bytes32"
        },
        {
          "internalType": "address",
          "name": "account",
          "type": "address"
        }
      ],
      "name": "grantRole",
      "outputs": [],
      "stateMutability": "nonpayable",
      "type": "function"
    },
    {
      "inputs": [
        {
          "internalType": "bytes32",
          "name": "role",
          "type": "bytes32"
        },
        {
          "internalType": "address",
          "name": "account",
          "type": "address"
        }
      ],
      "name": "hasRole",
      "outputs": [
        {
          "internalType": "bool",
          "name": "",
          "type": "bool"
        }
      ],
      "stateMutability": "view",
      "type": "function"
    },
    {
      "inputs": [],
      "name": "intervalBlock",
      "outputs": [
        {
          "internalType": "uint256",
          "name": "",
          "type": "uint256"
        }
      ],
      "stateMutability": "view",
      "type": "function"
    },
    {
      "inputs": [],
      "name": "intervalTime",
      "outputs": [
        {
          "internalType": "uint256",
          "name": "",
          "type": "uint256"
        }
      ],
      "stateMutability": "view",
      "type": "function"
    },
    {
      "inputs": [
        {
          "internalType": "address",
          "name": "",
          "type": "address"
        },
        {
          "internalType": "uint256",
          "name": "",
          "type": "uint256"
        },
        {
          "internalType": "string",
          "name": "",
          "type": "string"
        }
      ],
      "name": "isClaimed",
      "outputs": [
        {
          "internalType": "bool",
          "name": "",
          "type": "bool"
        }
      ],
      "stateMutability": "view",
      "type": "function"
    },
    {
      "inputs": [],
      "name": "isRoundOver",
      "outputs": [
        {
          "internalType": "bool",
          "name": "",
          "type": "bool"
        }
      ],
      "stateMutability": "view",
      "type": "function"
    },
    {
      "inputs": [],
      "name": "onlyFirstPlacePrizeAmountFromTeam",
      "outputs": [
        {
          "internalType": "uint256",
          "name": "",
          "type": "uint256"
        }
      ],
      "stateMutability": "view",
      "type": "function"
    },
    {
      "inputs": [],
      "name": "price",
      "outputs": [
        {
          "internalType": "uint256",
          "name": "",
          "type": "uint256"
        }
      ],
      "stateMutability": "view",
      "type": "function"
    },
    {
      "inputs": [
        {
          "internalType": "bytes32",
          "name": "role",
          "type": "bytes32"
        },
        {
          "internalType": "address",
          "name": "callerConfirmation",
          "type": "address"
        }
      ],
      "name": "renounceRole",
      "outputs": [],
      "stateMutability": "nonpayable",
      "type": "function"
    },
    {
      "inputs": [
        {
          "internalType": "bytes32",
          "name": "role",
          "type": "bytes32"
        },
        {
          "internalType": "address",
          "name": "account",
          "type": "address"
        }
      ],
      "name": "revokeRole",
      "outputs": [],
      "stateMutability": "nonpayable",
      "type": "function"
    },
    {
      "inputs": [],
      "name": "round",
      "outputs": [
        {
          "internalType": "uint256",
          "name": "",
          "type": "uint256"
        }
      ],
      "stateMutability": "view",
      "type": "function"
    },
    {
      "inputs": [
        {
          "internalType": "uint256",
          "name": "",
          "type": "uint256"
        }
      ],
      "name": "roundInfo",
      "outputs": [
        {
          "internalType": "string",
          "name": "winningNumber",
          "type": "string"
        },
        {
          "internalType": "uint256",
          "name": "totalPrizeAmount",
          "type": "uint256"
        },
        {
          "internalType": "uint256",
          "name": "onlyFirstPlacePrizeAmountFromTeam",
          "type": "uint256"
        },
        {
          "internalType": "uint256",
          "name": "firstPlacePrizeAmountFromFees",
          "type": "uint256"
        },
        {
          "internalType": "uint256",
          "name": "totalFirstPlacePrizeAmount",
          "type": "uint256"
        },
        {
          "internalType": "uint256",
          "name": "secondPlacePrizeAmountFromFees",
          "type": "uint256"
        },
        {
          "internalType": "uint256",
          "name": "thirdPlacePrizeAmountFromFees",
          "type": "uint256"
        },
        {
          "internalType": "uint256",
          "name": "totalFirstPlaceWinners",
          "type": "uint256"
        },
        {
          "internalType": "uint256",
          "name": "totalSecondPlaceWinners",
          "type": "uint256"
        },
        {
          "internalType": "uint256",
          "name": "totalThirdPlaceWinners",
          "type": "uint256"
        },
        {
          "internalType": "uint256",
          "name": "totalSoldTickets",
          "type": "uint256"
        },
        {
          "internalType": "uint256",
          "name": "totalSales",
          "type": "uint256"
        },
        {
          "internalType": "uint256",
          "name": "announcedBlock",
          "type": "uint256"
        }
      ],
      "stateMutability": "view",
      "type": "function"
    },
    {
      "inputs": [
        {
          "internalType": "uint256",
          "name": "_announcingTime",
          "type": "uint256"
        }
      ],
      "name": "setAnnouncingTime",
      "outputs": [],
      "stateMutability": "nonpayable",
      "type": "function"
    },
    {
      "inputs": [
        {
          "internalType": "uint8",
          "name": "_claimableRound",
          "type": "uint8"
        }
      ],
      "name": "setClaimableRound",
      "outputs": [],
      "stateMutability": "nonpayable",
      "type": "function"
    },
    {
      "inputs": [
        {
          "internalType": "uint256",
          "name": "_intervalblock",
          "type": "uint256"
        }
      ],
      "name": "setIntervalBlock",
      "outputs": [],
      "stateMutability": "nonpayable",
      "type": "function"
    },
    {
      "inputs": [
        {
          "internalType": "uint256",
          "name": "_intervalTime",
          "type": "uint256"
        }
      ],
      "name": "setIntervalTime",
      "outputs": [],
      "stateMutability": "nonpayable",
      "type": "function"
    },
    {
      "inputs": [
        {
          "internalType": "uint256",
          "name": "_onlyFirstPlacePrizeAmountFromTeam",
          "type": "uint256"
        }
      ],
      "name": "setOnlyFirstPlacePrizeAmountFromTeam",
      "outputs": [],
      "stateMutability": "nonpayable",
      "type": "function"
    },
    {
      "inputs": [
        {
          "internalType": "uint256",
          "name": "_price",
          "type": "uint256"
        }
      ],
      "name": "setPrice",
      "outputs": [],
      "stateMutability": "nonpayable",
      "type": "function"
    },
    {
      "inputs": [
        {
          "internalType": "uint16",
          "name": "_shareOfTheFirstPlacePrize",
          "type": "uint16"
        },
        {
          "internalType": "uint16",
          "name": "_shareOfTheSecondPlacePrize",
          "type": "uint16"
        },
        {
          "internalType": "uint16",
          "name": "_shareOfTheThirdPlacePrize",
          "type": "uint16"
        }
      ],
      "name": "setPrizeShares",
      "outputs": [],
      "stateMutability": "nonpayable",
      "type": "function"
    },
    {
      "inputs": [
        {
          "internalType": "contract IStaking",
          "name": "_staking",
          "type": "address"
        }
      ],
      "name": "setStaking",
      "outputs": [],
      "stateMutability": "nonpayable",
      "type": "function"
    },
    {
      "inputs": [
        {
          "internalType": "uint256",
          "name": "_startingBlock",
          "type": "uint256"
        }
      ],
      "name": "setStartingBlock",
      "outputs": [],
      "stateMutability": "nonpayable",
      "type": "function"
    },
    {
      "inputs": [
        {
          "internalType": "uint256",
          "name": "_startingTime",
          "type": "uint256"
        }
      ],
      "name": "setStartingTime",
      "outputs": [],
      "stateMutability": "nonpayable",
      "type": "function"
    },
    {
      "inputs": [
        {
          "internalType": "uint16",
          "name": "_taxForTeamVault",
          "type": "uint16"
        },
        {
          "internalType": "uint16",
          "name": "_taxForRewardVault",
          "type": "uint16"
        },
        {
          "internalType": "uint16",
          "name": "_taxForClaimVault",
          "type": "uint16"
        }
      ],
      "name": "setTaxes",
      "outputs": [],
      "stateMutability": "nonpayable",
      "type": "function"
    },
    {
      "inputs": [],
      "name": "shareOfTheFirstPlacePrize",
      "outputs": [
        {
          "internalType": "uint16",
          "name": "",
          "type": "uint16"
        }
      ],
      "stateMutability": "view",
      "type": "function"
    },
    {
      "inputs": [],
      "name": "shareOfTheSecondPlacePrize",
      "outputs": [
        {
          "internalType": "uint16",
          "name": "",
          "type": "uint16"
        }
      ],
      "stateMutability": "view",
      "type": "function"
    },
    {
      "inputs": [],
      "name": "shareOfTheThirdPlacePrize",
      "outputs": [
        {
          "internalType": "uint16",
          "name": "",
          "type": "uint16"
        }
      ],
      "stateMutability": "view",
      "type": "function"
    },
    {
      "inputs": [],
      "name": "staking",
      "outputs": [
        {
          "internalType": "contract IStaking",
          "name": "",
          "type": "address"
        }
      ],
      "stateMutability": "view",
      "type": "function"
    },
    {
      "inputs": [],
      "name": "startingBlock",
      "outputs": [
        {
          "internalType": "uint256",
          "name": "",
          "type": "uint256"
        }
      ],
      "stateMutability": "view",
      "type": "function"
    },
    {
      "inputs": [],
      "name": "startingTime",
      "outputs": [
        {
          "internalType": "uint256",
          "name": "",
          "type": "uint256"
        }
      ],
      "stateMutability": "view",
      "type": "function"
    },
    {
      "inputs": [
        {
          "internalType": "bytes4",
          "name": "interfaceId",
          "type": "bytes4"
        }
      ],
      "name": "supportsInterface",
      "outputs": [
        {
          "internalType": "bool",
          "name": "",
          "type": "bool"
        }
      ],
      "stateMutability": "view",
      "type": "function"
    },
    {
      "inputs": [],
      "name": "taxForClaimVault",
      "outputs": [
        {
          "internalType": "uint16",
          "name": "",
          "type": "uint16"
        }
      ],
      "stateMutability": "view",
      "type": "function"
    },
    {
      "inputs": [],
      "name": "taxForRewardVault",
      "outputs": [
        {
          "internalType": "uint16",
          "name": "",
          "type": "uint16"
        }
      ],
      "stateMutability": "view",
      "type": "function"
    },
    {
      "inputs": [],
      "name": "taxForTeamVault",
      "outputs": [
        {
          "internalType": "uint16",
          "name": "",
          "type": "uint16"
        }
      ],
      "stateMutability": "view",
      "type": "function"
    },
    {
      "inputs": [
        {
          "internalType": "uint256",
          "name": "",
          "type": "uint256"
        },
        {
          "internalType": "string",
          "name": "",
          "type": "string"
        }
      ],
      "name": "totalSelectedNumberByRound",
      "outputs": [
        {
          "internalType": "uint256",
          "name": "",
          "type": "uint256"
        }
      ],
      "stateMutability": "view",
      "type": "function"
    },
    {
      "inputs": [
        {
          "internalType": "address",
          "name": "",
          "type": "address"
        },
        {
          "internalType": "uint256",
          "name": "",
          "type": "uint256"
        },
        {
          "internalType": "string",
          "name": "",
          "type": "string"
        }
      ],
      "name": "totalSelectedNumberByUser",
      "outputs": [
        {
          "internalType": "uint256",
          "name": "",
          "type": "uint256"
        }
      ],
      "stateMutability": "view",
      "type": "function"
    }
  ],
  "bytecode": "0x61012060405234620000b3576200002662000019620001dc565b9493909392919262000418565b604051613400620006f1823960805181818161061601528181611a1d01528181612103015281816123500152612af3015260a05181818161131101528181612384015281816126b3015281816127de0152612ede015260c0518181816107230152612132015260e05181818161124a015261245b01526101005181818161121001526121e6015261340090f35b600080fd5b634e487b7160e01b600052604160045260246000fd5b90601f01601f191681019081106001600160401b03821117620000f057604052565b620000b8565b906200010d6200010560405190565b9283620000ce565b565b6001600160a01b031690565b90565b6001600160a01b0381165b03620000b357565b905051906200010d826200011e565b6001600160a01b03811662000129565b905051906200010d8262000140565b8062000129565b905051906200010d826200015f565b909160c082840312620000b3576200018e838362000131565b926200019e816020850162000131565b92620001ae826040830162000131565b926200011b620001c2846060850162000131565b93620001d2816080860162000150565b9360a00162000166565b620001ff62003af180380380620001f381620000f6565b92833981019062000175565b909192939495565b6200011b6200011b6200011b9290565b90600019905b9181191691161790565b906200023b6200011b620002439262000207565b825462000217565b9055565b620002576200011b6200011b9290565b60ff1690565b9060ff906200021d565b620002576200011b6200011b9260ff1690565b906200028e6200011b620002439262000267565b82546200025d565b620002a66200011b6200011b9290565b61ffff1690565b9062ffff009060081b6200021d565b620002a66200011b6200011b9261ffff1690565b90620002e46200011b6200024392620002bc565b8254620002ad565b9066ffff00000000009060281b6200021d565b90620003136200011b6200024392620002bc565b8254620002ec565b9064ffff0000009060181b6200021d565b90620003406200011b6200024392620002bc565b82546200031b565b9068ffff000000000000009060381b6200021d565b90620003716200011b6200024392620002bc565b825462000348565b906affff0000000000000000009060481b6200021d565b90620003a46200011b6200024392620002bc565b825462000379565b906cffff00000000000000000000009060581b6200021d565b90620003d96200011b6200024392620002bc565b8254620003ac565b6200011b7faf290d8680820aad922855f39b306097b20e28774d6c1ad35a20325630c3a02c62000207565b6200011b600062000207565b9493909190428510620005b9576200058a956080526101005260c05260a05260e052620004526200044a600162000207565b600262000227565b620004aa60076200046f620004678262000247565b60096200027a565b620004896200048162014f2862000207565b600562000227565b620004a26200049a61025862000207565b600662000227565b439062000227565b620004c3620004bb61a79462000207565b600862000227565b620004dd620004d5620f424062000207565b600362000227565b62000550620004ee6103e862000296565b620004fb816009620002d0565b620005146200050c6107d062000296565b6009620002ff565b6200052d62000525611b5862000296565b60096200032c565b620005486200054063b2d05e0062000207565b600a62000227565b60096200035d565b620005696200056161177062000296565b600962000390565b620005826200057a610bb862000296565b6009620003c5565b600462000227565b620005b662000598620003e1565b620005a533809262000626565b50620005b06200040c565b62000626565b50565b604051630a2d38c160e41b8152600490fd5b905b600052602052604060002090565b6200011b906200010f906001600160a01b031682565b6200011b90620005db565b6200011b90620005f1565b90620005cd90620005fc565b906200028e6200011b6200024392151590565b6200063a620006368383620006d2565b1590565b15620006b4576001916200066883620006628360006200065b8782620005cb565b0162000607565b62000613565b3390620006a26200069b6200069b7f2f8788117e7eff1d82e926ec794901d17c78024a50270940304540a733656f0d9590565b92620005fc565b92620006ad60405190565b600090a490565b5050600090565b6200011b9062000257565b6200011b9054620006bb565b6200011b91620006ea916200065b60009182620005cb565b620006c656fe6080604052600436101561001257600080fd5b60003560e01c806301ffc9a71461038257806305bdae2e1461037d5780630d63e87d14610378578063146ca53114610373578063149317831461036e5780631b2df850146103695780631b2e30a71461036457806323c358341461035f578063248a9ca31461035a578063249d39e914610355578063268b15ed1461035057806327f9387f1461034b57806328d7b264146103465780632f2ff15d14610341578063305876a71461033c57806331b868b81461033757806332cde6641461033257806336568abe1461032d57806336f3d8601461032857806337ecf1ea1461032357806339518b5e1461031e5780633cb3e0f3146103195780633f52e58914610314578063427f0b001461030f57806345f8ea421461030a5780634cf088d91461030557806355c46939146103005780635f8d96de146102fb5780636635ced7146102f6578063781632f3146102f15780637cb1fbc3146102ec5780638f54be0e146102e75780638ff39099146102e25780639041ac37146102dd57806391b7f5ed146102d857806391d14854146102d35780639f86db89146102ce578063a035b1fe146102c9578063a0889c1e146102c4578063a217fddf146102bf578063ace87fd7146102ba578063ae21e4e5146102b5578063b2730541146102b0578063b3f2045f146102ab578063ba5ea3f7146102a6578063bd07dfbd146102a1578063c33451871461029c578063c809c3d214610297578063c9399b8514610292578063cd3bec271461028d578063d547741f14610288578063d91c98d314610283578063ec17b20e1461027e578063f6d9e83f146102795763fd3c9144036103b257611468565b611441565b611417565b6113fc565b6113d7565b6113bc565b611397565b61137c565b611341565b6112fc565b6112e0565b61127a565b611235565b6111f7565b6111c3565b61119c565b611172565b61112d565b611102565b6110a2565b61108a565b61106f565b61104c565b610ffe565b610fd7565b610faf565b610f60565b610f1e565b610f05565b610e94565b610e55565b610e0c565b610b6a565b610b39565b610aed565b610ac9565b610aad565b610853565b61083a565b610822565b610807565b6107ee565b610799565b61070e565b6106f5565b610670565b610642565b610601565b610581565b61051f565b6104c9565b6104ae565b610464565b610439565b6103e1565b7fffffffff0000000000000000000000000000000000000000000000000000000081165b036103b257565b600080fd5b905035906103c482610387565b565b906020828203126103b2576103da916103b7565b90565b9052565b346103b25761040e6103fc6103f73660046103c6565b611483565b60405191829182901515815260200190565b0390f35b806103ab565b905035906103c482610412565b906020828203126103b2576103da91610418565b346103b25761040e61045461044f366004610425565b612ffe565b6040519182918290815260200190565b346103b25761047c610477366004610425565b6132ed565b604051005b60009103126103b257565b6103da916008021c81565b906103da915461048c565b6103da60006002610497565b346103b2576104be366004610481565b61040e6104546104a2565b346103b25761047c6104dc366004610425565b613356565b6103da6103da6103da9290565b6103da7faf290d8680820aad922855f39b306097b20e28774d6c1ad35a20325630c3a02c6104e1565b6103da6104ee565b346103b25761052f366004610481565b61040e610454610517565b61ffff81166103ab565b905035906103c48261053a565b90916060828403126103b2576103da61056a8484610544565b936105788160208601610544565b93604001610544565b346103b25761047c610594366004610551565b91613227565b6105bd6103da6103da9273ffffffffffffffffffffffffffffffffffffffff1690565b73ffffffffffffffffffffffffffffffffffffffff1690565b6103da9061059a565b6103da906105d6565b6103dd906105df565b6020810192916103c491906105e8565b346103b257610611366004610481565b61040e7f00000000000000000000000000000000000000000000000000000000000000005b604051918291826105f1565b346103b25761040e610454610658366004610425565b611557565b6103da6127106104e1565b6103da61065d565b346103b257610680366004610481565b61040e610454610668565b909182601f830112156103b25781359167ffffffffffffffff83116103b25760200192600183028401116103b257565b9190916040818403126103b2576106d28382610418565b92602082013567ffffffffffffffff81116103b2576106f1920161068b565b9091565b346103b25761047c6107083660046106bb565b916125c9565b346103b25761071e366004610481565b61040e7f0000000000000000000000000000000000000000000000000000000000000000610636565b906080828203126103b257813567ffffffffffffffff81116103b2578161076f91840161068b565b9290936103da6107828460208501610418565b936107908160408601610418565b93606001610418565b346103b25761047c6107ac366004610747565b93929092612530565b6103ab816105bd565b905035906103c4826107b5565b91906040838203126103b2576103da906107e58185610418565b936020016107be565b346103b25761047c6108013660046107cb565b90611599565b346103b257610817366004610481565b61040e6103fc612a78565b346103b25761047c610835366004610425565b613310565b346103b25761047c61084d366004610551565b9161313b565b346103b25761047c6108663660046107cb565b90611647565b7f4e487b7100000000000000000000000000000000000000000000000000000000600052604160045260246000fd5b90601f017fffffffffffffffffffffffffffffffffffffffffffffffffffffffffffffffe016810190811067ffffffffffffffff8211176108db57604052565b61086c565b906103c46108ed60405190565b928361089b565b67ffffffffffffffff81116108db57602090601f017fffffffffffffffffffffffffffffffffffffffffffffffffffffffffffffffe0160190565b0190565b90826000939282370152565b9092919261095461094f826108f4565b6108e0565b938185526020850190828401116103b2576103c492610933565b9080601f830112156103b2578160206103da9335910161093f565b916060838303126103b25761099e82846107be565b926109ac8360208301610418565b92604082013567ffffffffffffffff81116103b2576103da920161096e565b906109d5906105df565b600052602052604060002090565b906109d5906104e1565b60005b838110610a005750506000910152565b81810151838201526020016109f0565b61092f610a2892602092610a22815190565b94859290565b938491016109ed565b610a4161092f9160209493610a10565b918252565b610a5b610a5260405190565b92839283610a31565b03902090565b6103da91610a46565b6103da916008021c5b60ff1690565b906103da9154610a6a565b906103da92610aa3610aa892610a9e600c956000966109cb565b6109e3565b610a61565b610a79565b346103b25761040e6103fc610ac3366004610989565b91610a84565b346103b25761047c610adc366004610425565b6132a7565b6103da60006004610497565b346103b257610afd366004610481565b61040e610454610ae1565b610b356103c494610b2e606094989795610b27608086019a6000870152565b6020850152565b6040830152565b0152565b346103b257610b49366004610481565b61040e610b54612ae9565b90610b6194929460405190565b94859485610b08565b346103b25761047c610b7d366004610425565b6132ca565b7f4e487b7100000000000000000000000000000000000000000000000000000000600052602260045260246000fd5b9060016002830492168015610bd1575b6020831014610bcc57565b610b82565b91607f1691610bc1565b80546000939291610bf8610bee83610bb1565b8085529360200190565b9160018116908115610c4a5750600114610c1157505050565b610c249192939450600052602060002090565b916000925b818410610c365750500190565b805484840152602090930192600101610c29565b92949550505060ff1916825215156020020190565b906103da91610bdb565b906103c4610c8392610c7a60405190565b93848092610c5f565b038361089b565b6103da9081565b6103da9054610c8a565b610ca690600e6109e3565b610caf81610c69565b91610cbc60018301610c91565b91610cc960028201610c91565b91610cd660038301610c91565b91610ce360048201610c91565b91610cf060058301610c91565b91610cfd60068201610c91565b91610d0a60078301610c91565b91610d1760088201610c91565b91610d2460098301610c91565b91610d31600a8201610c91565b916103da600c610d43600b8501610c91565b9301610c91565b610d6b610d7460209361092f93610d5f815190565b80835293849260200190565b958691016109ed565b601f017fffffffffffffffffffffffffffffffffffffffffffffffffffffffffffffffe01690565b9a98969492909d9c9b99979593919d6101a08c018c8082039060000152610dc291610d4a565b9d60208c01610dcf919052565b60408b015260608a0152608089015260a088015260c087015260e08601526101008501526101208401526101408301526101608201526101800152565b346103b25761040e610e27610e22366004610425565b610c9b565b99610e409d9b9d99919998929897939796949660405190565b9d8e9d8e610d9c565b6103da60006006610497565b346103b257610e65366004610481565b61040e610454610e49565b6103da916008021c6105bd565b906103da9154610e70565b6103da60006001610e7d565b346103b257610ea4366004610481565b61040e610636610e88565b909182601f830112156103b25781359167ffffffffffffffff83116103b25760200192602083028401116103b257565b906020828203126103b257813567ffffffffffffffff81116103b2576106f19201610eaf565b346103b25761047c610f18366004610edf565b90612fba565b346103b257610f2e366004610481565b61040e610454612c08565b6103da916008021c5b61ffff1690565b906103da9154610f39565b6103da60036009610f49565b346103b257610f70366004610481565b61040e610f7b610f54565b6040519182918261ffff909116815260200190565b906103da92610aa3610faa92610a9e600d956000966109cb565b610497565b346103b25761040e610454610fc5366004610989565b91610f90565b6103da6000600a610497565b346103b257610fe7366004610481565b61040e610454610fcb565b6103da60006008610497565b346103b25761100e366004610481565b61040e610454610ff2565b6103da906105bd565b6103ab81611019565b905035906103c482611022565b906020828203126103b2576103da9161102b565b346103b25761047c61105f366004611038565b613284565b6103da600980610f49565b346103b25761107f366004610481565b61040e610f7b611064565b346103b25761047c61109d366004610425565b6133c1565b346103b25761040e6103fc6110b83660046107cb565b90611538565b906060828203126103b2576110d38183610418565b92602083013567ffffffffffffffff81116103b2576110f7836103da92860161068b565b9390946040016107be565b346103b25761040e6104546111183660046110be565b92919091612965565b6103da60006003610497565b346103b25761113d366004610481565b61040e610454611121565b60ff81166103ab565b905035906103c482611148565b906020828203126103b2576103da91611151565b346103b25761047c61118536600461115e565b61339e565b6103da60006104e1565b6103da61118a565b346103b2576111ac366004610481565b61040e610454611194565b6103da60056009610f49565b346103b2576111d3366004610481565b61040e610f7b6111b7565b6103dd906105bd565b6020810192916103c491906111de565b346103b257611207366004610481565b6040518061040e7f0000000000000000000000000000000000000000000000000000000000000000826111e7565b346103b257611245366004610481565b61040e7f0000000000000000000000000000000000000000000000000000000000000000610636565b6103da60076009610f49565b346103b25761128a366004610481565b61040e610f7b61126e565b9190916040818403126103b2576112ac8382610418565b92602082013567ffffffffffffffff81116103b2576103da920161096e565b610faa6103da92610aa3600b936000946109e3565b346103b25761040e6104546112f6366004611295565b906112cb565b346103b25761130c366004610481565b61040e7f0000000000000000000000000000000000000000000000000000000000000000610636565b6103da60006009610a79565b346103b257611351366004610481565b61040e61135c611335565b6040519182918260ff909116815260200190565b6103da600b6009610f49565b346103b25761138c366004610481565b61040e610f7b611370565b346103b25761047c6113aa366004610edf565b90611998565b6103da60016009610f49565b346103b2576113cc366004610481565b61040e610f7b6113b0565b346103b25761047c6113ea3660046107cb565b9061163d565b6103da60006007610497565b346103b25761140c366004610481565b61040e6104546113f0565b346103b25761047c61142a366004610425565b613333565b6103da90610faa600f916000926109e3565b346103b25761040e610454611457366004610425565b61142f565b6103da60006005610497565b346103b257611478366004610481565b61040e61045461145c565b7f7965db0b000000000000000000000000000000000000000000000000000000007fffffffff000000000000000000000000000000000000000000000000000000008216149081156114d3575090565b6103da91507fffffffff00000000000000000000000000000000000000000000000000000000167f01ffc9a7000000000000000000000000000000000000000000000000000000001490565b906109d5565b6103da90610a73565b6103da9054611525565b6103da916115529161154c6000918261151f565b016109cb565b61152e565b60016115706103da92611568600090565b50600061151f565b01610c91565b906103c49161158c61158782611557565b6115a3565b90611596916116bd565b50565b906103c491611576565b6103c49033906115c9565b9160206103c4929493610b35604082019660008301906111de565b906115db6115d78284611538565b1590565b6115e3575050565b61161e6115ef60405190565b9283927fe2517d3f000000000000000000000000000000000000000000000000000000008452600484016115ae565b0390fd5b906103c49161163361158782611557565b9061159691611739565b906103c491611622565b90611651336105bd565b61165a826105bd565b036116685761159691611739565b6040517f6697b232000000000000000000000000000000000000000000000000000000008152600490fd5b9060ff905b9181191691161790565b906116b26103da6116b992151590565b8254611693565b9055565b6116ca6115d78383611538565b15611732576001916116eb836116e683600061154c878261151f565b6116a2565b339061172161171b61171b7f2f8788117e7eff1d82e926ec794901d17c78024a50270940304540a733656f0d9590565b926105df565b9261172b60405190565b600090a490565b5050600090565b906117448183611538565b156117325761175d60006116e6838261154c878261151f565b339061178d61171b61171b7ff6391f5c32d9c69d2a47ea670b442974b53935d1edc7fd64eb21e047a839171b9590565b9261179760405190565b600090a4600190565b7f4e487b7100000000000000000000000000000000000000000000000000000000600052601160045260246000fd5b818102929181159184041417156117e257565b6117a0565b919082018092116117e257565b907fffffffffffffffffffffffffffffffffffffffffffffffffffffffffffffffff90611698565b9061182c6103da6116b9926104e1565b82546117f4565b8015156103ab565b905051906103c482611833565b906020828203126103b2576103da9161183b565b604090610b356103c4949695939661187c606084019860008501906111de565b60208301906111de565b6040513d6000823e3d90fd5b7fffffffffffffffffffffffffffffffffffffffffffffffffffffffffffffffff81146117e25760010190565b7f4e487b7100000000000000000000000000000000000000000000000000000000600052603260045260246000fd5b9035907fffffffffffffffffffffffffffffffffffffffffffffffffffffffffffffffe136829003018212156103b2570180359067ffffffffffffffff82116103b257602001913682900383136103b257565b908210156119585760206106f192028101906118ee565b6118bf565b6103da91369161093f565b6103da91610a10565b610a5b9061197e60405190565b91829182611968565b60208082526103da92910190610d4a565b9190916119a3612a78565b611bcc576000926119c26103da600e6119bc6002610c91565b906109e3565b9181936119cf6002610c91565b93611a16600b6119e8886119e36003610c91565b6117cf565b92611a08600a8201611a028b6119fd83610c91565b6117e7565b9061181c565b01611a02836119fd83610c91565b6020611a417f00000000000000000000000000000000000000000000000000000000000000006105df565b6323b872dd90611a71339a8b93611a7c611a5a306105df565b97611a6460405190565b9889978896879560e01b90565b85526004850161185c565b03925af18015611bc757611b9b575b5060005b855b811015611b9257611aac611aa6828686611941565b9061195d565b8051611abf611abb60056104e1565b9190565b03611b6757611a919181611b05611aed82610aa38b610a9e8f611afe611aed611b609b610aa386600b6109e3565b611a02611af982610c91565b611892565b600d6109cb565b7f39b26984674b53cc84984042853630db5a3744112d02e74b7d3469abef12f0b8611b2f896104e1565b611b388c6105df565b91611b58611b4585611971565b94611b4f60405190565b91829182611987565b0390a4611892565b9050611a8f565b6040517f1e0605d3000000000000000000000000000000000000000000000000000000008152600490fd5b50945050505050565b611bbb9060203d8111611bc0575b611bb3818361089b565b810190611848565b611a8b565b503d611ba9565b611886565b6040517fdf469ccb000000000000000000000000000000000000000000000000000000008152600490fd5b906103c494939291611c0a6115876104ee565b611ed7565b6103da9060181c610f42565b6103da9054611c0f565b6103da9060281c610f42565b6103da9054611c25565b6103da9060081c610f42565b6103da9054611c3b565b6103da6103da6103da9261ffff1690565b6103da9060381c610f42565b6103da9054611c62565b6103da9060481c610f42565b6103da9054611c78565b6103da9060581c610f42565b6103da9054611c8e565b91906008611698910291611cd77fffffffffffffffffffffffffffffffffffffffffffffffffffffffffffffffff841b90565b921b90565b9190611ced6103da6116b9936104e1565b908354611ca4565b6103c491600091611cdc565b818110611d0c575050565b80611d1a6000600193611cf5565b01611d01565b9190601f8111611d2f57505050565b611d416103c493600052602060002090565b906020601f840181900483019310611d63575b6020601f909101040190611d01565b9091508190611d54565b919067ffffffffffffffff82116108db57611d9282611d8c8554610bb1565b85611d20565b600090601f8311600114611deb576116b9929160009183611de0575b50507fffffffffffffffffffffffffffffffffffffffffffffffffffffffffffffffff600883021c1916906002021790565b013590503880611dae565b601f19831691611e0085600052602060002090565b92815b818110611e5b57509160029391856001969410611e24575b50505002019055565b01357fffffffffffffffffffffffffffffffffffffffffffffffffffffffffffffffff601f84166008021c19169055388080611e1b565b91936020600181928787013581550195019201611e03565b906103c49291611d6d565b919082039182116117e257565b9081526040810192916103c49160200152565b6103da9054611019565b9190610d7481611ebf8161092f9560209181520190565b8095610933565b60208082526103da93910191611ea8565b93929091611ee66115d7612a78565b6125055782611ef56002610c91565b94611f09611f0287611892565b600261181c565b611f3d611f36611f2c611f1c6004610c91565b611f266005610c91565b906117e7565b611f266006610c91565b600461181c565b600e9287611f5f6103da611f546103da8b896109e3565b966119bc6002610c91565b91611fa8611f6f600b8801610c91565b611f796009611c1b565b611f836009611c31565b611fa2611f9c611f9c611f966009611c47565b94611c51565b92611c51565b92612c15565b9891969097611feb611fba6009611c6e565b611fc46009611c84565b90611fe4611fde611fd8611fd86009611c9a565b93611c51565b91611c51565b918b612c15565b9590949180611ffa60006104e1565b8303612426575050926120e595926120ec996120de9693600b999661201f60006104e1565b61202c816003870161181c565b612039816004870161181c565b945b61204560006104e1565b8314612414575b61205660006104e1565b84146123e0575b6120d4926120c286959361207f6120cb946119fd9c9d60006119fd9b01611e73565b61209f6120968d6119fd8d6119fd60048d01610c91565b6001890161181c565b6120ac8a6005890161181c565b6120b98c6006890161181c565b6007870161181c565b6008850161181c565b6009830161181c565b600c43910161181c565b8095611e7e565b910161181c565b6120f660006104e1565b8103612349575b506121277f00000000000000000000000000000000000000000000000000000000000000006105df565b63a9059cbb906121567f00000000000000000000000000000000000000000000000000000000000000006105df565b9261216060405190565b61216a8460e01b90565b81526020818061217e8589600484016115ae565b03816000875af18015611bc75761232d575b5063bc300b7790843b156103b2576121cb946121bf600080946121b260405190565b9889958694859360e01b90565b83528d60048401611e8b565b03925af1928315611bc757602093612317575b5061221f60007f00000000000000000000000000000000000000000000000000000000000000009361222a61221260405190565b9788968795869460e01b90565b8452600484016115ae565b03925af18015611bc7576122fb575b5061224c6122476001611e9e565b6105df565b63c8e6bd7490803b156103b2576122729160009161226960405190565b93849260e01b90565b825260048201869052602490829084905af18015611bc7576122d5575b506122ba7fabbe72c04ae4046f790663c37a42637f60a3e9f034d3a2db3b11cdf6533fa4fe926104e1565b926122d06122c760405190565b92839283611ec6565b0390a2565b6122ee9060005b6122e6818361089b565b810190610481565b3861228f565b503d6122dc565b6123129060203d8111611bc057611bb3818361089b565b612239565b6123279060006122e6818361089b565b386121de565b6123449060203d8111611bc057611bb3818361089b565b612190565b60206123747f00000000000000000000000000000000000000000000000000000000000000006105df565b63a9059cbb9061221f60006123a87f00000000000000000000000000000000000000000000000000000000000000006105df565b936123b561221260405190565b03925af18015611bc757156120fd576123db9060203d8111611bc057611bb3818361089b565b6120fd565b6119fd97506120d4926120c26119fd96959361207f6120cb9461240360006104e1565b9c509450509395965050925061205d565b955061242060006104e1565b9561204c565b612456929850849693955061244381600361244d949a970161181c565b6119fd600a610c91565b6004860161181c565b61247f7f00000000000000000000000000000000000000000000000000000000000000006105df565b9463aa434d1b61248f600a610c91565b873b156103b2576124c5976124b7600080946124aa60405190565b9b8c958694859360e01b90565b835260048301526024820190565b03925af1948515611bc7578f94996120ec9a8f99600b9a6120e59a6120de9a6124ef575b5061203b565b6124ff9060006122e6818361089b565b386124e9565b6040517fc9b0a2a7000000000000000000000000000000000000000000000000000000008152600490fd5b906103c494939291611bf7565b909161092f9083908093610933565b610a41906020949361092f9361253d565b9091610a5b9061256c60405190565b9384938461254c565b90916103da9261255d565b6103da90610c69565b610a736103da6103da9290565b6125bc6103da95939492946125b56060840196600085019060ff169052565b6020830152565b6040818503910152611ea8565b9190916125d581612fd4565b61293a5733916125fc6125f782866125f286610a9e89600d6109cb565b612575565b610c91565b90600090612609826104e1565b831461290f57600c9261262861155283896125f289610a9e8c8b6109cb565b6128e457859361263c6103da87600e6109e3565b9061266c612655858b612650898701612580565b612ce2565b916116e6868c6125f28c610a9e60019d8e976109cb565b6005612677816104e1565b820361279e575050908161269c600461269560076126a29601610c91565b9201610c91565b91612c97565b906126ad8294612589565b926126d77f00000000000000000000000000000000000000000000000000000000000000006105df565b63b5597a80813b156103b257829161221f838b936127046126f760405190565b998a968795869460e01b90565b03925af1928315611bc75761277c93612781575b50505b61273661272986600f6109e3565b611a02866119fd83610c91565b6127696127637fd87fa799b89fd28754abc0f1affd1d078b8f0fc5aa0c4e019eeba3ed6e3a3f21966104e1565b966105df565b9661277360405190565b94859485612596565b0390a3565b8161279792903d106122f4576122e6818361089b565b3880612718565b90939495506004936127af856104e1565b810361287257509061269c6127cb939261269560088401610c91565b9182936127d86002612589565b936128027f00000000000000000000000000000000000000000000000000000000000000006105df565b9363b5597a8094803b156103b257612831848b9761283a829661282460405190565b9a8b978896879560e01b90565b855284016115ae565b03925af1928315611bc75761277c93612855575b505061271b565b8161286b92903d106122f4576122e6818361089b565b388061284e565b6003969593929150612886611abb886104e1565b036128ac57908161269c600661269560096128a19601610c91565b926127d88495612589565b61161e846128b960405190565b7f1de09715000000000000000000000000000000000000000000000000000000008152918291820190565b6040517f646cf558000000000000000000000000000000000000000000000000000000008152600490fd5b6040517fc5723b51000000000000000000000000000000000000000000000000000000008152600490fd5b6040517f203d82d8000000000000000000000000000000000000000000000000000000008152600490fd5b91926000936129816125f782856125f288610a9e88600d6109cb565b93806000938386612991876104e1565b8914928315612a57575b5050509050612a4857906129b66103da6129c293600e6109e3565b93612650848601612580565b600594506129cf856104e1565b81036129ed5750506103da925061269c600461269560078401610c91565b6129f760046104e1565b8103612a1257505061269c6103da9361269560088401610c91565b909350612a22611abb60036104e1565b03612a3d576103da925061269c600661269560098401610c91565b50506103da906104e1565b50509150506103da91506104e1565b6115529350612a6e94610a9e6125f292600c6109cb565b819083863861299b565b612a85611f1c6004610c91565b421190565b905051906103c482610412565b906020828203126103b2576103da91612a8a565b7f4e487b7100000000000000000000000000000000000000000000000000000000600052601260045260246000fd5b8115612ae4570490565b612aab565b612b4b6020612b177f00000000000000000000000000000000000000000000000000000000000000006105df565b6370a0823190612b40612b29306105df565b92612b3360405190565b9586948593849360e01b90565b8352600483016111e7565b03915afa8015611bc757612b81612b8f91612bb693600091612bda575b50612b7b612b766009611c1b565b611c51565b906117cf565b612b8961065d565b90612ada565b612b996009611c6e565b612ba36009611c84565b611fa2611f9c611f9c611f966009611c9a565b612bd781939293916119fd612bd08695611f26600a610c91565b95866117e7565b93565b612bfb915060203d8111612c01575b612bf3818361089b565b810190612a97565b38612b68565b503d612be9565b6103da611f1c6004610c91565b91939192612c27906119fd86846117e7565b612c2f61065d565b90819003612c6c57612c67612c5f612c5383612c4e6103da96896117cf565b612ada565b92612c4e8498886117cf565b918295611e7e565b611e7e565b6040517fb8e7972b000000000000000000000000000000000000000000000000000000008152600490fd5b90612cc56103da936119e3612b8993612cae600090565b50612c4e670de0b6b3a764000096612b7b886104e1565b916104e1565b90612cd4825190565b811015611958570160200190565b909291600091612cf160405190565b612d0f8160208101612d038582611987565b9081038252038261089b565b612d21612d1a825190565b9160200190565b20612d53611abb612d3160405190565b612d448160208101612d03898d83611ec6565b612d4f612d1a825190565b2090565b14612e3c5793612d6291611aa6565b835192825b845b811015612e3357612da3612d7d8288612ccb565b517fff000000000000000000000000000000000000000000000000000000000000001690565b612e01612ddb612db6612d7d8588612ccb565b7fff000000000000000000000000000000000000000000000000000000000000001690565b917fff000000000000000000000000000000000000000000000000000000000000001690565b14612e1a575b612e13612d6991611892565b9050612d67565b92612e13612e2a612d6992611892565b94915050612e07565b50935050905090565b50505090506103da60056104e1565b906103c491612e5b6115876104ee565b612e7a565b9190811015611958576020020190565b356103da81610412565b819260005b845b811015612fb357612e9b612e96828686612e60565b612e70565b90612ea86115d783612fd4565b612f8857600e90612ebe600161157085856109e3565b91612ed8600f93612ed26125f787876109e3565b90611e7e565b92612f027f00000000000000000000000000000000000000000000000000000000000000006105df565b63b5597a80903390803b156103b25761221f60008094612f31612f2460405190565b9a8b968795869460e01b90565b03925af1938415611bc75785612f606001611570612e8199611af997612f6696612f6b9b612f72575b506109e3565b926109e3565b61181c565b9050612e7f565b612f829060006122e6818361089b565b38612f5a565b6040517fe09fface000000000000000000000000000000000000000000000000000000008152600490fd5b5092505050565b906103c491612e4b565b6103da6103da6103da9260ff1690565b612ffa611abb6103da612fe76002610c91565b93611f26612ff5600961152e565b612fc4565b1190565b61300f90611f26612ff5600961152e565b61301c6103da6002610c91565b811115613036576103da906130316002610c91565b900390565b506103da60006104e1565b906103c492916130526115876104ee565b6130f2565b61ffff9081169116019061ffff82116117e257565b9062ffff009060081b611698565b610f426103da6103da9261ffff1690565b9061309b6103da6116b99261307a565b825461306c565b9066ffff00000000009060281b611698565b906130c46103da6116b99261307a565b82546130a2565b9064ffff0000009060181b611698565b906130eb6103da6116b99261307a565b82546130cb565b919091613108826131038584613057565b613057565b613116611fde6103da61065d565b03612c6c576103c49261312d61313492600961308b565b60096130b4565b60096130db565b906103c49291613041565b906103c492916131576115876104ee565b6131e3565b9068ffff000000000000009060381b611698565b906131806103da6116b99261307a565b825461315c565b906affff0000000000000000009060481b611698565b906131ad6103da6116b99261307a565b8254613187565b906cffff00000000000000000000009060581b611698565b906131dc6103da6116b99261307a565b82546131b4565b9190916131f4826131038584613057565b613202611fde6103da61065d565b03612c6c576103c492613219613220926009613170565b600961319d565b60096131cc565b906103c49291613146565b6103c4906132416115876104ee565b613279565b9073ffffffffffffffffffffffffffffffffffffffff90611698565b906132726103da6116b9926105df565b8254613246565b6103c4906001613262565b6103c490613232565b6103c49061329c6115876104ee565b6103c490600a61181c565b6103c49061328d565b6103c4906132bf6115876104ee565b6103c490600461181c565b6103c4906132b0565b6103c4906132e26115876104ee565b6103c490600561181c565b6103c4906132d3565b6103c4906133056115876104ee565b6103c490600661181c565b6103c4906132f6565b6103c4906133286115876104ee565b6103c490600761181c565b6103c490613319565b6103c49061334b6115876104ee565b6103c490600861181c565b6103c49061333c565b6103c49061336e6115876104ee565b613393565b610a736103da6103da9260ff1690565b906116b26103da6116b992613373565b6103c4906009613383565b6103c49061335f565b6103c4906133b66115876104ee565b6103c490600361181c565b6103c4906133a756fea2646970667358221220f0c63e7f7de137e826897d6111fe4e3d04344a99357c59877a55d3341972424664736f6c63430008140033",
  "linkReferences": {},
  "deployedLinkReferences": {},
  "chainId": 11155111,
  "address": "0x104bE76855bC2Bb1748B41A9E97061A4c053F35f"
}