{
  "_format": "hh-sol-artifact-1",
  "contractName": "Lottery",
  "sourceName": "contracts/lottery/Lottery.sol",
  "abi": [
    {
      "inputs": [
        {
          "internalType": "contract IERC20",
          "name": "_fusdt",
          "type": "address"
        },
        {
          "internalType": "contract IClaimVault",
          "name": "_claimVault",
          "type": "address"
        },
        {
          "internalType": "contract IRewardVault",
          "name": "_rewardVault",
          "type": "address"
        },
        {
          "internalType": "contract IFirstPlacePrizeVault",
          "name": "_firstPlacePrizeVault",
          "type": "address"
        },
        {
          "internalType": "address",
          "name": "_taemVault",
          "type": "address"
        },
        {
          "internalType": "uint256",
          "name": "_startingBlock",
          "type": "uint256"
        }
      ],
      "stateMutability": "nonpayable",
      "type": "constructor"
    },
    {
      "inputs": [],
      "name": "AccessControlBadConfirmation",
      "type": "error"
    },
    {
      "inputs": [
        {
          "internalType": "address",
          "name": "account",
          "type": "address"
        },
        {
          "internalType": "bytes32",
          "name": "neededRole",
          "type": "bytes32"
        }
      ],
      "name": "AccessControlUnauthorizedAccount",
      "type": "error"
    },
    {
      "inputs": [],
      "name": "Active",
      "type": "error"
    },
    {
      "inputs": [],
      "name": "AlreadyClaimed",
      "type": "error"
    },
    {
      "inputs": [],
      "name": "Expired",
      "type": "error"
    },
    {
      "inputs": [],
      "name": "GameOver",
      "type": "error"
    },
    {
      "inputs": [],
      "name": "InEqualTo5Numbers",
      "type": "error"
    },
    {
      "inputs": [],
      "name": "MustBeEqaulToBPS",
      "type": "error"
    },
    {
      "inputs": [],
      "name": "MustBeLaterThanNow",
      "type": "error"
    },
    {
      "inputs": [],
      "name": "NotFound",
      "type": "error"
    },
    {
      "inputs": [],
      "name": "NotWinningNumber",
      "type": "error"
    },
    {
      "inputs": [],
      "name": "Valid",
      "type": "error"
    },
    {
      "anonymous": false,
      "inputs": [
        {
          "indexed": true,
          "internalType": "uint256",
          "name": "round",
          "type": "uint256"
        },
        {
          "indexed": false,
          "internalType": "string",
          "name": "winningNumber",
          "type": "string"
        }
      ],
      "name": "Announce",
      "type": "event"
    },
    {
      "anonymous": false,
      "inputs": [
        {
          "indexed": true,
          "internalType": "uint256",
          "name": "round",
          "type": "uint256"
        },
        {
          "indexed": true,
          "internalType": "address",
          "name": "user",
          "type": "address"
        },
        {
          "indexed": true,
          "internalType": "string",
          "name": "selectedNumberTopic",
          "type": "string"
        },
        {
          "indexed": false,
          "internalType": "string",
          "name": "selectedNumber",
          "type": "string"
        }
      ],
      "name": "Buy",
      "type": "event"
    },
    {
      "anonymous": false,
      "inputs": [
        {
          "indexed": true,
          "internalType": "uint256",
          "name": "round",
          "type": "uint256"
        },
        {
          "indexed": true,
          "internalType": "address",
          "name": "user",
          "type": "address"
        },
        {
          "indexed": false,
          "internalType": "uint8",
          "name": "prizeType",
          "type": "uint8"
        },
        {
          "indexed": false,
          "internalType": "uint256",
          "name": "prizeAmount",
          "type": "uint256"
        },
        {
          "indexed": false,
          "internalType": "string",
          "name": "winningNumber",
          "type": "string"
        }
      ],
      "name": "Claim",
      "type": "event"
    },
    {
      "anonymous": false,
      "inputs": [
        {
          "indexed": true,
          "internalType": "bytes32",
          "name": "role",
          "type": "bytes32"
        },
        {
          "indexed": true,
          "internalType": "bytes32",
          "name": "previousAdminRole",
          "type": "bytes32"
        },
        {
          "indexed": true,
          "internalType": "bytes32",
          "name": "newAdminRole",
          "type": "bytes32"
        }
      ],
      "name": "RoleAdminChanged",
      "type": "event"
    },
    {
      "anonymous": false,
      "inputs": [
        {
          "indexed": true,
          "internalType": "bytes32",
          "name": "role",
          "type": "bytes32"
        },
        {
          "indexed": true,
          "internalType": "address",
          "name": "account",
          "type": "address"
        },
        {
          "indexed": true,
          "internalType": "address",
          "name": "sender",
          "type": "address"
        }
      ],
      "name": "RoleGranted",
      "type": "event"
    },
    {
      "anonymous": false,
      "inputs": [
        {
          "indexed": true,
          "internalType": "bytes32",
          "name": "role",
          "type": "bytes32"
        },
        {
          "indexed": true,
          "internalType": "address",
          "name": "account",
          "type": "address"
        },
        {
          "indexed": true,
          "internalType": "address",
          "name": "sender",
          "type": "address"
        }
      ],
      "name": "RoleRevoked",
      "type": "event"
    },
    {
      "inputs": [],
      "name": "BPS",
      "outputs": [
        {
          "internalType": "uint256",
          "name": "",
          "type": "uint256"
        }
      ],
      "stateMutability": "view",
      "type": "function"
    },
    {
      "inputs": [],
      "name": "CLAIM_VAULT",
      "outputs": [
        {
          "internalType": "contract IClaimVault",
          "name": "",
          "type": "address"
        }
      ],
      "stateMutability": "view",
      "type": "function"
    },
    {
      "inputs": [],
      "name": "DEFAULT_ADMIN_ROLE",
      "outputs": [
        {
          "internalType": "bytes32",
          "name": "",
          "type": "bytes32"
        }
      ],
      "stateMutability": "view",
      "type": "function"
    },
    {
      "inputs": [],
      "name": "FIRST_PLACE_PRIZE_VAULT",
      "outputs": [
        {
          "internalType": "contract IFirstPlacePrizeVault",
          "name": "",
          "type": "address"
        }
      ],
      "stateMutability": "view",
      "type": "function"
    },
    {
      "inputs": [],
      "name": "FUSDT",
      "outputs": [
        {
          "internalType": "contract IERC20",
          "name": "",
          "type": "address"
        }
      ],
      "stateMutability": "view",
      "type": "function"
    },
    {
      "inputs": [],
      "name": "MANAGER",
      "outputs": [
        {
          "internalType": "bytes32",
          "name": "",
          "type": "bytes32"
        }
      ],
      "stateMutability": "view",
      "type": "function"
    },
    {
      "inputs": [],
      "name": "REWARD_VAULT",
      "outputs": [
        {
          "internalType": "contract IRewardVault",
          "name": "",
          "type": "address"
        }
      ],
      "stateMutability": "view",
      "type": "function"
    },
    {
      "inputs": [],
      "name": "TEAM_VAULT",
      "outputs": [
        {
          "internalType": "address",
          "name": "",
          "type": "address"
        }
      ],
      "stateMutability": "view",
      "type": "function"
    },
    {
      "inputs": [
        {
          "internalType": "string",
          "name": "_winningNumber",
          "type": "string"
        },
        {
          "internalType": "uint256",
          "name": "_totalFirstPlaceWinners",
          "type": "uint256"
        },
        {
          "internalType": "uint256",
          "name": "_totalSecondPlaceWinners",
          "type": "uint256"
        },
        {
          "internalType": "uint256",
          "name": "_totalThirdPlaceWinners",
          "type": "uint256"
        }
      ],
      "name": "announce",
      "outputs": [],
      "stateMutability": "nonpayable",
      "type": "function"
    },
    {
      "inputs": [
        {
          "internalType": "string[]",
          "name": "selectedNumbers",
          "type": "string[]"
        }
      ],
      "name": "buyTickets",
      "outputs": [],
      "stateMutability": "nonpayable",
      "type": "function"
    },
    {
      "inputs": [
        {
          "internalType": "uint256",
          "name": "_round",
          "type": "uint256"
        },
        {
          "internalType": "string",
          "name": "_wonNumber",
          "type": "string"
        }
      ],
      "name": "claim",
      "outputs": [],
      "stateMutability": "nonpayable",
      "type": "function"
    },
    {
      "inputs": [],
      "name": "claimableRound",
      "outputs": [
        {
          "internalType": "uint8",
          "name": "",
          "type": "uint8"
        }
      ],
      "stateMutability": "view",
      "type": "function"
    },
    {
      "inputs": [
        {
          "internalType": "uint256",
          "name": "",
          "type": "uint256"
        }
      ],
      "name": "claimedPrizeAmount",
      "outputs": [
        {
          "internalType": "uint256",
          "name": "",
          "type": "uint256"
        }
      ],
      "stateMutability": "view",
      "type": "function"
    },
    {
      "inputs": [
        {
          "internalType": "uint256[]",
          "name": "_rounds",
          "type": "uint256[]"
        }
      ],
      "name": "collectExpiredPrize",
      "outputs": [],
      "stateMutability": "nonpayable",
      "type": "function"
    },
    {
      "inputs": [],
      "name": "getCurrentRoundTotalPrize",
      "outputs": [
        {
          "internalType": "uint256",
          "name": "totalPrize",
          "type": "uint256"
        },
        {
          "internalType": "uint256",
          "name": "firstPlacePrize",
          "type": "uint256"
        },
        {
          "internalType": "uint256",
          "name": "secondPlacePrize",
          "type": "uint256"
        },
        {
          "internalType": "uint256",
          "name": "thirdPlacePrize",
          "type": "uint256"
        }
      ],
      "stateMutability": "view",
      "type": "function"
    },
    {
      "inputs": [],
      "name": "getDeadlineBlock",
      "outputs": [
        {
          "internalType": "uint256",
          "name": "",
          "type": "uint256"
        }
      ],
      "stateMutability": "view",
      "type": "function"
    },
    {
      "inputs": [
        {
          "internalType": "uint256",
          "name": "_winningRound",
          "type": "uint256"
        }
      ],
      "name": "getLeftoverClaimableRound",
      "outputs": [
        {
          "internalType": "uint256",
          "name": "",
          "type": "uint256"
        }
      ],
      "stateMutability": "view",
      "type": "function"
    },
    {
      "inputs": [
        {
          "internalType": "uint256",
          "name": "_round",
          "type": "uint256"
        },
        {
          "internalType": "string",
          "name": "_wonNumber",
          "type": "string"
        },
        {
          "internalType": "address",
          "name": "_user",
          "type": "address"
        }
      ],
      "name": "getRewards",
      "outputs": [
        {
          "internalType": "uint256",
          "name": "",
          "type": "uint256"
        }
      ],
      "stateMutability": "view",
      "type": "function"
    },
    {
      "inputs": [
        {
          "internalType": "bytes32",
          "name": "role",
          "type": "bytes32"
        }
      ],
      "name": "getRoleAdmin",
      "outputs": [
        {
          "internalType": "bytes32",
          "name": "",
          "type": "bytes32"
        }
      ],
      "stateMutability": "view",
      "type": "function"
    },
    {
      "inputs": [
        {
          "internalType": "bytes32",
          "name": "role",
          "type": "bytes32"
        },
        {
          "internalType": "address",
          "name": "account",
          "type": "address"
        }
      ],
      "name": "grantRole",
      "outputs": [],
      "stateMutability": "nonpayable",
      "type": "function"
    },
    {
      "inputs": [
        {
          "internalType": "bytes32",
          "name": "role",
          "type": "bytes32"
        },
        {
          "internalType": "address",
          "name": "account",
          "type": "address"
        }
      ],
      "name": "hasRole",
      "outputs": [
        {
          "internalType": "bool",
          "name": "",
          "type": "bool"
        }
      ],
      "stateMutability": "view",
      "type": "function"
    },
    {
      "inputs": [],
      "name": "intervalBlock",
      "outputs": [
        {
          "internalType": "uint256",
          "name": "",
          "type": "uint256"
        }
      ],
      "stateMutability": "view",
      "type": "function"
    },
    {
      "inputs": [
        {
          "internalType": "address",
          "name": "",
          "type": "address"
        },
        {
          "internalType": "uint256",
          "name": "",
          "type": "uint256"
        },
        {
          "internalType": "string",
          "name": "",
          "type": "string"
        }
      ],
      "name": "isClaimed",
      "outputs": [
        {
          "internalType": "bool",
          "name": "",
          "type": "bool"
        }
      ],
      "stateMutability": "view",
      "type": "function"
    },
    {
      "inputs": [],
      "name": "isRoundOver",
      "outputs": [
        {
          "internalType": "bool",
          "name": "",
          "type": "bool"
        }
      ],
      "stateMutability": "view",
      "type": "function"
    },
    {
      "inputs": [],
      "name": "onlyFirstPlacePrizeAmountFromTeam",
      "outputs": [
        {
          "internalType": "uint256",
          "name": "",
          "type": "uint256"
        }
      ],
      "stateMutability": "view",
      "type": "function"
    },
    {
      "inputs": [],
      "name": "price",
      "outputs": [
        {
          "internalType": "uint256",
          "name": "",
          "type": "uint256"
        }
      ],
      "stateMutability": "view",
      "type": "function"
    },
    {
      "inputs": [
        {
          "internalType": "bytes32",
          "name": "role",
          "type": "bytes32"
        },
        {
          "internalType": "address",
          "name": "callerConfirmation",
          "type": "address"
        }
      ],
      "name": "renounceRole",
      "outputs": [],
      "stateMutability": "nonpayable",
      "type": "function"
    },
    {
      "inputs": [
        {
          "internalType": "bytes32",
          "name": "role",
          "type": "bytes32"
        },
        {
          "internalType": "address",
          "name": "account",
          "type": "address"
        }
      ],
      "name": "revokeRole",
      "outputs": [],
      "stateMutability": "nonpayable",
      "type": "function"
    },
    {
      "inputs": [],
      "name": "round",
      "outputs": [
        {
          "internalType": "uint256",
          "name": "",
          "type": "uint256"
        }
      ],
      "stateMutability": "view",
      "type": "function"
    },
    {
      "inputs": [
        {
          "internalType": "uint256",
          "name": "",
          "type": "uint256"
        }
      ],
      "name": "roundInfo",
      "outputs": [
        {
          "internalType": "string",
          "name": "winningNumber",
          "type": "string"
        },
        {
          "internalType": "uint256",
          "name": "totalPrizeAmount",
          "type": "uint256"
        },
        {
          "internalType": "uint256",
          "name": "onlyFirstPlacePrizeAmountFromTeam",
          "type": "uint256"
        },
        {
          "internalType": "uint256",
          "name": "firstPlacePrizeAmountFromFees",
          "type": "uint256"
        },
        {
          "internalType": "uint256",
          "name": "totalFirstPlacePrizeAmount",
          "type": "uint256"
        },
        {
          "internalType": "uint256",
          "name": "secondPlacePrizeAmountFromFees",
          "type": "uint256"
        },
        {
          "internalType": "uint256",
          "name": "thirdPlacePrizeAmountFromFees",
          "type": "uint256"
        },
        {
          "internalType": "uint256",
          "name": "totalFirstPlaceWinners",
          "type": "uint256"
        },
        {
          "internalType": "uint256",
          "name": "totalSecondPlaceWinners",
          "type": "uint256"
        },
        {
          "internalType": "uint256",
          "name": "totalThirdPlaceWinners",
          "type": "uint256"
        },
        {
          "internalType": "uint256",
          "name": "totalSoldTickets",
          "type": "uint256"
        },
        {
          "internalType": "uint256",
          "name": "totalSales",
          "type": "uint256"
        },
        {
          "internalType": "uint256",
          "name": "announcedBlock",
          "type": "uint256"
        }
      ],
      "stateMutability": "view",
      "type": "function"
    },
    {
      "inputs": [
        {
          "internalType": "uint8",
          "name": "_claimableRound",
          "type": "uint8"
        }
      ],
      "name": "setClaimableRound",
      "outputs": [],
      "stateMutability": "nonpayable",
      "type": "function"
    },
    {
      "inputs": [
        {
          "internalType": "uint256",
          "name": "_intervalBlock",
          "type": "uint256"
        }
      ],
      "name": "setIntervalBlock",
      "outputs": [],
      "stateMutability": "nonpayable",
      "type": "function"
    },
    {
      "inputs": [
        {
          "internalType": "uint256",
          "name": "_onlyFirstPlacePrizeAmountFromTeam",
          "type": "uint256"
        }
      ],
      "name": "setOnlyFirstPlacePrizeAmountFromTeam",
      "outputs": [],
      "stateMutability": "nonpayable",
      "type": "function"
    },
    {
      "inputs": [
        {
          "internalType": "uint256",
          "name": "_price",
          "type": "uint256"
        }
      ],
      "name": "setPrice",
      "outputs": [],
      "stateMutability": "nonpayable",
      "type": "function"
    },
    {
      "inputs": [
        {
          "internalType": "uint16",
          "name": "_shareOfTheFirstPlacePrize",
          "type": "uint16"
        },
        {
          "internalType": "uint16",
          "name": "_shareOfTheSecondPlacePrize",
          "type": "uint16"
        },
        {
          "internalType": "uint16",
          "name": "_shareOfTheThirdPlacePrize",
          "type": "uint16"
        }
      ],
      "name": "setPrizeShares",
      "outputs": [],
      "stateMutability": "nonpayable",
      "type": "function"
    },
    {
      "inputs": [
        {
          "internalType": "contract IStaking",
          "name": "_staking",
          "type": "address"
        }
      ],
      "name": "setStaking",
      "outputs": [],
      "stateMutability": "nonpayable",
      "type": "function"
    },
    {
      "inputs": [
        {
          "internalType": "uint256",
          "name": "_startingBlock",
          "type": "uint256"
        }
      ],
      "name": "setStartingBlock",
      "outputs": [],
      "stateMutability": "nonpayable",
      "type": "function"
    },
    {
      "inputs": [
        {
          "internalType": "uint16",
          "name": "_taxForTeamVault",
          "type": "uint16"
        },
        {
          "internalType": "uint16",
          "name": "_taxForRewardVault",
          "type": "uint16"
        },
        {
          "internalType": "uint16",
          "name": "_taxForClaimVault",
          "type": "uint16"
        }
      ],
      "name": "setTaxes",
      "outputs": [],
      "stateMutability": "nonpayable",
      "type": "function"
    },
    {
      "inputs": [],
      "name": "shareOfTheFirstPlacePrize",
      "outputs": [
        {
          "internalType": "uint16",
          "name": "",
          "type": "uint16"
        }
      ],
      "stateMutability": "view",
      "type": "function"
    },
    {
      "inputs": [],
      "name": "shareOfTheSecondPlacePrize",
      "outputs": [
        {
          "internalType": "uint16",
          "name": "",
          "type": "uint16"
        }
      ],
      "stateMutability": "view",
      "type": "function"
    },
    {
      "inputs": [],
      "name": "shareOfTheThirdPlacePrize",
      "outputs": [
        {
          "internalType": "uint16",
          "name": "",
          "type": "uint16"
        }
      ],
      "stateMutability": "view",
      "type": "function"
    },
    {
      "inputs": [],
      "name": "staking",
      "outputs": [
        {
          "internalType": "contract IStaking",
          "name": "",
          "type": "address"
        }
      ],
      "stateMutability": "view",
      "type": "function"
    },
    {
      "inputs": [],
      "name": "startingBlock",
      "outputs": [
        {
          "internalType": "uint256",
          "name": "",
          "type": "uint256"
        }
      ],
      "stateMutability": "view",
      "type": "function"
    },
    {
      "inputs": [
        {
          "internalType": "bytes4",
          "name": "interfaceId",
          "type": "bytes4"
        }
      ],
      "name": "supportsInterface",
      "outputs": [
        {
          "internalType": "bool",
          "name": "",
          "type": "bool"
        }
      ],
      "stateMutability": "view",
      "type": "function"
    },
    {
      "inputs": [],
      "name": "taxForClaimVault",
      "outputs": [
        {
          "internalType": "uint16",
          "name": "",
          "type": "uint16"
        }
      ],
      "stateMutability": "view",
      "type": "function"
    },
    {
      "inputs": [],
      "name": "taxForRewardVault",
      "outputs": [
        {
          "internalType": "uint16",
          "name": "",
          "type": "uint16"
        }
      ],
      "stateMutability": "view",
      "type": "function"
    },
    {
      "inputs": [],
      "name": "taxForTeamVault",
      "outputs": [
        {
          "internalType": "uint16",
          "name": "",
          "type": "uint16"
        }
      ],
      "stateMutability": "view",
      "type": "function"
    },
    {
      "inputs": [
        {
          "internalType": "uint256",
          "name": "",
          "type": "uint256"
        },
        {
          "internalType": "string",
          "name": "",
          "type": "string"
        }
      ],
      "name": "totalSelectedNumberByRound",
      "outputs": [
        {
          "internalType": "uint256",
          "name": "",
          "type": "uint256"
        }
      ],
      "stateMutability": "view",
      "type": "function"
    },
    {
      "inputs": [
        {
          "internalType": "address",
          "name": "",
          "type": "address"
        },
        {
          "internalType": "uint256",
          "name": "",
          "type": "uint256"
        },
        {
          "internalType": "string",
          "name": "",
          "type": "string"
        }
      ],
      "name": "totalSelectedNumberByUser",
      "outputs": [
        {
          "internalType": "uint256",
          "name": "",
          "type": "uint256"
        }
      ],
      "stateMutability": "view",
      "type": "function"
    }
  ],
  "bytecode": "0x61012060405234620000ac576200002662000019620001d5565b9493909392919262000411565b6040516132116200069b823960805181818161059e0152818161190001528181611fb4015261296d015260a05181818161121c01528181611fe801528181612528015281816126480152612d58015260c0518181816106ab0152612040015260e05181818161115501526122df01526101005181818161111b01526120e9015261321190f35b600080fd5b634e487b7160e01b600052604160045260246000fd5b90601f01601f191681019081106001600160401b03821117620000e957604052565b620000b1565b9062000106620000fe60405190565b9283620000c7565b565b6001600160a01b031690565b90565b6001600160a01b0381165b03620000ac57565b90505190620001068262000117565b6001600160a01b03811662000122565b90505190620001068262000139565b8062000122565b90505190620001068262000158565b909160c082840312620000ac576200018783836200012a565b926200019781602085016200012a565b92620001a782604083016200012a565b9262000114620001bb84606085016200012a565b93620001cb816080860162000149565b9360a0016200015f565b620001f8620038ac80380380620001ec81620000ef565b9283398101906200016e565b909192939495565b6200011462000114620001149290565b90600019905b9181191691161790565b9062000234620001146200023c9262000200565b825462000210565b9055565b6200025062000114620001149290565b60ff1690565b9060ff9062000216565b6200025062000114620001149260ff1690565b9062000287620001146200023c9262000260565b825462000256565b6200029f62000114620001149290565b61ffff1690565b9062ffff009060081b62000216565b6200029f62000114620001149261ffff1690565b90620002dd620001146200023c92620002b5565b8254620002a6565b9066ffff00000000009060281b62000216565b906200030c620001146200023c92620002b5565b8254620002e5565b9064ffff0000009060181b62000216565b9062000339620001146200023c92620002b5565b825462000314565b9068ffff000000000000009060381b62000216565b906200036a620001146200023c92620002b5565b825462000341565b906affff0000000000000000009060481b62000216565b906200039d620001146200023c92620002b5565b825462000372565b906cffff00000000000000000000009060581b62000216565b90620003d2620001146200023c92620002b5565b8254620003a5565b620001147faf290d8680820aad922855f39b306097b20e28774d6c1ad35a20325630c3a02c62000200565b62000114600062000200565b9493909190438510620005635762000534956080526101005260c05260a05260e0526200044b62000443600162000200565b600262000220565b620004fa600762000468620004608262000240565b600662000273565b6200048062000478606462000200565b600562000220565b620004f262000492620f424062000200565b6200049f81600362000220565b620004ac6103e86200028f565b92620004ba846006620002c9565b620004d3620004cb6107d06200028f565b6006620002f8565b620004ec620004e4611b586200028f565b600662000325565b62000220565b600662000356565b620005136200050b6117706200028f565b600662000389565b6200052c62000524610bb86200028f565b6006620003be565b600462000220565b6200056062000542620003da565b6200054f338092620005d0565b506200055a62000405565b620005d0565b50565b604051630a2d38c160e41b8152600490fd5b905b600052602052604060002090565b620001149062000108906001600160a01b031682565b620001149062000585565b62000114906200059b565b906200057790620005a6565b9062000287620001146200023c92151590565b620005e4620005e083836200067c565b1590565b156200065e5760019162000612836200060c83600062000605878262000575565b01620005b1565b620005bd565b33906200064c62000645620006457f2f8788117e7eff1d82e926ec794901d17c78024a50270940304540a733656f0d9590565b92620005a6565b926200065760405190565b600090a490565b5050600090565b620001149062000250565b62000114905462000665565b62000114916200069491620006056000918262000575565b6200067056fe6080604052600436101561001257600080fd5b60003560e01c806301ffc9a71461032257806305bdae2e1461031d578063146ca5311461031857806314931783146103135780631b2df8501461030e5780631b2e30a71461030957806323c3583414610304578063248a9ca3146102ff578063249d39e9146102fa578063268b15ed146102f557806327f9387f146102f057806328d7b264146102eb5780632f2ff15d146102e6578063305876a7146102e157806332cde664146102dc57806336568abe146102d757806336f3d860146102d257806337ecf1ea146102cd5780633cb3e0f3146102c8578063427f0b00146102c35780634cf088d9146102be57806355c46939146102b95780636635ced7146102b4578063781632f3146102af5780637cb1fbc3146102aa5780637f923c44146102a55780638f54be0e146102a05780638ff390991461029b5780639041ac371461029657806391b7f5ed1461029157806391d148541461028c5780639f86db8914610287578063a035b1fe14610282578063a0889c1e1461027d578063a217fddf14610278578063ace87fd714610273578063ae21e4e51461026e578063b273054114610269578063b3f2045f14610264578063ba5ea3f71461025f578063bd07dfbd1461025a578063c334518714610255578063c809c3d214610250578063c9399b851461024b578063cd3bec2714610246578063d547741f14610241578063d91c98d31461023c578063ec17b20e146102375763f6d9e83f036103525761134c565b611322565b611307565b6112e2565b6112c7565b6112a2565b611287565b61124c565b611207565b6111eb565b611185565b611140565b611102565b6110ce565b6110a7565b61107d565b611038565b61100d565b610fad565b610f95565b610f7a565b610f56565b610f08565b610ee1565b610ec6565b610e9e565b610e4f565b610e0f565b610d9e565b610d3d565b610a82565b610a39565b610a1d565b6107c3565b6107aa565b61078f565b610776565b610721565b610696565b61067d565b6105f8565b6105ca565b610589565b610509565b6104a7565b61044c565b610431565b6103d9565b610381565b7fffffffff0000000000000000000000000000000000000000000000000000000081165b0361035257565b600080fd5b9050359061036482610327565b565b906020828203126103525761037a91610357565b90565b9052565b34610352576103ae61039c610397366004610366565b611367565b60405191829182901515815260200190565b0390f35b8061034b565b90503590610364826103b2565b906020828203126103525761037a916103b8565b34610352576103ae6103f46103ef3660046103c5565b612e78565b6040519182918290815260200190565b600091031261035257565b61037a916008021c81565b9061037a915461040f565b61037a6000600261041a565b3461035257610441366004610404565b6103ae6103f4610425565b346103525761046461045f3660046103c5565b613167565b604051005b61037a61037a61037a9290565b61037a7faf290d8680820aad922855f39b306097b20e28774d6c1ad35a20325630c3a02c610469565b61037a610476565b34610352576104b7366004610404565b6103ae6103f461049f565b61ffff811661034b565b90503590610364826104c2565b90916060828403126103525761037a6104f284846104cc565b9361050081602086016104cc565b936040016104cc565b346103525761046461051c3660046104d9565b916130a1565b61054561037a61037a9273ffffffffffffffffffffffffffffffffffffffff1690565b73ffffffffffffffffffffffffffffffffffffffff1690565b61037a90610522565b61037a9061055e565b61037d90610567565b6020810192916103649190610570565b3461035257610599366004610404565b6103ae7f00000000000000000000000000000000000000000000000000000000000000005b60405191829182610579565b34610352576103ae6103f46105e03660046103c5565b61143b565b61037a612710610469565b61037a6105e5565b3461035257610608366004610404565b6103ae6103f46105f0565b909182601f830112156103525781359167ffffffffffffffff831161035257602001926001830284011161035257565b9190916040818403126103525761065a83826103b8565b92602082013567ffffffffffffffff8111610352576106799201610613565b9091565b3461035257610464610690366004610643565b9161243c565b34610352576106a6366004610404565b6103ae7f00000000000000000000000000000000000000000000000000000000000000006105be565b9060808282031261035257813567ffffffffffffffff811161035257816106f7918401610613565b92909361037a61070a84602085016103b8565b9361071881604086016103b8565b936060016103b8565b34610352576104646107343660046106cf565b939290926123a3565b61034b81610545565b905035906103648261073d565b91906040838203126103525761037a9061076d81856103b8565b93602001610746565b3461035257610464610789366004610753565b9061147d565b346103525761079f366004610404565b6103ae61039c6128e2565b34610352576104646107bd3660046104d9565b91612fb5565b34610352576104646107d6366004610753565b9061152b565b7f4e487b7100000000000000000000000000000000000000000000000000000000600052604160045260246000fd5b90601f017fffffffffffffffffffffffffffffffffffffffffffffffffffffffffffffffe016810190811067ffffffffffffffff82111761084b57604052565b6107dc565b9061036461085d60405190565b928361080b565b67ffffffffffffffff811161084b57602090601f017fffffffffffffffffffffffffffffffffffffffffffffffffffffffffffffffe0160190565b0190565b90826000939282370152565b909291926108c46108bf82610864565b610850565b9381855260208501908284011161035257610364926108a3565b9080601f830112156103525781602061037a933591016108af565b916060838303126103525761090e8284610746565b9261091c83602083016103b8565b92604082013567ffffffffffffffff81116103525761037a92016108de565b9061094590610567565b600052602052604060002090565b9061094590610469565b60005b8381106109705750506000910152565b8181015183820152602001610960565b61089f61099892602092610992815190565b94859290565b9384910161095d565b6109b161089f9160209493610980565b918252565b6109cb6109c260405190565b928392836109a1565b03902090565b61037a916109b6565b61037a916008021c5b60ff1690565b9061037a91546109da565b9061037a92610a13610a1892610a0e60099560009661093b565b610953565b6109d1565b6109e9565b34610352576103ae61039c610a333660046108f9565b916109f4565b3461035257610464610a4c3660046103c5565b613121565b610a7e61036494610a77606094989795610a70608086019a6000870152565b6020850152565b6040830152565b0152565b3461035257610a92366004610404565b6103ae610a9d612963565b90610aaa94929460405190565b94859485610a51565b7f4e487b7100000000000000000000000000000000000000000000000000000000600052602260045260246000fd5b9060016002830492168015610b02575b6020831014610afd57565b610ab3565b91607f1691610af2565b80546000939291610b29610b1f83610ae2565b8085529360200190565b9160018116908115610b7b5750600114610b4257505050565b610b559192939450600052602060002090565b916000925b818410610b675750500190565b805484840152602090930192600101610b5a565b92949550505060ff1916825215156020020190565b9061037a91610b0c565b90610364610bb492610bab60405190565b93848092610b90565b038361080b565b61037a9081565b61037a9054610bbb565b610bd790600b610953565b610be081610b9a565b91610bed60018301610bc2565b91610bfa60028201610bc2565b91610c0760038301610bc2565b91610c1460048201610bc2565b91610c2160058301610bc2565b91610c2e60068201610bc2565b91610c3b60078301610bc2565b91610c4860088201610bc2565b91610c5560098301610bc2565b91610c62600a8201610bc2565b9161037a600c610c74600b8501610bc2565b9301610bc2565b610c9c610ca560209361089f93610c90815190565b80835293849260200190565b9586910161095d565b601f017fffffffffffffffffffffffffffffffffffffffffffffffffffffffffffffffe01690565b9a98969492909d9c9b99979593919d6101a08c018c8082039060000152610cf391610c7b565b9d60208c01610d00919052565b60408b015260608a0152608089015260a088015260c087015260e08601526101008501526101208401526101408301526101608201526101800152565b34610352576103ae610d58610d533660046103c5565b610bcc565b99610d719d9b9d99919998929897939796949660405190565b9d8e9d8e610ccd565b61037a916008021c610545565b9061037a9154610d7a565b61037a60006001610d87565b3461035257610dae366004610404565b6103ae6105be610d92565b909182601f830112156103525781359167ffffffffffffffff831161035257602001926020830284011161035257565b9060208282031261035257813567ffffffffffffffff8111610352576106799201610db9565b3461035257610464610e22366004610de9565b90612e34565b61037a916008021c5b61ffff1690565b9061037a9154610e28565b61037a60036006610e38565b3461035257610e5f366004610404565b6103ae610e6a610e43565b6040519182918261ffff909116815260200190565b9061037a92610a13610e9992610a0e600a9560009661093b565b61041a565b34610352576103ae6103f4610eb43660046108f9565b91610e7f565b61037a6000600761041a565b3461035257610ed6366004610404565b6103ae6103f4610eba565b3461035257610ef1366004610404565b6103ae6103f4612a82565b61037a6000600561041a565b3461035257610f18366004610404565b6103ae6103f4610efc565b61037a90610545565b61034b81610f23565b9050359061036482610f2c565b906020828203126103525761037a91610f35565b3461035257610464610f69366004610f42565b6130fe565b61037a60096006610e38565b3461035257610f8a366004610404565b6103ae610e6a610f6e565b3461035257610464610fa83660046103c5565b6131d2565b34610352576103ae61039c610fc3366004610753565b9061141c565b9060608282031261035257610fde81836103b8565b92602083013567ffffffffffffffff8111610352576110028361037a928601610613565b939094604001610746565b34610352576103ae6103f4611023366004610fc9565b929190916127cf565b61037a6000600361041a565b3461035257611048366004610404565b6103ae6103f461102c565b60ff811661034b565b9050359061036482611053565b906020828203126103525761037a9161105c565b3461035257610464611090366004611069565b6131af565b61037a6000610469565b61037a611095565b34610352576110b7366004610404565b6103ae6103f461109f565b61037a60056006610e38565b34610352576110de366004610404565b6103ae610e6a6110c2565b61037d90610545565b60208101929161036491906110e9565b3461035257611112366004610404565b604051806103ae7f0000000000000000000000000000000000000000000000000000000000000000826110f2565b3461035257611150366004610404565b6103ae7f00000000000000000000000000000000000000000000000000000000000000006105be565b61037a60076006610e38565b3461035257611195366004610404565b6103ae610e6a611179565b919091604081840312610352576111b783826103b8565b92602082013567ffffffffffffffff81116103525761037a92016108de565b610e9961037a92610a13600893600094610953565b34610352576103ae6103f46112013660046111a0565b906111d6565b3461035257611217366004610404565b6103ae7f00000000000000000000000000000000000000000000000000000000000000006105be565b61037a600060066109e9565b346103525761125c366004610404565b6103ae611267611240565b6040519182918260ff909116815260200190565b61037a600b6006610e38565b3461035257611297366004610404565b6103ae610e6a61127b565b34610352576104646112b5366004610de9565b9061187c565b61037a60016006610e38565b34610352576112d7366004610404565b6103ae610e6a6112bb565b34610352576104646112f5366004610753565b90611521565b61037a6000600461041a565b3461035257611317366004610404565b6103ae6103f46112fb565b34610352576104646113353660046103c5565b613144565b61037a90610e99600c91600092610953565b34610352576103ae6103f46113623660046103c5565b61133a565b7f7965db0b000000000000000000000000000000000000000000000000000000007fffffffff000000000000000000000000000000000000000000000000000000008216149081156113b7575090565b61037a91507fffffffff00000000000000000000000000000000000000000000000000000000167f01ffc9a7000000000000000000000000000000000000000000000000000000001490565b90610945565b61037a906109e3565b61037a9054611409565b61037a916114369161143060009182611403565b0161093b565b611412565b600161145461037a9261144c600090565b506000611403565b01610bc2565b906103649161147061146b8261143b565b611487565b9061147a916115a1565b50565b906103649161145a565b6103649033906114ad565b916020610364929493610a7e604082019660008301906110e9565b906114bf6114bb828461141c565b1590565b6114c7575050565b6115026114d360405190565b9283927fe2517d3f00000000000000000000000000000000000000000000000000000000845260048401611492565b0390fd5b906103649161151761146b8261143b565b9061147a9161161d565b9061036491611506565b9061153533610545565b61153e82610545565b0361154c5761147a9161161d565b6040517f6697b232000000000000000000000000000000000000000000000000000000008152600490fd5b9060ff905b9181191691161790565b9061159661037a61159d92151590565b8254611577565b9055565b6115ae6114bb838361141c565b15611616576001916115cf836115ca8360006114308782611403565b611586565b33906116056115ff6115ff7f2f8788117e7eff1d82e926ec794901d17c78024a50270940304540a733656f0d9590565b92610567565b9261160f60405190565b600090a490565b5050600090565b90611628818361141c565b156116165761164160006115ca83826114308782611403565b33906116716115ff6115ff7ff6391f5c32d9c69d2a47ea670b442974b53935d1edc7fd64eb21e047a839171b9590565b9261167b60405190565b600090a4600190565b7f4e487b7100000000000000000000000000000000000000000000000000000000600052601160045260246000fd5b818102929181159184041417156116c657565b611684565b919082018092116116c657565b907fffffffffffffffffffffffffffffffffffffffffffffffffffffffffffffffff9061157c565b9061171061037a61159d92610469565b82546116d8565b80151561034b565b9050519061036482611717565b906020828203126103525761037a9161171f565b604090610a7e6103649496959396611760606084019860008501906110e9565b60208301906110e9565b6040513d6000823e3d90fd5b7fffffffffffffffffffffffffffffffffffffffffffffffffffffffffffffffff81146116c65760010190565b7f4e487b7100000000000000000000000000000000000000000000000000000000600052603260045260246000fd5b9035907fffffffffffffffffffffffffffffffffffffffffffffffffffffffffffffffe13682900301821215610352570180359067ffffffffffffffff8211610352576020019136829003831361035257565b9082101561183c57602061067992028101906117d2565b6117a3565b61037a9136916108af565b61037a91610980565b6109cb9061186260405190565b9182918261184c565b602080825261037a92910190610c7b565b9190916118876128e2565b611aaf57600092600b916118a761037a6118a16002610bc2565b85610953565b9382946118f96118b76002610bc2565b956118cb886118c66003610bc2565b6116b3565b926118eb600a82016118e58b6118e083610bc2565b6116cb565b90611700565b016118e5836118e083610bc2565b60206119247f0000000000000000000000000000000000000000000000000000000000000000610567565b6323b872dd90611954339a8b9361195f61193d30610567565b9761194760405190565b9889978896879560e01b90565b855260048501611740565b03925af18015611aaa57611a7e575b5060005b855b811015611a755761198f611989828686611825565b90611841565b80516119a261199e6005610469565b9190565b03611a4a5761197491816119e86119d082610a138b610a0e8f6119e16119d0611a439b610a13866008610953565b6118e56119dc82610bc2565b611776565b600a61093b565b7f39b26984674b53cc84984042853630db5a3744112d02e74b7d3469abef12f0b8611a1289610469565b611a1b8c610567565b91611a3b611a2885611855565b94611a3260405190565b9182918261186b565b0390a4611776565b9050611972565b6040517f1e0605d3000000000000000000000000000000000000000000000000000000008152600490fd5b50945050505050565b611a9e9060203d8111611aa3575b611a96818361080b565b81019061172c565b61196e565b503d611a8c565b61176a565b6040517fdf469ccb000000000000000000000000000000000000000000000000000000008152600490fd5b9061036494939291611aed61146b610476565b611dba565b61037a9060181c610e31565b61037a9054611af2565b61037a9060281c610e31565b61037a9054611b08565b61037a9060081c610e31565b61037a9054611b1e565b61037a61037a61037a9261ffff1690565b61037a9060381c610e31565b61037a9054611b45565b61037a9060481c610e31565b61037a9054611b5b565b61037a9060581c610e31565b61037a9054611b71565b9190600861157c910291611bba7fffffffffffffffffffffffffffffffffffffffffffffffffffffffffffffffff841b90565b921b90565b9190611bd061037a61159d93610469565b908354611b87565b61036491600091611bbf565b818110611bef575050565b80611bfd6000600193611bd8565b01611be4565b9190601f8111611c1257505050565b611c2461036493600052602060002090565b906020601f840181900483019310611c46575b6020601f909101040190611be4565b9091508190611c37565b919067ffffffffffffffff821161084b57611c7582611c6f8554610ae2565b85611c03565b600090601f8311600114611cce5761159d929160009183611cc3575b50507fffffffffffffffffffffffffffffffffffffffffffffffffffffffffffffffff600883021c1916906002021790565b013590503880611c91565b601f19831691611ce385600052602060002090565b92815b818110611d3e57509160029391856001969410611d07575b50505002019055565b01357fffffffffffffffffffffffffffffffffffffffffffffffffffffffffffffffff601f84166008021c19169055388080611cfe565b91936020600181928787013581550195019201611ce6565b906103649291611c50565b919082039182116116c657565b9081526040810192916103649160200152565b61037a9054610f23565b9190610ca581611da28161089f9560209181520190565b80956108a3565b602080825261037a93910191611d8b565b939091611dc86114bb6128e2565b612378578491611dd86002610bc2565b94611dec611de587611776565b6002611700565b4390611df9826004611700565b600b92611e0961037a8986610953565b9387611e2161037a611e1b6002610bc2565b84610953565b92611e69611e30848901610bc2565b611e3a6006611afe565b611e446006611b14565b611e63611e5d611e5d611e576006611b2a565b94611b34565b92611b34565b92612a8f565b9991979098611eac611e7b6006611b51565b611e856006611b67565b90611ea5611e9f611e99611e996006611b7d565b93611b34565b91611b34565b918c612a8f565b95919490959660009e8f611ebf81610469565b84036122a657611ef4611ed182610469565b611ede8160028a01611700565b611eeb8160038a01611700565b60048801611700565b8c611f0161199e83610469565b14612295575b611f1081610469565b851461226a575b94611f9b8a9895611f92611faf9f611f896118e098611fa89f611fa19f9c90611f776118e09f9b8f90611f65846118e0600c9f8f600481611454611f6e988a95611f809e6118e09601611d56565b60018d01611700565b60058b01611700565b60068901611700565b60078701611700565b60088501611700565b60098301611700565b01611700565b8095611d61565b9101611700565b611fd87f0000000000000000000000000000000000000000000000000000000000000000610567565b612029602063a9059cbb9361200c7f0000000000000000000000000000000000000000000000000000000000000000610567565b604051938492839261201e8960e01b90565b845260048401611492565b038189865af18015611aaa5761224e575b506120647f0000000000000000000000000000000000000000000000000000000000000000610567565b6040516120718460e01b90565b815260208180612085888660048401611492565b03818a875af18015611aaa57612232575b5063bc300b77813b156103525786916120c4838b936120cf6120b760405190565b998a968795869460e01b90565b845260048401611d6e565b03925af1928315611aaa57602093612216575b5061201e857f00000000000000000000000000000000000000000000000000000000000000009361212261211560405190565b9788968795869460e01b90565b03925af18015611aaa576121fa575b5061214461213f6001611d81565b610567565b63c8e6bd7490803b156103525761216991839161216060405190565b93849260e01b90565b825260048201879052602490829084905af18015611aaa576121cd575b50506121b27fabbe72c04ae4046f790663c37a42637f60a3e9f034d3a2db3b11cdf6533fa4fe92610469565b926121c86121bf60405190565b92839283611da9565b0390a2565b816121ec92903d106121f3575b6121e4818361080b565b810190610404565b3880612186565b503d6121da565b6122119060203d8111611aa357611a96818361080b565b612131565b61222c90863d88116121f3576121e4818361080b565b386120e2565b6122499060203d8111611aa357611a96818361080b565b612096565b6122659060203d8111611aa357611a96818361080b565b61203a565b889692989597948692949a5090889161228282610469565b9b95935095985090955097919597611f17565b97506122a088610469565b97611f07565b6122bc6122b36007610bc2565b60028801611700565b6122c98860038801611700565b6122da611eeb896118e06007610bc2565b6123037f0000000000000000000000000000000000000000000000000000000000000000610567565b63aa434d1b6123126007610bc2565b823b15610352576123479261233985809461232c60405190565b9687958694859360e01b90565b835260048301526024820190565b03925af18015611aaa5761235c575b50611ef4565b61237290823d84116121f3576121e4818361080b565b38612356565b6040517fc9b0a2a7000000000000000000000000000000000000000000000000000000008152600490fd5b9061036494939291611ada565b909161089f90839080936108a3565b6109b1906020949361089f936123b0565b90916109cb906123df60405190565b938493846123bf565b909161037a926123d0565b61037a90610b9a565b6109e361037a61037a9290565b61242f61037a95939492946124286060840196600085019060ff169052565b6020830152565b6040818503910152611d8b565b91909161244881612e4e565b6127a457339161246f61246a828661246586610a0e89600a61093b565b6123e8565b610bc2565b9060009061247c82610469565b83146127795760099261249b611436838961246589610a0e8c8b61093b565b61274e57610a0e936124b161037a87600b610953565b906124c7848a6124c28886016123f3565b612b5c565b6124df896115ca878d6124658d60019d8e968a61093b565b6005906124eb82610469565b8103612606575050509081612511600461250a60076125179601610bc2565b9201610bc2565b91612b11565b9061252282946123fc565b9261254c7f0000000000000000000000000000000000000000000000000000000000000000610567565b63b5597a80813b1561035257829161201e838b9361256c6120b760405190565b03925af1928315611aaa576125e4936125e9575b50505b61259e61259186600c610953565b6118e5866118e083610bc2565b6125d16125cb7fd87fa799b89fd28754abc0f1affd1d078b8f0fc5aa0c4e019eeba3ed6e3a3f2196610469565b96610567565b966125db60405190565b94859485612409565b0390a3565b816125ff92903d106121f3576121e4818361080b565b3880612580565b90919495965060049461261886610469565b82036126dc57505090612511612635939261250a60088401610bc2565b91829361264260026123fc565b9361266c7f0000000000000000000000000000000000000000000000000000000000000000610567565b9363b5597a8094803b156103525761269b848b976126a4829661268e60405190565b9a8b978896879560e01b90565b85528401611492565b03925af1928315611aaa576125e4936126bf575b5050612583565b816126d592903d106121f3576121e4818361080b565b38806126b8565b6003979694939250906126f161199e89610469565b036127165790612511600661250a61270b95948401610bc2565b9261264284956123fc565b6115028561272360405190565b7f1de09715000000000000000000000000000000000000000000000000000000008152918291820190565b6040517f646cf558000000000000000000000000000000000000000000000000000000008152600490fd5b6040517fc5723b51000000000000000000000000000000000000000000000000000000008152600490fd5b6040517f203d82d8000000000000000000000000000000000000000000000000000000008152600490fd5b91926000936127eb61246a828561246588610a0e88600a61093b565b938060009383866127fb87610469565b89149283156128c1575b50505090506128b2579061282061037a61282c93600b610953565b936124c28486016123f3565b6005945061283985610469565b810361285757505061037a9250612511600461250a60078401610bc2565b6128616004610469565b810361287c57505061251161037a9361250a60088401610bc2565b90935061288c61199e6003610469565b036128a75761037a9250612511600661250a60098401610bc2565b505061037a90610469565b505091505061037a9150610469565b61143693506128d894610a0e61246592600961093b565b8190838638612805565b6128ff6128ef6004610bc2565b6128f96005610bc2565b906116cb565b431190565b90505190610364826103b2565b906020828203126103525761037a91612904565b7f4e487b7100000000000000000000000000000000000000000000000000000000600052601260045260246000fd5b811561295e570490565b612925565b6129c560206129917f0000000000000000000000000000000000000000000000000000000000000000610567565b6370a08231906129ba6129a330610567565b926129ad60405190565b9586948593849360e01b90565b8352600483016110f2565b03915afa8015611aaa576129fb612a0991612a3093600091612a54575b506129f56129f06006611afe565b611b34565b906116b3565b612a036105e5565b90612954565b612a136006611b51565b612a1d6006611b67565b611e63611e5d611e5d611e576006611b7d565b612a5181939293916118e0612a4a86956128f96007610bc2565b95866116cb565b93565b612a75915060203d8111612a7b575b612a6d818361080b565b810190612911565b386129e2565b503d612a63565b61037a6128ef6004610bc2565b91939192612aa1906118e086846116cb565b612aa96105e5565b90819003612ae657612ae1612ad9612acd83612ac861037a96896116b3565b612954565b92612ac88498886116b3565b918295611d61565b611d61565b6040517fb8e7972b000000000000000000000000000000000000000000000000000000008152600490fd5b90612b3f61037a936118c6612a0393612b28600090565b50612ac8670de0b6b3a7640000966129f588610469565b91610469565b90612b4e825190565b81101561183c570160200190565b909291600091612b6b60405190565b612b898160208101612b7d858261186b565b9081038252038261080b565b612b9b612b94825190565b9160200190565b20612bcd61199e612bab60405190565b612bbe8160208101612b7d898d83611da9565b612bc9612b94825190565b2090565b14612cb65793612bdc91611989565b835192825b845b811015612cad57612c1d612bf78288612b45565b517fff000000000000000000000000000000000000000000000000000000000000001690565b612c7b612c55612c30612bf78588612b45565b7fff000000000000000000000000000000000000000000000000000000000000001690565b917fff000000000000000000000000000000000000000000000000000000000000001690565b14612c94575b612c8d612be391611776565b9050612be1565b92612c8d612ca4612be392611776565b94915050612c81565b50935050905090565b505050905061037a6005610469565b9061036491612cd561146b610476565b612cf4565b919081101561183c576020020190565b3561037a816103b2565b819260005b845b811015612e2d57612d15612d10828686612cda565b612cea565b90612d226114bb83612e4e565b612e0257600b90612d3860016114548585610953565b91612d52600c93612d4c61246a8787610953565b90611d61565b92612d7c7f0000000000000000000000000000000000000000000000000000000000000000610567565b63b5597a80903390803b156103525761201e60008094612dab612d9e60405190565b9a8b968795869460e01b90565b03925af1938415611aaa5785612dda6001611454612cfb996119dc97612de096612de59b612dec575b50610953565b92610953565b611700565b9050612cf9565b612dfc9060006121e4818361080b565b38612dd4565b6040517fe09fface000000000000000000000000000000000000000000000000000000008152600490fd5b5092505050565b9061036491612cc5565b61037a61037a61037a9260ff1690565b612e7461199e61037a612e616002610bc2565b936128f9612e6f6006611412565b612e3e565b1190565b612e89906128f9612e6f6006611412565b612e9661037a6002610bc2565b811115612eb05761037a90612eab6002610bc2565b900390565b5061037a6000610469565b906103649291612ecc61146b610476565b612f6c565b61ffff9081169116019061ffff82116116c657565b9062ffff009060081b61157c565b610e3161037a61037a9261ffff1690565b90612f1561037a61159d92612ef4565b8254612ee6565b9066ffff00000000009060281b61157c565b90612f3e61037a61159d92612ef4565b8254612f1c565b9064ffff0000009060181b61157c565b90612f6561037a61159d92612ef4565b8254612f45565b919091612f8282612f7d8584612ed1565b612ed1565b612f90611e9f61037a6105e5565b03612ae65761036492612fa7612fae926006612f05565b6006612f2e565b6006612f55565b906103649291612ebb565b906103649291612fd161146b610476565b61305d565b9068ffff000000000000009060381b61157c565b90612ffa61037a61159d92612ef4565b8254612fd6565b906affff0000000000000000009060481b61157c565b9061302761037a61159d92612ef4565b8254613001565b906cffff00000000000000000000009060581b61157c565b9061305661037a61159d92612ef4565b825461302e565b91909161306e82612f7d8584612ed1565b61307c611e9f61037a6105e5565b03612ae6576103649261309361309a926006612fea565b6006613017565b6006613046565b906103649291612fc0565b610364906130bb61146b610476565b6130f3565b9073ffffffffffffffffffffffffffffffffffffffff9061157c565b906130ec61037a61159d92610567565b82546130c0565b6103649060016130dc565b610364906130ac565b6103649061311661146b610476565b610364906007611700565b61036490613107565b6103649061313961146b610476565b610364906004611700565b6103649061312a565b6103649061315c61146b610476565b610364906005611700565b6103649061314d565b6103649061317f61146b610476565b6131a4565b6109e361037a61037a9260ff1690565b9061159661037a61159d92613184565b610364906006613194565b61036490613170565b610364906131c761146b610476565b610364906003611700565b610364906131b856fea26469706673582212201a2099ec5718b6647a0de5f8573fe37effbd47632c0ff8c9f2c8dc15616bb19864736f6c63430008140033",
  "linkReferences": {},
  "deployedLinkReferences": {},
  "chainId": 80001,
  "address": "0xF10aEa0fD037A8dDD2cBAF9173BCd381dD398264"
}