{
  "_format": "hh-sol-artifact-1",
  "contractName": "Raffle",
  "sourceName": "contracts/raffle/Raffle.sol",
  "abi": [
    {
      "inputs": [
        {
          "internalType": "contract IERC20",
          "name": "_fusdt",
          "type": "address"
        },
        {
          "internalType": "contract IRaffleVault",
          "name": "_raffleVault",
          "type": "address"
        },
        {
          "internalType": "contract ILottery",
          "name": "_lottery",
          "type": "address"
        }
      ],
      "stateMutability": "nonpayable",
      "type": "constructor"
    },
    {
      "inputs": [],
      "name": "AccessControlBadConfirmation",
      "type": "error"
    },
    {
      "inputs": [
        {
          "internalType": "address",
          "name": "account",
          "type": "address"
        },
        {
          "internalType": "bytes32",
          "name": "neededRole",
          "type": "bytes32"
        }
      ],
      "name": "AccessControlUnauthorizedAccount",
      "type": "error"
    },
    {
      "inputs": [],
      "name": "AlreadyAnnounced",
      "type": "error"
    },
    {
      "inputs": [],
      "name": "EmptyInTheList",
      "type": "error"
    },
    {
      "inputs": [],
      "name": "InCorrectToken",
      "type": "error"
    },
    {
      "inputs": [],
      "name": "MalformedParams",
      "type": "error"
    },
    {
      "inputs": [],
      "name": "NonExisistence",
      "type": "error"
    },
    {
      "inputs": [],
      "name": "NonExistence",
      "type": "error"
    },
    {
      "inputs": [],
      "name": "OutOfPersonalEntries",
      "type": "error"
    },
    {
      "inputs": [],
      "name": "OutOfRaffleEntries",
      "type": "error"
    },
    {
      "inputs": [],
      "name": "OverMaxEntries",
      "type": "error"
    },
    {
      "inputs": [],
      "name": "RaffleOver",
      "type": "error"
    },
    {
      "inputs": [],
      "name": "RaffleStillOn",
      "type": "error"
    },
    {
      "inputs": [],
      "name": "ToMustBeGreaterThanFrom",
      "type": "error"
    },
    {
      "anonymous": false,
      "inputs": [
        {
          "indexed": true,
          "internalType": "uint256",
          "name": "raffleId",
          "type": "uint256"
        },
        {
          "indexed": false,
          "internalType": "uint256",
          "name": "deadline",
          "type": "uint256"
        },
        {
          "indexed": false,
          "internalType": "uint256",
          "name": "listLength",
          "type": "uint256"
        }
      ],
      "name": "Add",
      "type": "event"
    },
    {
      "anonymous": false,
      "inputs": [
        {
          "indexed": true,
          "internalType": "uint256",
          "name": "raffleId",
          "type": "uint256"
        },
        {
          "indexed": true,
          "internalType": "address",
          "name": "winner",
          "type": "address"
        },
        {
          "indexed": true,
          "internalType": "enum RaffleStructs.Status",
          "name": "status",
          "type": "uint8"
        }
      ],
      "name": "Announce",
      "type": "event"
    },
    {
      "anonymous": false,
      "inputs": [
        {
          "indexed": true,
          "internalType": "uint256",
          "name": "raffleId",
          "type": "uint256"
        },
        {
          "indexed": true,
          "internalType": "address",
          "name": "creator",
          "type": "address"
        },
        {
          "indexed": true,
          "internalType": "enum RaffleStructs.PrizeType",
          "name": "prizeType",
          "type": "uint8"
        },
        {
          "indexed": false,
          "internalType": "uint256",
          "name": "deadline",
          "type": "uint256"
        },
        {
          "indexed": false,
          "internalType": "address",
          "name": "prize",
          "type": "address"
        },
        {
          "indexed": false,
          "internalType": "uint256",
          "name": "prizeId",
          "type": "uint256"
        },
        {
          "indexed": false,
          "internalType": "uint256",
          "name": "prizeAmount",
          "type": "uint256"
        },
        {
          "indexed": false,
          "internalType": "uint256",
          "name": "blockNumber",
          "type": "uint256"
        }
      ],
      "name": "Create",
      "type": "event"
    },
    {
      "anonymous": false,
      "inputs": [
        {
          "indexed": true,
          "internalType": "uint256",
          "name": "raffleId",
          "type": "uint256"
        },
        {
          "indexed": true,
          "internalType": "address",
          "name": "user",
          "type": "address"
        },
        {
          "indexed": false,
          "internalType": "uint256",
          "name": "_entries",
          "type": "uint256"
        }
      ],
      "name": "Join",
      "type": "event"
    },
    {
      "anonymous": false,
      "inputs": [
        {
          "indexed": true,
          "internalType": "uint256",
          "name": "raffleId",
          "type": "uint256"
        },
        {
          "indexed": false,
          "internalType": "uint256",
          "name": "deadline",
          "type": "uint256"
        },
        {
          "indexed": false,
          "internalType": "uint256",
          "name": "listLength",
          "type": "uint256"
        }
      ],
      "name": "Remove",
      "type": "event"
    },
    {
      "anonymous": false,
      "inputs": [
        {
          "indexed": true,
          "internalType": "bytes32",
          "name": "role",
          "type": "bytes32"
        },
        {
          "indexed": true,
          "internalType": "bytes32",
          "name": "previousAdminRole",
          "type": "bytes32"
        },
        {
          "indexed": true,
          "internalType": "bytes32",
          "name": "newAdminRole",
          "type": "bytes32"
        }
      ],
      "name": "RoleAdminChanged",
      "type": "event"
    },
    {
      "anonymous": false,
      "inputs": [
        {
          "indexed": true,
          "internalType": "bytes32",
          "name": "role",
          "type": "bytes32"
        },
        {
          "indexed": true,
          "internalType": "address",
          "name": "account",
          "type": "address"
        },
        {
          "indexed": true,
          "internalType": "address",
          "name": "sender",
          "type": "address"
        }
      ],
      "name": "RoleGranted",
      "type": "event"
    },
    {
      "anonymous": false,
      "inputs": [
        {
          "indexed": true,
          "internalType": "bytes32",
          "name": "role",
          "type": "bytes32"
        },
        {
          "indexed": true,
          "internalType": "address",
          "name": "account",
          "type": "address"
        },
        {
          "indexed": true,
          "internalType": "address",
          "name": "sender",
          "type": "address"
        }
      ],
      "name": "RoleRevoked",
      "type": "event"
    },
    {
      "inputs": [],
      "name": "DEFAULT_ADMIN_ROLE",
      "outputs": [
        {
          "internalType": "bytes32",
          "name": "",
          "type": "bytes32"
        }
      ],
      "stateMutability": "view",
      "type": "function"
    },
    {
      "inputs": [],
      "name": "FUSDT",
      "outputs": [
        {
          "internalType": "contract IERC20",
          "name": "",
          "type": "address"
        }
      ],
      "stateMutability": "view",
      "type": "function"
    },
    {
      "inputs": [],
      "name": "GUARD_ID",
      "outputs": [
        {
          "internalType": "uint256",
          "name": "",
          "type": "uint256"
        }
      ],
      "stateMutability": "view",
      "type": "function"
    },
    {
      "inputs": [],
      "name": "MANAGER",
      "outputs": [
        {
          "internalType": "bytes32",
          "name": "",
          "type": "bytes32"
        }
      ],
      "stateMutability": "view",
      "type": "function"
    },
    {
      "inputs": [],
      "name": "MAX_OF_ENTRIES",
      "outputs": [
        {
          "internalType": "uint256",
          "name": "",
          "type": "uint256"
        }
      ],
      "stateMutability": "view",
      "type": "function"
    },
    {
      "inputs": [
        {
          "internalType": "uint256",
          "name": "_raffleId",
          "type": "uint256"
        },
        {
          "internalType": "uint256",
          "name": "_deadline",
          "type": "uint256"
        }
      ],
      "name": "addList",
      "outputs": [],
      "stateMutability": "nonpayable",
      "type": "function"
    },
    {
      "inputs": [
        {
          "internalType": "uint256",
          "name": "_raffleId",
          "type": "uint256"
        },
        {
          "internalType": "uint256",
          "name": "_winningNumber",
          "type": "uint256"
        }
      ],
      "name": "announce",
      "outputs": [],
      "stateMutability": "nonpayable",
      "type": "function"
    },
    {
      "inputs": [
        {
          "internalType": "uint256",
          "name": "",
          "type": "uint256"
        }
      ],
      "name": "blockNumberByRaffleId",
      "outputs": [
        {
          "internalType": "uint256",
          "name": "",
          "type": "uint256"
        }
      ],
      "stateMutability": "view",
      "type": "function"
    },
    {
      "inputs": [
        {
          "components": [
            {
              "internalType": "enum RaffleStructs.PrizeType",
              "name": "prizeType",
              "type": "uint8"
            },
            {
              "internalType": "enum RaffleStructs.Status",
              "name": "status",
              "type": "uint8"
            },
            {
              "internalType": "address",
              "name": "prize",
              "type": "address"
            },
            {
              "internalType": "uint256",
              "name": "prizeAmount",
              "type": "uint256"
            },
            {
              "internalType": "uint256",
              "name": "prizeId",
              "type": "uint256"
            },
            {
              "internalType": "uint256",
              "name": "deadline",
              "type": "uint256"
            },
            {
              "internalType": "uint256",
              "name": "entryPrice",
              "type": "uint256"
            },
            {
              "internalType": "uint256",
              "name": "minRaffleEntries",
              "type": "uint256"
            },
            {
              "internalType": "uint256",
              "name": "maxRaffleEntries",
              "type": "uint256"
            },
            {
              "internalType": "uint256",
              "name": "minEntriesPerUser",
              "type": "uint256"
            },
            {
              "internalType": "uint256",
              "name": "maxEntriesPerUser",
              "type": "uint256"
            },
            {
              "internalType": "address",
              "name": "creator",
              "type": "address"
            },
            {
              "internalType": "address",
              "name": "winner",
              "type": "address"
            },
            {
              "internalType": "uint256",
              "name": "winningEntryNumber",
              "type": "uint256"
            },
            {
              "internalType": "uint256",
              "name": "totalEntries",
              "type": "uint256"
            }
          ],
          "internalType": "struct RaffleStructs.RaffleInfo",
          "name": "_param",
          "type": "tuple"
        }
      ],
      "name": "create",
      "outputs": [],
      "stateMutability": "nonpayable",
      "type": "function"
    },
    {
      "inputs": [],
      "name": "currentId",
      "outputs": [
        {
          "internalType": "uint256",
          "name": "",
          "type": "uint256"
        }
      ],
      "stateMutability": "view",
      "type": "function"
    },
    {
      "inputs": [],
      "name": "depositAmount",
      "outputs": [
        {
          "internalType": "uint256",
          "name": "",
          "type": "uint256"
        }
      ],
      "stateMutability": "view",
      "type": "function"
    },
    {
      "inputs": [
        {
          "internalType": "uint256",
          "name": "_raffleId",
          "type": "uint256"
        }
      ],
      "name": "findIndex",
      "outputs": [
        {
          "internalType": "uint256",
          "name": "",
          "type": "uint256"
        }
      ],
      "stateMutability": "view",
      "type": "function"
    },
    {
      "inputs": [
        {
          "internalType": "address",
          "name": "_token",
          "type": "address"
        }
      ],
      "name": "findPrizeType",
      "outputs": [
        {
          "internalType": "enum RaffleStructs.PrizeType",
          "name": "_prizeType",
          "type": "uint8"
        }
      ],
      "stateMutability": "view",
      "type": "function"
    },
    {
      "inputs": [],
      "name": "getHeadDeadline",
      "outputs": [
        {
          "internalType": "uint256",
          "name": "",
          "type": "uint256"
        }
      ],
      "stateMutability": "view",
      "type": "function"
    },
    {
      "inputs": [],
      "name": "getHeadId",
      "outputs": [
        {
          "internalType": "uint256",
          "name": "",
          "type": "uint256"
        }
      ],
      "stateMutability": "view",
      "type": "function"
    },
    {
      "inputs": [
        {
          "internalType": "uint256",
          "name": "_from",
          "type": "uint256"
        },
        {
          "internalType": "uint256",
          "name": "_size",
          "type": "uint256"
        }
      ],
      "name": "getInactiveList",
      "outputs": [
        {
          "internalType": "uint256[]",
          "name": "raffleIds",
          "type": "uint256[]"
        }
      ],
      "stateMutability": "view",
      "type": "function"
    },
    {
      "inputs": [],
      "name": "getInactiveRaffleListLength",
      "outputs": [
        {
          "internalType": "uint256",
          "name": "",
          "type": "uint256"
        }
      ],
      "stateMutability": "view",
      "type": "function"
    },
    {
      "inputs": [
        {
          "internalType": "uint256",
          "name": "_prevStartingRaffleId",
          "type": "uint256"
        },
        {
          "internalType": "uint256",
          "name": "_size",
          "type": "uint256"
        }
      ],
      "name": "getList",
      "outputs": [
        {
          "components": [
            {
              "internalType": "uint256",
              "name": "deadline",
              "type": "uint256"
            },
            {
              "internalType": "uint256",
              "name": "raffleId",
              "type": "uint256"
            },
            {
              "internalType": "uint256",
              "name": "nextRaffleId",
              "type": "uint256"
            }
          ],
          "internalType": "struct SortList.Node[]",
          "name": "_nodeList",
          "type": "tuple[]"
        }
      ],
      "stateMutability": "view",
      "type": "function"
    },
    {
      "inputs": [],
      "name": "getListAll",
      "outputs": [
        {
          "components": [
            {
              "internalType": "uint256",
              "name": "deadline",
              "type": "uint256"
            },
            {
              "internalType": "uint256",
              "name": "raffleId",
              "type": "uint256"
            },
            {
              "internalType": "uint256",
              "name": "nextRaffleId",
              "type": "uint256"
            }
          ],
          "internalType": "struct SortList.Node[]",
          "name": "_nodeList",
          "type": "tuple[]"
        }
      ],
      "stateMutability": "view",
      "type": "function"
    },
    {
      "inputs": [
        {
          "internalType": "bytes32",
          "name": "role",
          "type": "bytes32"
        }
      ],
      "name": "getRoleAdmin",
      "outputs": [
        {
          "internalType": "bytes32",
          "name": "",
          "type": "bytes32"
        }
      ],
      "stateMutability": "view",
      "type": "function"
    },
    {
      "inputs": [
        {
          "internalType": "address",
          "name": "_user",
          "type": "address"
        },
        {
          "internalType": "uint256",
          "name": "_from",
          "type": "uint256"
        },
        {
          "internalType": "uint256",
          "name": "_size",
          "type": "uint256"
        }
      ],
      "name": "getUserCreatedRaffleList",
      "outputs": [
        {
          "internalType": "uint256[]",
          "name": "raffleIds",
          "type": "uint256[]"
        }
      ],
      "stateMutability": "view",
      "type": "function"
    },
    {
      "inputs": [
        {
          "internalType": "address",
          "name": "_user",
          "type": "address"
        }
      ],
      "name": "getUserCreatedRaffleListLength",
      "outputs": [
        {
          "internalType": "uint256",
          "name": "",
          "type": "uint256"
        }
      ],
      "stateMutability": "view",
      "type": "function"
    },
    {
      "inputs": [
        {
          "internalType": "address",
          "name": "_user",
          "type": "address"
        },
        {
          "internalType": "uint256",
          "name": "_raffleId",
          "type": "uint256"
        }
      ],
      "name": "getUserEntryCounterByRaffle",
      "outputs": [
        {
          "internalType": "uint256",
          "name": "",
          "type": "uint256"
        }
      ],
      "stateMutability": "view",
      "type": "function"
    },
    {
      "inputs": [
        {
          "internalType": "address",
          "name": "_user",
          "type": "address"
        },
        {
          "internalType": "uint256",
          "name": "_from",
          "type": "uint256"
        },
        {
          "internalType": "uint256",
          "name": "_size",
          "type": "uint256"
        }
      ],
      "name": "getUserJoinedRaffleList",
      "outputs": [
        {
          "internalType": "uint256[]",
          "name": "raffleIds",
          "type": "uint256[]"
        }
      ],
      "stateMutability": "view",
      "type": "function"
    },
    {
      "inputs": [
        {
          "internalType": "address",
          "name": "_user",
          "type": "address"
        }
      ],
      "name": "getUserJoinedRaffleListLength",
      "outputs": [
        {
          "internalType": "uint256",
          "name": "",
          "type": "uint256"
        }
      ],
      "stateMutability": "view",
      "type": "function"
    },
    {
      "inputs": [
        {
          "internalType": "bytes32",
          "name": "role",
          "type": "bytes32"
        },
        {
          "internalType": "address",
          "name": "account",
          "type": "address"
        }
      ],
      "name": "grantRole",
      "outputs": [],
      "stateMutability": "nonpayable",
      "type": "function"
    },
    {
      "inputs": [
        {
          "internalType": "bytes32",
          "name": "role",
          "type": "bytes32"
        },
        {
          "internalType": "address",
          "name": "account",
          "type": "address"
        }
      ],
      "name": "hasRole",
      "outputs": [
        {
          "internalType": "bool",
          "name": "",
          "type": "bool"
        }
      ],
      "stateMutability": "view",
      "type": "function"
    },
    {
      "inputs": [
        {
          "internalType": "uint256",
          "name": "",
          "type": "uint256"
        }
      ],
      "name": "inActiveRaffleList",
      "outputs": [
        {
          "internalType": "uint256",
          "name": "",
          "type": "uint256"
        }
      ],
      "stateMutability": "view",
      "type": "function"
    },
    {
      "inputs": [
        {
          "internalType": "uint256",
          "name": "_raffleId",
          "type": "uint256"
        },
        {
          "internalType": "uint256",
          "name": "_entries",
          "type": "uint256"
        }
      ],
      "name": "join",
      "outputs": [],
      "stateMutability": "nonpayable",
      "type": "function"
    },
    {
      "inputs": [],
      "name": "listLength",
      "outputs": [
        {
          "internalType": "uint256",
          "name": "",
          "type": "uint256"
        }
      ],
      "stateMutability": "view",
      "type": "function"
    },
    {
      "inputs": [],
      "name": "lottery",
      "outputs": [
        {
          "internalType": "contract ILottery",
          "name": "",
          "type": "address"
        }
      ],
      "stateMutability": "view",
      "type": "function"
    },
    {
      "inputs": [
        {
          "internalType": "uint256",
          "name": "",
          "type": "uint256"
        }
      ],
      "name": "raffleInfo",
      "outputs": [
        {
          "internalType": "enum RaffleStructs.PrizeType",
          "name": "prizeType",
          "type": "uint8"
        },
        {
          "internalType": "enum RaffleStructs.Status",
          "name": "status",
          "type": "uint8"
        },
        {
          "internalType": "address",
          "name": "prize",
          "type": "address"
        },
        {
          "internalType": "uint256",
          "name": "prizeAmount",
          "type": "uint256"
        },
        {
          "internalType": "uint256",
          "name": "prizeId",
          "type": "uint256"
        },
        {
          "internalType": "uint256",
          "name": "deadline",
          "type": "uint256"
        },
        {
          "internalType": "uint256",
          "name": "entryPrice",
          "type": "uint256"
        },
        {
          "internalType": "uint256",
          "name": "minRaffleEntries",
          "type": "uint256"
        },
        {
          "internalType": "uint256",
          "name": "maxRaffleEntries",
          "type": "uint256"
        },
        {
          "internalType": "uint256",
          "name": "minEntriesPerUser",
          "type": "uint256"
        },
        {
          "internalType": "uint256",
          "name": "maxEntriesPerUser",
          "type": "uint256"
        },
        {
          "internalType": "address",
          "name": "creator",
          "type": "address"
        },
        {
          "internalType": "address",
          "name": "winner",
          "type": "address"
        },
        {
          "internalType": "uint256",
          "name": "winningEntryNumber",
          "type": "uint256"
        },
        {
          "internalType": "uint256",
          "name": "totalEntries",
          "type": "uint256"
        }
      ],
      "stateMutability": "view",
      "type": "function"
    },
    {
      "inputs": [
        {
          "internalType": "uint256",
          "name": "",
          "type": "uint256"
        }
      ],
      "name": "raffleList",
      "outputs": [
        {
          "internalType": "uint256",
          "name": "deadline",
          "type": "uint256"
        },
        {
          "internalType": "uint256",
          "name": "raffleId",
          "type": "uint256"
        },
        {
          "internalType": "uint256",
          "name": "nextRaffleId",
          "type": "uint256"
        }
      ],
      "stateMutability": "view",
      "type": "function"
    },
    {
      "inputs": [],
      "name": "raffleVault",
      "outputs": [
        {
          "internalType": "contract IRaffleVault",
          "name": "",
          "type": "address"
        }
      ],
      "stateMutability": "view",
      "type": "function"
    },
    {
      "inputs": [
        {
          "internalType": "uint256",
          "name": "_raffleId",
          "type": "uint256"
        }
      ],
      "name": "refundEntryFee",
      "outputs": [],
      "stateMutability": "nonpayable",
      "type": "function"
    },
    {
      "inputs": [],
      "name": "removeHead",
      "outputs": [],
      "stateMutability": "nonpayable",
      "type": "function"
    },
    {
      "inputs": [
        {
          "internalType": "bytes32",
          "name": "role",
          "type": "bytes32"
        },
        {
          "internalType": "address",
          "name": "callerConfirmation",
          "type": "address"
        }
      ],
      "name": "renounceRole",
      "outputs": [],
      "stateMutability": "nonpayable",
      "type": "function"
    },
    {
      "inputs": [
        {
          "internalType": "bytes32",
          "name": "role",
          "type": "bytes32"
        },
        {
          "internalType": "address",
          "name": "account",
          "type": "address"
        }
      ],
      "name": "revokeRole",
      "outputs": [],
      "stateMutability": "nonpayable",
      "type": "function"
    },
    {
      "inputs": [
        {
          "internalType": "uint256",
          "name": "_depositAmount",
          "type": "uint256"
        }
      ],
      "name": "setDeposit",
      "outputs": [],
      "stateMutability": "nonpayable",
      "type": "function"
    },
    {
      "inputs": [
        {
          "internalType": "bytes4",
          "name": "interfaceId",
          "type": "bytes4"
        }
      ],
      "name": "supportsInterface",
      "outputs": [
        {
          "internalType": "bool",
          "name": "",
          "type": "bool"
        }
      ],
      "stateMutability": "view",
      "type": "function"
    },
    {
      "inputs": [
        {
          "internalType": "uint256",
          "name": "_round",
          "type": "uint256"
        }
      ],
      "name": "totalEntriesByRound",
      "outputs": [
        {
          "internalType": "uint256",
          "name": "",
          "type": "uint256"
        }
      ],
      "stateMutability": "view",
      "type": "function"
    },
    {
      "inputs": [
        {
          "internalType": "uint256",
          "name": "",
          "type": "uint256"
        },
        {
          "internalType": "uint256",
          "name": "",
          "type": "uint256"
        }
      ],
      "name": "userEntryListByRaffle",
      "outputs": [
        {
          "internalType": "address",
          "name": "",
          "type": "address"
        }
      ],
      "stateMutability": "view",
      "type": "function"
    }
  ],
  "bytecode": "0x60e06040523462000084576200001f6200001862000147565b91620001af565b60405161357962000433823960805181818161062c0152818161195d0152611f81015260a05181818161107e0152818161199201528181611fb60152818161242d0152818161256901526126ed015260c051818181610d1b015261231f015261357990f35b600080fd5b634e487b7160e01b600052604160045260246000fd5b90601f01601f191681019081106001600160401b03821117620000c157604052565b62000089565b90620000de620000d660405190565b92836200009f565b565b6001600160a01b031690565b90565b6001600160a01b038116036200008457565b90505190620000de82620000ef565b90916060828403126200008457620000ec6200012d848462000101565b936200013d816020860162000101565b9360400162000101565b6200016a620039ac803803806200015e81620000c7565b92833981019062000110565b909192565b90600019905b9181191691161790565b620000ec620000ec620000ec9290565b90620001a3620000ec620001ab926200017f565b82546200016f565b9055565b620001b962000291565b620001c96298968060036200018f565b60805260a05260c052620000de620001e260016200017f565b60096200018f565b620000ec60006200017f565b620000ec6060620000c7565b906200020e906200017f565b600052602052604060002090565b620000de919062000238906040906002906200023f8185875190565b906200018f565b620002536001820162000238602088015190565b0192015190565b90620000de916200021c565b620000ec7faf290d8680820aad922855f39b306097b20e28774d6c1ad35a20325630c3a02c6200017f565b620002eb6000620002e5620002a5620001ea565b620002d1620002b3620001f6565b93620002ca620002c3826200017f565b8092870152565b6020850152565b620002dd816040850152565b600162000202565b6200025a565b62000317620002f962000266565b620003063380926200037e565b5062000311620001ea565b6200037e565b50565b906200020e565b620000ec90620000e0906001600160a01b031682565b620000ec9062000321565b620000ec9062000337565b906200020e9062000342565b9060ff9062000175565b9062000376620000ec620001ab92151590565b825462000359565b620003926200038e838362000413565b1590565b156200040c57600191620003c083620003ba836000620003b387826200031a565b016200034d565b62000363565b3390620003fa620003f3620003f37f2f8788117e7eff1d82e926ec794901d17c78024a50270940304540a733656f0d9590565b9262000342565b926200040560405190565b600090a490565b5050600090565b620000ec916200042b91620003b3600091826200031a565b5460ff169056fe60e0604052600436101561001257600080fd5b60003560e01c806301ffc9a7146102ad57806303d6e9dc1461023a57806306201a3a146102a8578063083b7298146102a35780630f31e9741461029e5780631b2df850146102995780631f77b6911461029457806323c358341461028f57806323d5a87b1461028a578063248a9ca3146102855780632f2ff15d14610280578063364cf80f1461027b57806336568abe146102765780633e5d09f214610271578063419759f51461026c578063502a03ac146102675780635fcff4d01461026257806362cfde581461025d57806379e66b46146102585780638a64bcbc146102535780639146dc381461024e5780639180eb711461024957806391d148541461024457806395d70b2e1461023f578063a217fddf1461023a578063a8fcbb6c14610235578063a9816b0814610230578063aa871e581461022b578063b9b3776114610226578063ba13a57214610221578063bf30d7901461021c578063c292ae8a14610217578063c406196b14610212578063cf530b0d1461020d578063d547741f14610208578063d98c28bb14610203578063e00dd161146101fe578063ea425e8a146101f9578063f5bade66146101f4578063f8c66b94146101ef578063faccc4a9146101ea5763fb6f049f036102dd576110ae565b611069565b611050565b611038565b61101c565b611001565b610fe6565b610fcd565b610fb4565b610f99565b610f7e565b610f24565b610d06565b610ceb565b610cbe565b610ca2565b610c87565b610367565b610c6f565b610a5a565b610a3e565b610a16565b610970565b6108ed565b6108d1565b6108a9565b610810565b6107d2565b61079c565b61070c565b6106f4565b6106db565b61069d565b610682565b610617565b610593565b610578565b610520565b61046c565b6103ba565b61030c565b7fffffffff0000000000000000000000000000000000000000000000000000000081165b036102dd57565b600080fd5b905035906102ef826102b2565b565b906020828203126102dd57610305916102e2565b90565b9052565b346102dd576103396103276103223660046102f1565b6110c9565b60405191829182901515815260200190565b0390f35b60009103126102dd57565b6103056103056103059290565b6103056000610348565b610305610355565b346102dd5761037736600461033d565b61033961038261035f565b6040515b9182918290815260200190565b806102d6565b905035906102ef82610393565b906020828203126102dd5761030591610399565b346102dd576103396103826103d03660046103a6565b6131d1565b7f4e487b7100000000000000000000000000000000000000000000000000000000600052603260045260246000fd5b80548210156104275761041e600191600052602060002090565b91020190600090565b6103d5565b610305916008021c81565b90610305915461042c565b6008600061044e825490565b83101561046957506103059161046391610404565b90610437565b80fd5b346102dd576103396103826104823660046103a6565b610442565b805182526102ef919060409081906104a460208201516020860152565b0151910152565b906104b881606093610487565b0190565b906104dc6104d56104cb845190565b8084529260200190565b9260200190565b9060005b8181106104ed5750505090565b90919261050761050060019286516104ab565b9460200190565b9291016104e0565b6020808252610305929101906104bc565b346102dd5761053036600461033d565b61033961053b613341565b6040519182918261050f565b6103057faf290d8680820aad922855f39b306097b20e28774d6c1ad35a20325630c3a02c610348565b610305610547565b346102dd5761058836600461033d565b610339610382610570565b346102dd576105ab6105a63660046103a6565b6126e8565b604051005b6105d36103056103059273ffffffffffffffffffffffffffffffffffffffff1690565b73ffffffffffffffffffffffffffffffffffffffff1690565b610305906105b0565b610305906105ec565b610308906105f5565b6020810192916102ef91906105fe565b346102dd5761062736600461033d565b6103397f00000000000000000000000000000000000000000000000000000000000000005b60405191829182610607565b6102d6816105d3565b905035906102ef82610658565b906020828203126102dd5761030591610661565b346102dd5761033961038261069836600461066e565b6127aa565b346102dd576103396103826106b33660046103a6565b611194565b91906040838203126102dd57610305906106d28185610399565b93602001610661565b346102dd576105ab6106ee3660046106b8565b906111d6565b346102dd5761070436600461033d565b6105ab61312f565b346102dd576105ab61071f3660046106b8565b90611284565b9061072f90610348565b600052602052604060002090565b6103059081565b610305905461073d565b610759906001610725565b61076281610744565b91610305600261077460018501610744565b9301610744565b9081526060810193926102ef929091604091610798906020830152565b0152565b346102dd576103396107b76107b23660046103a6565b61074e565b6040519193919384938461077b565b61030560006003610437565b346102dd576107e236600461033d565b6103396103826107c6565b91906040838203126102dd57610305906108078185610661565b93602001610399565b346102dd576103396103826108263660046107ed565b90612a25565b91906040838203126102dd57610305906108078185610399565b610305916008021c6105d3565b906103059154610846565b61086c600791600092610725565b90610875825490565b83101561046957506103059161088a91610404565b90610853565b610308906105d3565b6020810192916102ef9190610890565b346102dd576103396108c56108bf36600461082c565b9061085e565b60405191829182610899565b346102dd576108e136600461033d565b61033961038260085490565b346102dd576105ab61090036600461082c565b90611e8b565b7f4e487b7100000000000000000000000000000000000000000000000000000000600052602160045260246000fd5b6004111561093f57565b610906565b906102ef82610935565b61030590610944565b6103089061094e565b6020810192916102ef9190610957565b346102dd5761033961098b61098636600461066e565b612aaa565b60405191829182610960565b90916060828403126102dd576103056109b08484610661565b936109be8160208601610399565b93604001610399565b906109d66104d56104cb845190565b9060005b8181106109e75750505090565b9091926109fd6105006001928651815260200190565b9291016109da565b6020808252610305929101906109c7565b346102dd57610339610a32610a2c366004610997565b9161291c565b60405191829182610a05565b346102dd57610339610a32610a54366004610997565b91612857565b346102dd57610339610327610a703660046106b8565b90611175565b7f4e487b7100000000000000000000000000000000000000000000000000000000600052604160045260246000fd5b90601f017fffffffffffffffffffffffffffffffffffffffffffffffffffffffffffffffe016810190811067ffffffffffffffff821117610ae557604052565b610a76565b906102ef610af760405190565b9283610aa5565b600411156102dd57565b905035906102ef82610afe565b600311156102dd57565b905035906102ef82610b15565b9190916101e0818403126102dd57610c54610b486101e0610aea565b936000610b558285610b08565b908601526020610b6782828601610b1f565b908601526040610b7982828601610661565b908601526060610b8b82828601610399565b908601526080610b9d82828601610399565b9086015260a0610baf82828601610399565b9086015260c0610bc182828601610399565b9086015260e0610bd382828601610399565b90860152610100610be682828601610399565b90860152610120610bf982828601610399565b90860152610140610c0c82828601610399565b90860152610160610c1f82828601610661565b90860152610180610c3282828601610661565b908601526101a0610c4582828601610399565b908601526101c0809301610399565b90830152565b906101e0828203126102dd5761030591610b2c565b346102dd576105ab610c82366004610c5a565b6118ac565b346102dd57610339610382610c9d36600461066e565b61290b565b346102dd5761033961053b610cb836600461082c565b906133d9565b346102dd57610cce36600461033d565b610339610382613531565b61030560c8610348565b610305610cd9565b346102dd57610cfb36600461033d565b610339610382610ce3565b346102dd57610d1636600461033d565b6103397f000000000000000000000000000000000000000000000000000000000000000061064c565b610305905b60ff1690565b6103059054610d3f565b6103059060081c610d44565b6103059054610d54565b6103059060101c6105d3565b6103059054610d6a565b610305906105d3565b6103059054610d80565b610d9e906004610725565b610da781610d4a565b91610db182610d60565b91610dbb81610d76565b91610dc860018301610744565b91610dd560028201610744565b91610de260038301610744565b91610def60048201610744565b91610dfc60058301610744565b91610e0960068201610744565b91610e1660078301610744565b91610e2360088201610744565b91610e3060098301610d89565b91610e3d600a8201610d89565b91610305600c610774600b8501610744565b6003111561093f57565b906102ef82610e4f565b61030590610e59565b61030890610e63565b60c0819052608082905260a09f909f526101e08f019f9e610e9591610957565b60c051602001610ea491610e6c565b60c051604001610eb391610890565b60c0516060015260c0516080015260c05160a0015260c08051015260c05160e0015260c051610100015260c051610120015260c051610140015260c05161016001610efd91610890565b60c05161018001610f0d91610890565b60c0516101a0015260c05160a0516101c090910152565b346102dd57610f343660046103a6565b610f3d90610d93565b9a610f599e9c9e9a919a99929998939897949796959660405190565b9e8f9e8f9e6103399f610e75565b61030590610f79600691600092610725565b610437565b346102dd57610339610382610f943660046103a6565b610f67565b346102dd57610fa936600461033d565b610339610382613517565b346102dd576105ab610fc736600461082c565b906126c8565b346102dd576105ab610fe03660046106b8565b9061127a565b346102dd57610339610382610ffc3660046103a6565b61278f565b346102dd5761101136600461033d565b610339610382611427565b346102dd57610339610a3261103236600461082c565b906129a7565b346102dd576105ab61104b3660046103a6565b612786565b346102dd576105ab61106336600461082c565b90612e9c565b346102dd5761107936600461033d565b6103397f000000000000000000000000000000000000000000000000000000000000000061064c565b61030560006002610437565b346102dd576110be36600461033d565b6103396103826110a2565b7f7965db0b000000000000000000000000000000000000000000000000000000007fffffffff00000000000000000000000000000000000000000000000000000000821614908115611119575090565b61030591507fffffffff00000000000000000000000000000000000000000000000000000000167f01ffc9a7000000000000000000000000000000000000000000000000000000001490565b9061072f565b9061072f906105f5565b6103059161118f9161118960009182611165565b0161116b565b610d4a565b60016111ad610305926111a5600090565b506000611165565b01610744565b906102ef916111c96111c482611194565b6111e0565b906111d3916112ff565b50565b906102ef916111b3565b6102ef903390611206565b9160206102ef92949361079860408201966000830190610890565b906112186112148284611175565b1590565b611220575050565b61125b61122c60405190565b9283927fe2517d3f000000000000000000000000000000000000000000000000000000008452600484016111eb565b0390fd5b906102ef916112706111c482611194565b906111d39161137b565b906102ef9161125f565b90611293336105d3565b6105d3565b61129c826105d3565b036112aa576111d39161137b565b6040517f6697b232000000000000000000000000000000000000000000000000000000008152600490fd5b9060ff905b9181191691161790565b906112f46103056112fb92151590565b82546112d5565b9055565b61130c6112148383611175565b156113745760019161132d836113288360006111898782611165565b6112e4565b339061136361135d61135d7f2f8788117e7eff1d82e926ec794901d17c78024a50270940304540a733656f0d9590565b926105f5565b9261136d60405190565b600090a490565b5050600090565b906113868183611175565b156113745761139f600061132883826111898782611165565b33906113cf61135d61135d7ff6391f5c32d9c69d2a47ea670b442974b53935d1edc7fd64eb21e047a839171b9590565b926113d960405190565b600090a4600190565b1490565b7f4e487b7100000000000000000000000000000000000000000000000000000000600052601160045260246000fd5b9190820391821161142257565b6113e6565b6114316009610744565b60019061144461144083610348565b9190565b14611466576103059061146061145a6009610744565b91610348565b90611415565b6040517f6885f066000000000000000000000000000000000000000000000000000000008152600490fd5b6103059051610944565b61030590516105d3565b6105d36103056103059290565b610305906114a5565b6114c86103056103059290565b610944565b8015156102d6565b905051906102ef826114cd565b906020828203126102dd57610305916114d5565b6040906107986102ef949695939661151660608401986000850190610890565b6020830190610890565b6040513d6000823e3d90fd5b7f4e487b7100000000000000000000000000000000000000000000000000000000600052600060045260246000fd5b906112f46103056112fb9261094e565b6103059051610e59565b9061ff009060081b6112da565b906115926103056112fb92610e63565b8254611575565b9075ffffffffffffffffffffffffffffffffffffffff00009060101b6112da565b906115ca6103056112fb926105f5565b8254611599565b907fffffffffffffffffffffffffffffffffffffffffffffffffffffffffffffffff906112da565b906116096103056112fb92610348565b82546115d1565b9073ffffffffffffffffffffffffffffffffffffffff906112da565b9061163c6103056112fb926105f5565b8254611610565b6102ef91906116a2906101c090600c906116908161166961166388611491565b8261155b565b61167e6116786020890161156b565b82611582565b61168a6040880161149b565b906115ba565b6116a8600182016116a2606088015190565b906115f9565b6116ba600282016116a2608088015190565b6116cc600382016116a260a088015190565b6116de600482016116a260c088015190565b6116f0600582016116a260e088015190565b611703600682016116a261010088015190565b611716600782016116a261012088015190565b611729600882016116a261014088015190565b6117436009820161173d610160880161149b565b9061162c565b611757600a820161173d610180880161149b565b61176a600b82016116a26101a088015190565b0192015190565b906102ef91611643565b90815260e0810197969590949093909290916020860161179a91610890565b604085016117a791610957565b606084016117b491610890565b608083015260a082015260c00152565b919060086112da9102916117f77fffffffffffffffffffffffffffffffffffffffffffffffffffffffffffffffff841b90565b921b90565b919061180d6103056112fb93610348565b9083546117c4565b9081549168010000000000000000831015610ae5578261183d9160016102ef95018155610404565b906117fc565b7fffffffffffffffffffffffffffffffffffffffffffffffffffffffffffffffff81146114225760010190565b909594926102ef946118a56107989261189e60809661189460a088019c6000890152565b6020870190610890565b6040850152565b6060830152565b806118b681611491565b6118d061121460408401926118ca8461149b565b90612a40565b611db75760608201926118e1845190565b6001906118f061144083610348565b108015611daa575b8015611d8c575b8015611d6d575b8015611d49575b8015611d28575b8015611cfd575b8015611ce2575b8015611cc7575b611c7e5761193682611491565b61194b6119456114c8846114bb565b91610944565b149081611ca9575b50611c7e576119817f00000000000000000000000000000000000000000000000000000000000000006105f5565b33926119ea60206323b872dd6119b67f00000000000000000000000000000000000000000000000000000000000000006105f5565b946119dd60006119c66003610744565b936119d060405190565b9687958694859360e01b90565b83528a8d600485016114f6565b03925af18015611c3457611c52575b50611a0b611a0684611491565b61094e565b91611a37611a188361149b565b9360808801948388611a28885190565b92611a318d5190565b94612d62565b6004611a5587611a50611a4a6009610744565b84610725565b611771565b611a6760066111ad611a4a6009610744565b611a6f610cd9565b90811015611c3957505b4390611a9982611a946006611a8e6009610744565b90610725565b6115f9565b63f802c89490611aa96009610744565b938a611ab86101608c0161149b565b93611ac28a611491565b90611ad4611acf8a61149b565b935190565b95611add8b5190565b611ae76003610744565b90863b156102dd57600098611b12968a96611b1b95611b0560405190565b9e8f9c8d9b8c9a60e01b90565b8a52890161177b565b03925af1918215611c3457611c0992611c0e575b50611b5060a0611b3f6009610744565b980197611b4a895190565b90612ef8565b611b73611b6360026104b889600561116b565b611b6d6009610744565b90611815565b611bba611bb5611bb0611baa611ba5611b8c6009610744565b99611ba0611b998c611843565b60096115f9565b611491565b9a5190565b9561149b565b955190565b985190565b611bf6611bf0611bea7fc0a0ce4d233ad660cfec296f0b0d60a7783919f2cee9765c6633bfd53042433998610348565b986105f5565b9861094e565b98611c0060405190565b95869586611870565b0390a4565b611c279060005b611c1f8183610aa5565b81019061033d565b38611b2f565b503d611c15565b611520565b50611c4c60066111ad611a4a6009610744565b50611a79565b611c729060203d8111611c77575b611c6a8183610aa5565b8101906114e2565b6119f9565b503d611c60565b6040517f48da98ff000000000000000000000000000000000000000000000000000000008152600490fd5b9050611cbf611440611cb9875190565b92610348565b141538611953565b506101c0840151611cdb6114406000610348565b1415611929565b506101a0840151611cf66114406000610348565b1415611922565b50611d0b610180850161149b565b611d21611d1b61128e60006114b2565b916105d3565b141561191b565b50611d36610160850161149b565b611d42611d1b336105d3565b1415611914565b50611d57610160850161149b565b611d67611d1b61128e60006114b2565b1461190d565b50610120840151611d8661144061030561014088015190565b11611906565b5060e0840151611da461144061030561010088015190565b116118ff565b5060a084015142116118f8565b6040517f8b8769fa000000000000000000000000000000000000000000000000000000008152600490fd5b8181029291811591840414171561142257565b9190820180921161142257565b9081526060810193926102ef92909160409161079890611516565b919060086112da9102916117f773ffffffffffffffffffffffffffffffffffffffff841b90565b9190611e556103056112fb936105f5565b908354611e1d565b9081549168010000000000000000831015610ae55782611e859160016102ef95018155610404565b90611e44565b9091611e95610cd9565b831161222e573390611eab61030583600561116b565b936004611ebb6103058683610725565b95600790611ecc6103058884610725565b97611ee185611edc868401610744565b611de2565b611ef3611eee8a85610725565b610744565b91611f0060038201610744565b4211801561220a575b6121d257611f1960068201610744565b94600c820195611f376114406103058b611f328b610744565b611df5565b1061219a57611f47908201610744565b611f576114406103058a87611df5565b11908115612176575b5061213e576000948592611f7661144085610348565b1461212c575b611fa57f00000000000000000000000000000000000000000000000000000000000000006105f5565b60208a6323b872dd92611ff7611fda7f00000000000000000000000000000000000000000000000000000000000000006105f5565b97889561200189611fea60405190565b9889978896879560e01b90565b85528b85016114f6565b03925af18015611c3457612110575b5063483fe77b92803b156102dd57612040878c9561204982968e61203360405190565b998a988997889660e01b90565b86528501611e02565b03925af18015611c34576120879461207a9361206d938b936120f4575b5001610725565b6116a285611f3283610744565b6116a283611f3283610744565b60005b818110156120aa576120a5906120a08588611e5d565b611843565b61208a565b50929093506120ef6120e56120df7fb3e822478fa19cb993157f15b49a00501cc8d45226c1e7233aef1e281dc567f993610348565b936105f5565b9361038660405190565b0390a3565b61210a90833d8511611c2d57611c1f8183610aa5565b38612066565b6121279060203d8111611c7757611c6a8183610aa5565b612010565b6121398a60018601611815565b611f7c565b61125b8561214b60405190565b7f5d86b71b000000000000000000000000000000000000000000000000000000008152918291820190565b6121839150600801610744565b6121936114406103058986611df5565b1038611f60565b61125b876121a760405190565b7f12d83d14000000000000000000000000000000000000000000000000000000008152918291820190565b61125b866121df60405190565b7fb070b4c4000000000000000000000000000000000000000000000000000000008152918291820190565b5061221481610d60565b6122276122216000610e59565b91610e59565b1415611f09565b6040517f79df79aa000000000000000000000000000000000000000000000000000000008152600490fd5b906102ef916122696111c4610547565b612314565b905051906102ef82610393565b906020828203126102dd576103059161226e565b949290979695939160e0860198600087016122a991610957565b6020860152604085016117a791610890565b95939198979694929098610100870199600088016122d891610957565b6020870152604086016122ea91610890565b606085016122f791610890565b6080840161230491610890565b60a083015260c082015260e00152565b9061235b60206123437f00000000000000000000000000000000000000000000000000000000000000006105f5565b63146ca5319061235260405190565b93849260e01b90565b825260049082905afa908115611c345760009161269a575b5060046123836103058583610725565b61238f60038201610744565b42106126625761239e81610d60565b916000926123ae61222185610e59565b0361262a576123c1610305876007610725565b936123ca855490565b9060006123dc61030560058701610744565b831061254e575060019261242861240361088a8a8989019a6123fe898d611582565b610404565b9361241f859a61241687600a8b0161162c565b600b89016115f9565b600c87016115f9565b6124517f00000000000000000000000000000000000000000000000000000000000000006105f5565b91630e21459861246089610d4a565b61247561246f60098a01610d89565b9a610d76565b9261248d61248560028b01610744565b988a01610744565b863b156102dd578a988e988a966124a360405190565b9e8f9b8c9a8b9960e01b8a528901976124bb986122bb565b03925af1928315611c34576124ea93612532575b505b6124d961312f565b6124e4856008611815565b01610d60565b9061252161251b61135d7f178628f7ff4676620a68382587f11f3ab918961698248eac5fd3872b3db42e3c95610348565b92610e63565b9261252b60405190565b8080611c09565b61254890833d8511611c2d57611c1f8183610aa5565b386124cf565b9650919450506002838301946125648287611582565b61258d7f00000000000000000000000000000000000000000000000000000000000000006105f5565b9063dceb5be09261259d88610d4a565b936125b86125b061246f60098a01610d89565b928801610744565b946125c560018901610744565b96853b156102dd5789978d9789956125dc60405190565b9d8e9a8b998a9860e01b89528801966125f49761228f565b03925af1928315611c34576124ea9361260e575b506124d1565b61262490833d8511611c2d57611c1f8183610aa5565b38612608565b61125b9061263760405190565b7fa6751d61000000000000000000000000000000000000000000000000000000008152918291820190565b61125b8261266f60405190565b7ff918aff3000000000000000000000000000000000000000000000000000000008152918291820190565b6126bb915060203d81116126c1575b6126b38183610aa5565b81019061227b565b38612373565b503d6126a9565b906102ef91612259565b9081526040810192916102ef9160200190610890565b6127117f00000000000000000000000000000000000000000000000000000000000000006105f5565b339163ed67c91b91803b156102dd576127406000809461274b61273360405190565b9788968795869460e01b90565b8452600484016126d2565b03925af18015611c345761275c5750565b6102ef906000611c1f8183610aa5565b6102ef9061277b6111c4610547565b6102ef9060036115f9565b6102ef9061276c565b6127a66103059161279e600090565b506007610725565b5490565b60016127c3610305926127bb600090565b50600561116b565b015490565b67ffffffffffffffff8111610ae55760208091020190565b906127f26127ed836127c8565b610aea565b918252565b369037565b906102ef61281261280c846127e0565b936127c8565b7fffffffffffffffffffffffffffffffffffffffffffffffffffffffffffffffe001602084016127f7565b90612846825190565b811015610427576020809102010190565b9092909161286e60016104b860605b95600561116b565b92612877845490565b9081861015612902575084906128906103058385611df5565b8111156128f2575050915b6128a4836127fc565b9182906000955b855b8710156128e9576128e16128db826120a06128ce6104636128ad968a610404565b6128d88c8b61283d565b52565b97611843565b9690506128ab565b50935093505050565b6128fc9250611415565b9161289b565b93505050915090565b60026127c3610305926127bb600090565b9092909161292f60026104b86060612866565b92612938845490565b9081861015612902575084906129516103058385611df5565b811115612997575050915b612965836127fc565b9182906000955b855b8710156128e95761298f6128db826120a06128ce61046361296e968a610404565b96905061296c565b6129a19250611415565b9161295c565b916060916008926129b6845490565b9081861015612902575084906129cf6103058385611df5565b811115612a15575050915b6129e3836127fc565b9182906000955b855b8710156128e957612a0d6128db826120a06128ce6104636129ec968a610404565b9690506129ea565b612a1f9250611415565b916129da565b610305916000612a3a611eee936127bb600090565b01610725565b906119456114c86113e292612a53600090565b50612aaa565b612a6c612a666103059290565b60e01b90565b7fffffffff000000000000000000000000000000000000000000000000000000001690565b61030890612a59565b6020810192916102ef9190612a91565b90600091612aba61121482612d0e565b612d0757600090612acd61128e836114b2565b612ad6826105d3565b14612cff57612aec612ae7826105f5565b6105f5565b612b2060206301ffc9a79263d9b67a2690612b0660405190565b8080958194612b158960e01b90565b835260048301612a9a565b03915afa60009181612cdf575b50612ba55750509060019182612b4257505050565b6020612b53612ae7612b62936105f5565b6318160ddd9061235260405190565b825260049082905afa9081612b89575b50612b845750612b7e57565b60039150565b925050565b612ba09060203d81116126c1576126b38183610aa5565b612b72565b15612bb35750600293505050565b612bd36020612bc4612ae7856105f5565b6380ac58cd90612b0660405190565b03915afa60009181612cbf575b50612bf157505050506001612b7e57565b15612bff5750600193505050565b6020612c3091612c11612ae7856105f5565b612b156336372b0792612c2360405190565b9586948593849360e01b90565b03915afa60009181612c9f575b50612c4b5750505060039150565b612c53575050565b6020612b53612ae7612c64936105f5565b825260049082905afa9081612c83575b50612c7f5750612b7e565b9150565b612c9a9060203d81116126c1576126b38183610aa5565b612c74565b612cb891925060203d8111611c7757611c6a8183610aa5565b9038612c3d565b612cd891925060203d8111611c7757611c6a8183610aa5565b9038612be0565b612cf891925060203d8111611c7757611c6a8183610aa5565b9038612b2d565b506003925050565b5060039150565b3b612d1c6114406000610348565b1190565b610d446103056103059290565b91936118a5612d50929461189e6103059761189460a08801986000890190610890565b60808183039101526000815260200190565b94919293600095612d7287612d20565b60ff821603612dd657505060209394612d90612ae7612da3936105f5565b92612dae6323b872dd91611fea60405190565b8552600485016114f6565b03925af18015611c3457612dbf5750565b6111d39060203d8111611c7757611c6a8183610aa5565b612dee612de7600196959396612d20565b9160ff1690565b03612e475750612ae7612e00916105f5565b6342842e0e813b156102dd5785612da391612e1f8296611fea60405190565b03925af18015611c3457612e31575050565b816102ef92903d10611c2d57611c1f8183610aa5565b9290612ae7612e55916105f5565b9063f242432a93823b156102dd578694612e1f8692612e779461203360405190565b865260048601612d2d565b906102ef91612e926111c4610547565b906102ef91612ef8565b906102ef91612e82565b6103056060610aea565b6102ef91906116a290604090600290612ec98185875190565b61176a600182016116a2602088015190565b906102ef91612eb0565b9081526040810192916102ef9160200152565b612f5d816002612f57612f0a86613137565b6001612f52612f1d856111ad8585610725565b612f43612f28612ea6565b91612f318c8452565b612f3c896020850152565b6040830152565b612f4d8784610725565b612edb565b610725565b016115f9565b612f74612f6d6120a06002610744565b60026115f9565b612f7e6002610744565b612fa87f2a31efc7e9b3f67e8cd108d5980ce3d6ac332ef092f12c5f1d748a7dfdf48f0692610348565b92612fbe612fb560405190565b92839283612ee5565b0390a2565b612fce6111c4610547565b6102ef61304a565b6102ef916000916117fc565b600060026102ef92612ff683808301612fd6565b6130038360018301612fd6565b01612fd6565b9060000361301a576102ef90612fe2565b61152c565b8015611422577fffffffffffffffffffffffffffffffffffffffffffffffffffffffffffffffff0190565b6130546002610744565b60009061306361144083610348565b146131045760016130bb613075610355565b926130b661308860026111ad8787610725565b84612f5261309b856111ad85809a610725565b976002612f576130af826111ad8888610725565b9285610725565b613009565b6130d0612f6d6130cb6002610744565b61301f565b6130da6002610744565b612fa87fe26e44b49401e2c8d21cfcb6628ae520c5a95ebd3b087893b427af4fa3d4e0d992610348565b6040517fe059cc52000000000000000000000000000000000000000000000000000000008152600490fd5b6102ef612fc3565b90613140610355565b90815b600181841480156131b6575b80613174575b61316d576111ad61316892600292610725565b613143565b5092509050565b5061318761030560026111ad8585610725565b84148061315557506131af61030560006111ad6131a960026111ad8888610725565b85610725565b8510613155565b506131c961030560006111ad8585610725565b85101561314f565b60006001916131e4836111ad8382610725565b6131f16114406000610348565b1461324b578291613200610355565b90925b61320f575b5050905090565b61321e60026111ad8387610725565b8214613246579061323e61323860026111ad879586610725565b93611843565b929091613203565b613208565b6040517f1d7331b5000000000000000000000000000000000000000000000000000000008152600490fd5b61327e612ea6565b600080825260208201819052604082015290565b610305613276565b60005b8281106132a957505050565b6020906132b4613292565b818401520161329d565b906102ef6132ce61280c846127e0565b7fffffffffffffffffffffffffffffffffffffffffffffffffffffffffffffffe0016020840161329a565b906102ef613331600261330a612ea6565b9461331b61331782610744565b8752565b6111ad61332a60018301610744565b6020880152565b6040840152565b610305906132f9565b61335361334e6002610744565b6132be565b906001808361336860026111ad6131a9610355565b906000935b613378575b50505050565b6133856103056002610744565b8410156133d4576133cd6133c760026111ad856133ab6133a6899889610725565b613338565b6133b58a8861283d565b526133c0898761283d565b5086610725565b94611843565b939161336d565b613372565b91906060926133e7306105f5565b9161341f60206306201a3a60019561341161340760026111ad898b610725565b92612c2360405190565b835260048301526024820190565b03915afa600091816134f7575b5061343a575050506102ef57565b909194506134486002610744565b6134586114406103058486611df5565b11156134dc575081905b61346b816132be565b61347b60026111ad839886610725565b916000945b61348c575b5050505050565b808510156134d7576134d06134ca60026111ad866134ae6133a68a998a610725565b6134b88b8961283d565b526134c38a8861283d565b5087610725565b95611843565b9492613480565b613485565b6134f091506134eb6002610744565b611415565b8190613462565b61351091925060203d81116126c1576126b38183610aa5565b903861342c565b61030560006111ad6001611a8e60026111ad611a4a610355565b61030560026111ad6001611a8e61035556fea2646970667358221220c8f71665fb8d12183fb093072bcbe4e0cc4619557d549c72df18173b59660bdb64736f6c63430008140033",
  "linkReferences": {},
  "deployedLinkReferences": {},
  "chainId": 80001,
  "address": "0x4628cf0E6D3a6c6C7aEC4287079Db67010bC215A"
}