{
  "_format": "hh-sol-artifact-1",
  "contractName": "RaffleVault",
  "sourceName": "contracts/vaults/RaffleVault.sol",
  "abi": [
    {
      "inputs": [
        {
          "internalType": "contract IERC20",
          "name": "_fusdt",
          "type": "address"
        },
        {
          "internalType": "address",
          "name": "_teamVault",
          "type": "address"
        },
        {
          "internalType": "address",
          "name": "_rewardVault",
          "type": "address"
        }
      ],
      "stateMutability": "nonpayable",
      "type": "constructor"
    },
    {
      "inputs": [],
      "name": "AccessControlBadConfirmation",
      "type": "error"
    },
    {
      "inputs": [
        {
          "internalType": "address",
          "name": "account",
          "type": "address"
        },
        {
          "internalType": "bytes32",
          "name": "neededRole",
          "type": "bytes32"
        }
      ],
      "name": "AccessControlUnauthorizedAccount",
      "type": "error"
    },
    {
      "inputs": [],
      "name": "InsufficientBalance",
      "type": "error"
    },
    {
      "inputs": [],
      "name": "OnlyOnce",
      "type": "error"
    },
    {
      "anonymous": false,
      "inputs": [
        {
          "indexed": true,
          "internalType": "address",
          "name": "winner",
          "type": "address"
        },
        {
          "indexed": true,
          "internalType": "enum RaffleStructs.PrizeType",
          "name": "prizeType",
          "type": "uint8"
        },
        {
          "indexed": false,
          "internalType": "address",
          "name": "prize",
          "type": "address"
        },
        {
          "indexed": false,
          "internalType": "uint256",
          "name": "prizeId",
          "type": "uint256"
        },
        {
          "indexed": false,
          "internalType": "uint256",
          "name": "prizeAmount",
          "type": "uint256"
        }
      ],
      "name": "Claim",
      "type": "event"
    },
    {
      "anonymous": false,
      "inputs": [
        {
          "indexed": true,
          "internalType": "address",
          "name": "creator",
          "type": "address"
        },
        {
          "indexed": true,
          "internalType": "uint256",
          "name": "raffleId",
          "type": "uint256"
        },
        {
          "indexed": false,
          "internalType": "uint256",
          "name": "amount",
          "type": "uint256"
        }
      ],
      "name": "CollectFee",
      "type": "event"
    },
    {
      "anonymous": false,
      "inputs": [
        {
          "indexed": true,
          "internalType": "address",
          "name": "user",
          "type": "address"
        },
        {
          "indexed": true,
          "internalType": "uint256",
          "name": "raffleId",
          "type": "uint256"
        },
        {
          "indexed": false,
          "internalType": "uint256",
          "name": "amount",
          "type": "uint256"
        }
      ],
      "name": "DepositEntryFee",
      "type": "event"
    },
    {
      "anonymous": false,
      "inputs": [
        {
          "indexed": true,
          "internalType": "address",
          "name": "creator",
          "type": "address"
        },
        {
          "indexed": true,
          "internalType": "enum RaffleStructs.PrizeType",
          "name": "prizeType",
          "type": "uint8"
        },
        {
          "indexed": false,
          "internalType": "uint256",
          "name": "id",
          "type": "uint256"
        },
        {
          "indexed": false,
          "internalType": "address",
          "name": "prize",
          "type": "address"
        },
        {
          "indexed": false,
          "internalType": "uint256",
          "name": "prizeAmount",
          "type": "uint256"
        },
        {
          "indexed": false,
          "internalType": "uint256",
          "name": "_prizeId",
          "type": "uint256"
        }
      ],
      "name": "DepositPrize",
      "type": "event"
    },
    {
      "anonymous": false,
      "inputs": [
        {
          "indexed": true,
          "internalType": "address",
          "name": "user",
          "type": "address"
        },
        {
          "indexed": true,
          "internalType": "uint256",
          "name": "raffleId",
          "type": "uint256"
        },
        {
          "indexed": false,
          "internalType": "uint256",
          "name": "amount",
          "type": "uint256"
        }
      ],
      "name": "RefundEntryFee",
      "type": "event"
    },
    {
      "anonymous": false,
      "inputs": [
        {
          "indexed": true,
          "internalType": "address",
          "name": "creator",
          "type": "address"
        },
        {
          "indexed": true,
          "internalType": "enum RaffleStructs.PrizeType",
          "name": "prizeType",
          "type": "uint8"
        },
        {
          "indexed": false,
          "internalType": "address",
          "name": "prize",
          "type": "address"
        },
        {
          "indexed": false,
          "internalType": "uint256",
          "name": "prizeId",
          "type": "uint256"
        },
        {
          "indexed": false,
          "internalType": "uint256",
          "name": "prizeAmount",
          "type": "uint256"
        },
        {
          "indexed": false,
          "internalType": "uint256",
          "name": "deposit",
          "type": "uint256"
        }
      ],
      "name": "RefundPrize",
      "type": "event"
    },
    {
      "anonymous": false,
      "inputs": [
        {
          "indexed": true,
          "internalType": "bytes32",
          "name": "role",
          "type": "bytes32"
        },
        {
          "indexed": true,
          "internalType": "bytes32",
          "name": "previousAdminRole",
          "type": "bytes32"
        },
        {
          "indexed": true,
          "internalType": "bytes32",
          "name": "newAdminRole",
          "type": "bytes32"
        }
      ],
      "name": "RoleAdminChanged",
      "type": "event"
    },
    {
      "anonymous": false,
      "inputs": [
        {
          "indexed": true,
          "internalType": "bytes32",
          "name": "role",
          "type": "bytes32"
        },
        {
          "indexed": true,
          "internalType": "address",
          "name": "account",
          "type": "address"
        },
        {
          "indexed": true,
          "internalType": "address",
          "name": "sender",
          "type": "address"
        }
      ],
      "name": "RoleGranted",
      "type": "event"
    },
    {
      "anonymous": false,
      "inputs": [
        {
          "indexed": true,
          "internalType": "bytes32",
          "name": "role",
          "type": "bytes32"
        },
        {
          "indexed": true,
          "internalType": "address",
          "name": "account",
          "type": "address"
        },
        {
          "indexed": true,
          "internalType": "address",
          "name": "sender",
          "type": "address"
        }
      ],
      "name": "RoleRevoked",
      "type": "event"
    },
    {
      "inputs": [],
      "name": "BPS",
      "outputs": [
        {
          "internalType": "uint256",
          "name": "",
          "type": "uint256"
        }
      ],
      "stateMutability": "view",
      "type": "function"
    },
    {
      "inputs": [],
      "name": "DEFAULT_ADMIN_ROLE",
      "outputs": [
        {
          "internalType": "bytes32",
          "name": "",
          "type": "bytes32"
        }
      ],
      "stateMutability": "view",
      "type": "function"
    },
    {
      "inputs": [],
      "name": "FUSDT",
      "outputs": [
        {
          "internalType": "contract IERC20",
          "name": "",
          "type": "address"
        }
      ],
      "stateMutability": "view",
      "type": "function"
    },
    {
      "inputs": [],
      "name": "MANAGER",
      "outputs": [
        {
          "internalType": "bytes32",
          "name": "",
          "type": "bytes32"
        }
      ],
      "stateMutability": "view",
      "type": "function"
    },
    {
      "inputs": [
        {
          "internalType": "uint256",
          "name": "_raffleId",
          "type": "uint256"
        }
      ],
      "name": "getFUSDTDepositByRaffleId",
      "outputs": [
        {
          "internalType": "uint256",
          "name": "",
          "type": "uint256"
        }
      ],
      "stateMutability": "view",
      "type": "function"
    },
    {
      "inputs": [
        {
          "internalType": "uint256",
          "name": "_raffleId",
          "type": "uint256"
        }
      ],
      "name": "getIsPrizeMoved",
      "outputs": [
        {
          "internalType": "bool",
          "name": "",
          "type": "bool"
        }
      ],
      "stateMutability": "view",
      "type": "function"
    },
    {
      "inputs": [
        {
          "internalType": "uint256",
          "name": "_raffleId",
          "type": "uint256"
        },
        {
          "internalType": "address",
          "name": "_user",
          "type": "address"
        }
      ],
      "name": "getRefundTakenByUser",
      "outputs": [
        {
          "internalType": "bool",
          "name": "",
          "type": "bool"
        }
      ],
      "stateMutability": "view",
      "type": "function"
    },
    {
      "inputs": [
        {
          "internalType": "bytes32",
          "name": "role",
          "type": "bytes32"
        }
      ],
      "name": "getRoleAdmin",
      "outputs": [
        {
          "internalType": "bytes32",
          "name": "",
          "type": "bytes32"
        }
      ],
      "stateMutability": "view",
      "type": "function"
    },
    {
      "inputs": [
        {
          "internalType": "uint256",
          "name": "_raffleId",
          "type": "uint256"
        }
      ],
      "name": "getTotalEntryFeeByRaffleId",
      "outputs": [
        {
          "internalType": "uint256",
          "name": "",
          "type": "uint256"
        }
      ],
      "stateMutability": "view",
      "type": "function"
    },
    {
      "inputs": [
        {
          "internalType": "uint256",
          "name": "_raffleId",
          "type": "uint256"
        },
        {
          "internalType": "address",
          "name": "_user",
          "type": "address"
        }
      ],
      "name": "getUserEntryFeeByRaffleId",
      "outputs": [
        {
          "internalType": "uint256",
          "name": "",
          "type": "uint256"
        }
      ],
      "stateMutability": "view",
      "type": "function"
    },
    {
      "inputs": [
        {
          "internalType": "bytes32",
          "name": "role",
          "type": "bytes32"
        },
        {
          "internalType": "address",
          "name": "account",
          "type": "address"
        }
      ],
      "name": "grantRole",
      "outputs": [],
      "stateMutability": "nonpayable",
      "type": "function"
    },
    {
      "inputs": [
        {
          "internalType": "bytes32",
          "name": "role",
          "type": "bytes32"
        },
        {
          "internalType": "address",
          "name": "account",
          "type": "address"
        }
      ],
      "name": "hasRole",
      "outputs": [
        {
          "internalType": "bool",
          "name": "",
          "type": "bool"
        }
      ],
      "stateMutability": "view",
      "type": "function"
    },
    {
      "inputs": [
        {
          "internalType": "address",
          "name": "",
          "type": "address"
        },
        {
          "internalType": "address",
          "name": "",
          "type": "address"
        },
        {
          "internalType": "uint256[]",
          "name": "",
          "type": "uint256[]"
        },
        {
          "internalType": "uint256[]",
          "name": "",
          "type": "uint256[]"
        },
        {
          "internalType": "bytes",
          "name": "",
          "type": "bytes"
        }
      ],
      "name": "onERC1155BatchReceived",
      "outputs": [
        {
          "internalType": "bytes4",
          "name": "",
          "type": "bytes4"
        }
      ],
      "stateMutability": "nonpayable",
      "type": "function"
    },
    {
      "inputs": [
        {
          "internalType": "address",
          "name": "",
          "type": "address"
        },
        {
          "internalType": "address",
          "name": "",
          "type": "address"
        },
        {
          "internalType": "uint256",
          "name": "",
          "type": "uint256"
        },
        {
          "internalType": "uint256",
          "name": "",
          "type": "uint256"
        },
        {
          "internalType": "bytes",
          "name": "",
          "type": "bytes"
        }
      ],
      "name": "onERC1155Received",
      "outputs": [
        {
          "internalType": "bytes4",
          "name": "",
          "type": "bytes4"
        }
      ],
      "stateMutability": "nonpayable",
      "type": "function"
    },
    {
      "inputs": [
        {
          "internalType": "address",
          "name": "",
          "type": "address"
        },
        {
          "internalType": "address",
          "name": "",
          "type": "address"
        },
        {
          "internalType": "uint256",
          "name": "",
          "type": "uint256"
        },
        {
          "internalType": "bytes",
          "name": "",
          "type": "bytes"
        }
      ],
      "name": "onERC721Received",
      "outputs": [
        {
          "internalType": "bytes4",
          "name": "",
          "type": "bytes4"
        }
      ],
      "stateMutability": "nonpayable",
      "type": "function"
    },
    {
      "inputs": [
        {
          "internalType": "uint256",
          "name": "",
          "type": "uint256"
        }
      ],
      "name": "prizeInfoByRaffleId",
      "outputs": [
        {
          "internalType": "address",
          "name": "creator",
          "type": "address"
        },
        {
          "internalType": "enum RaffleStructs.PrizeType",
          "name": "prizeType",
          "type": "uint8"
        },
        {
          "internalType": "address",
          "name": "prize",
          "type": "address"
        },
        {
          "internalType": "uint256",
          "name": "prizeAmount",
          "type": "uint256"
        },
        {
          "internalType": "uint256",
          "name": "prizeTokenId",
          "type": "uint256"
        }
      ],
      "stateMutability": "view",
      "type": "function"
    },
    {
      "inputs": [
        {
          "internalType": "enum RaffleStructs.PrizeType",
          "name": "_prizeType",
          "type": "uint8"
        },
        {
          "internalType": "uint256",
          "name": "_raffleId",
          "type": "uint256"
        },
        {
          "internalType": "address",
          "name": "_creator",
          "type": "address"
        },
        {
          "internalType": "address",
          "name": "_prize",
          "type": "address"
        },
        {
          "internalType": "uint256",
          "name": "_prizeId",
          "type": "uint256"
        },
        {
          "internalType": "uint256",
          "name": "_prizeAmount",
          "type": "uint256"
        },
        {
          "internalType": "uint256",
          "name": "_lotteryRound",
          "type": "uint256"
        }
      ],
      "name": "refundDepositAndPrize",
      "outputs": [],
      "stateMutability": "nonpayable",
      "type": "function"
    },
    {
      "inputs": [
        {
          "internalType": "uint256",
          "name": "_raffleId",
          "type": "uint256"
        },
        {
          "internalType": "address",
          "name": "_user",
          "type": "address"
        }
      ],
      "name": "refundEntryFee",
      "outputs": [],
      "stateMutability": "nonpayable",
      "type": "function"
    },
    {
      "inputs": [
        {
          "internalType": "bytes32",
          "name": "role",
          "type": "bytes32"
        },
        {
          "internalType": "address",
          "name": "callerConfirmation",
          "type": "address"
        }
      ],
      "name": "renounceRole",
      "outputs": [],
      "stateMutability": "nonpayable",
      "type": "function"
    },
    {
      "inputs": [
        {
          "internalType": "bytes32",
          "name": "role",
          "type": "bytes32"
        },
        {
          "internalType": "address",
          "name": "account",
          "type": "address"
        }
      ],
      "name": "revokeRole",
      "outputs": [],
      "stateMutability": "nonpayable",
      "type": "function"
    },
    {
      "inputs": [],
      "name": "rewardVault",
      "outputs": [
        {
          "internalType": "address",
          "name": "",
          "type": "address"
        }
      ],
      "stateMutability": "view",
      "type": "function"
    },
    {
      "inputs": [
        {
          "internalType": "uint256",
          "name": "_raffleId",
          "type": "uint256"
        },
        {
          "internalType": "address",
          "name": "_creator",
          "type": "address"
        },
        {
          "internalType": "enum RaffleStructs.PrizeType",
          "name": "_prizeType",
          "type": "uint8"
        },
        {
          "internalType": "address",
          "name": "_prize",
          "type": "address"
        },
        {
          "internalType": "uint256",
          "name": "_prizeAmount",
          "type": "uint256"
        },
        {
          "internalType": "uint256",
          "name": "_prizeId",
          "type": "uint256"
        },
        {
          "internalType": "uint256",
          "name": "_depositAmount",
          "type": "uint256"
        }
      ],
      "name": "saveDepositAndPrize",
      "outputs": [],
      "stateMutability": "nonpayable",
      "type": "function"
    },
    {
      "inputs": [
        {
          "internalType": "uint256",
          "name": "_raffleId",
          "type": "uint256"
        },
        {
          "internalType": "address",
          "name": "_user",
          "type": "address"
        },
        {
          "internalType": "uint256",
          "name": "_amount",
          "type": "uint256"
        }
      ],
      "name": "saveEntryFee",
      "outputs": [],
      "stateMutability": "nonpayable",
      "type": "function"
    },
    {
      "inputs": [
        {
          "internalType": "enum RaffleStructs.PrizeType",
          "name": "_prizeType",
          "type": "uint8"
        },
        {
          "internalType": "uint256",
          "name": "_raffleId",
          "type": "uint256"
        },
        {
          "internalType": "address",
          "name": "_creator",
          "type": "address"
        },
        {
          "internalType": "address",
          "name": "_prize",
          "type": "address"
        },
        {
          "internalType": "address",
          "name": "_to",
          "type": "address"
        },
        {
          "internalType": "uint256",
          "name": "_prizeId",
          "type": "uint256"
        },
        {
          "internalType": "uint256",
          "name": "_prizeAmount",
          "type": "uint256"
        },
        {
          "internalType": "uint256",
          "name": "_lotteryRound",
          "type": "uint256"
        }
      ],
      "name": "sendPrizeToWinner",
      "outputs": [],
      "stateMutability": "nonpayable",
      "type": "function"
    },
    {
      "inputs": [
        {
          "internalType": "address",
          "name": "_rewardVault",
          "type": "address"
        }
      ],
      "name": "setRewardVault",
      "outputs": [],
      "stateMutability": "nonpayable",
      "type": "function"
    },
    {
      "inputs": [
        {
          "components": [
            {
              "internalType": "uint16",
              "name": "teamTaxForSuccess",
              "type": "uint16"
            },
            {
              "internalType": "uint16",
              "name": "rewardTaxForSuccess",
              "type": "uint16"
            },
            {
              "internalType": "uint16",
              "name": "teamTaxForCancel",
              "type": "uint16"
            },
            {
              "internalType": "uint16",
              "name": "rewardTaxForCancel",
              "type": "uint16"
            }
          ],
          "internalType": "struct RaffleStructs.TaxInfo",
          "name": "_taxInfo",
          "type": "tuple"
        }
      ],
      "name": "setTaxes",
      "outputs": [],
      "stateMutability": "nonpayable",
      "type": "function"
    },
    {
      "inputs": [
        {
          "internalType": "address",
          "name": "_teamVault",
          "type": "address"
        }
      ],
      "name": "setTeamVault",
      "outputs": [],
      "stateMutability": "nonpayable",
      "type": "function"
    },
    {
      "inputs": [
        {
          "internalType": "bytes4",
          "name": "interfaceId",
          "type": "bytes4"
        }
      ],
      "name": "supportsInterface",
      "outputs": [
        {
          "internalType": "bool",
          "name": "",
          "type": "bool"
        }
      ],
      "stateMutability": "view",
      "type": "function"
    },
    {
      "inputs": [],
      "name": "taxInfo",
      "outputs": [
        {
          "internalType": "uint16",
          "name": "teamTaxForSuccess",
          "type": "uint16"
        },
        {
          "internalType": "uint16",
          "name": "rewardTaxForSuccess",
          "type": "uint16"
        },
        {
          "internalType": "uint16",
          "name": "teamTaxForCancel",
          "type": "uint16"
        },
        {
          "internalType": "uint16",
          "name": "rewardTaxForCancel",
          "type": "uint16"
        }
      ],
      "stateMutability": "view",
      "type": "function"
    },
    {
      "inputs": [],
      "name": "teamVault",
      "outputs": [
        {
          "internalType": "address",
          "name": "",
          "type": "address"
        }
      ],
      "stateMutability": "view",
      "type": "function"
    }
  ],
  "bytecode": "0x60a0604052346200004f576200001f6200001862000132565b9162000361565b604051612226620004fc823960805181818161056a015281816112fe015281816119160152611b32015261222690f35b600080fd5b634e487b7160e01b600052604160045260246000fd5b90601f01601f191681019081106001600160401b038211176200008c57604052565b62000054565b90620000a9620000a160405190565b92836200006a565b565b6001600160a01b031690565b90565b6001600160a01b0381165b036200004f57565b90505190620000a982620000ba565b6001600160a01b038116620000c5565b90505190620000a982620000dc565b90916060828403126200004f57620000b7620001188484620000cd565b93620001288160208601620000ec565b93604001620000ec565b620001556200272280380380620001498162000092565b928339810190620000fb565b909192565b906001600160a01b03905b9181191691161790565b620000b790620000ab906001600160a01b031682565b620000b7906200016f565b620000b79062000185565b90620001af620000b7620001b79262000190565b82546200015a565b9055565b620000b7608062000092565b620001d7620000b7620000b79290565b61ffff1690565b9061ffff9062000165565b620001d7620000b7620000b79261ffff1690565b9062000211620000b7620001b792620001e9565b8254620001de565b9063ffff00009060101b62000165565b906200023d620000b7620001b792620001e9565b825462000219565b9065ffff000000009060201b62000165565b906200026b620000b7620001b792620001e9565b825462000245565b9067ffff0000000000009060301b62000165565b906200029b620000b7620001b792620001e9565b825462000273565b620000a9916200030790606090620002c8620002c1825161ffff1690565b85620001fd565b620002e3620002dc602083015161ffff1690565b8562000229565b620002fe620002f7604083015161ffff1690565b8562000257565b015161ffff1690565b9062000287565b90620000a991620002a3565b620000b7620000b7620000b79290565b620000b77faf290d8680820aad922855f39b306097b20e28774d6c1ad35a20325630c3a02c6200031a565b620000b760006200031a565b6200037f9291620003779160805260016200019b565b60026200019b565b620003d76101f4620003cf620003bd60fa620003b7620003a9620003a2620001bb565b95620001c7565b61ffff168086526020860152565b620001c7565b61ffff16604083018190526060830152565b60056200030e565b62000403620003e56200032a565b620003f233809262000447565b50620003fd62000355565b62000447565b50565b905b600052602052604060002090565b90620004089062000190565b9060ff9062000165565b906200043f620000b7620001b792151590565b825462000422565b6200045b620004578383620004dc565b1590565b15620004d5576001916200048983620004838360006200047c878262000406565b0162000416565b6200042c565b3390620004c3620004bc620004bc7f2f8788117e7eff1d82e926ec794901d17c78024a50270940304540a733656f0d9590565b9262000190565b92620004ce60405190565b600090a490565b5050600090565b620000b791620004f4916200047c6000918262000406565b5460ff169056fe6080604052600436101561001257600080fd5b60003560e01c806301ffc9a7146101f25780630e214598146101ed578063150b7a02146101e85780631516bbc4146101e35780631b2df850146101de57806323c35834146101d9578063248a9ca3146101d4578063249d39e9146101cf5780632e03491b146101ca5780632f2ff15d146101c557806336568abe146101c05780633a2c6777146101bb5780633ac837ea146101b6578063483fe77b146101b157806350e2630f146101ac57806357430779146101a75780638125dd10146101a25780638ab5212b1461019d57806391d1485414610198578063976cde3a14610193578063a217fddf1461018e578063bc197c8114610189578063d547741f14610184578063dceb5be01461017f578063e934da8c1461017a578063ed67c91b14610175578063f23a6e6114610170578063f2bb379d1461016b578063f802c894146101665763fa1383130361022257610e4f565b610e30565b610de5565b610dc6565b610d6c565b610d3b565b610c53565b610bd4565b610bb5565b61097b565b610951565b610913565b6108f8565b6108d4565b6108b8565b61089d565b610884565b610823565b610681565b610644565b61062b565b61060f565b6105d1565b6105a3565b610551565b6104d7565b610476565b610410565b610365565b610251565b7fffffffff0000000000000000000000000000000000000000000000000000000081165b0361022257565b600080fd5b90503590610234826101f7565b565b906020828203126102225761024a91610227565b90565b9052565b346102225761027e61026c610267366004610236565b6120fc565b60405191829182901515815260200190565b0390f35b6004111561022257565b9050359061023482610282565b8061021b565b9050359061023482610299565b73ffffffffffffffffffffffffffffffffffffffff1690565b73ffffffffffffffffffffffffffffffffffffffff811661021b565b90503590610234826102c5565b91906101008382031261022257610305818461028c565b92610313826020830161029f565b9261032183604084016102e1565b9261032f81606085016102e1565b9261033d82608083016102e1565b9261024a61034e8460a0850161029f565b9361035c8160c0860161029f565b9360e00161029f565b34610222576103876103783660046102ee565b9695909594919493929361158c565b604051005b909182601f830112156102225781359167ffffffffffffffff831161022257602001926001830284011161022257565b90608082820312610222576103d181836102e1565b926103df82602085016102e1565b926103ed836040830161029f565b92606082013567ffffffffffffffff81116102225761040c920161038c565b9091565b346102225761027e61042f6104263660046103bc565b939290926120e1565b604051918291827fffffffff00000000000000000000000000000000000000000000000000000000909116815260200190565b906020828203126102225761024a916102e1565b3461022257610387610489366004610462565b611dbf565b600091031261022257565b61024a61024a61024a9290565b61024a7faf290d8680820aad922855f39b306097b20e28774d6c1ad35a20325630c3a02c610499565b61024a6104a6565b34610222576104e736600461048e565b61027e6104f26104cf565b6040515b9182918290815260200190565b6102ac61024a61024a9273ffffffffffffffffffffffffffffffffffffffff1690565b61024a90610503565b61024a90610526565b61024d9061052f565b6020810192916102349190610538565b346102225761056136600461048e565b6040518061027e7f000000000000000000000000000000000000000000000000000000000000000082610541565b906020828203126102225761024a9161029f565b346102225761027e6104f26105b936600461058f565b610eac565b61024a612710610499565b61024a6105be565b34610222576105e136600461048e565b61027e6104f26105c9565b91906040838203126102225761024a90610606818561029f565b936020016102e1565b346102225761027e61026c6106253660046105ec565b906120b6565b346102225761038761063e3660046105ec565b90610eee565b34610222576103876106573660046105ec565b90610fab565b61024a916008021c6102ac565b9061024a915461065d565b61024a6000600261066a565b346102225761069136600461048e565b61027e61069c610675565b6040519182918273ffffffffffffffffffffffffffffffffffffffff909116815260200190565b906106cd90610499565b600052602052604060002090565b61024a906102ac565b61024a90546106db565b61024a9060a01c5b60ff1690565b61024a90546106ee565b61024a9081565b61024a9054610706565b6107229060036106c3565b61072b816106e4565b91610735826106fc565b91610742600182016106e4565b9161024a60036107546002850161070d565b930161070d565b7f4e487b7100000000000000000000000000000000000000000000000000000000600052602160045260246000fd5b6004111561079457565b61075b565b906102348261078a565b61024a90610799565b61024d906107a3565b909594926102349461081861081f926107fb6080966107f160a088019c600089019073ffffffffffffffffffffffffffffffffffffffff169052565b60208701906107ac565b73ffffffffffffffffffffffffffffffffffffffff166040850152565b6060830152565b0152565b346102225761027e61083e61083936600461058f565b610717565b9161084b95939560405190565b958695866107b5565b90916060828403126102225761024a61086d848461029f565b9361087b81602086016102e1565b9360400161029f565b3461022257610387610897366004610854565b91611c57565b346102225761027e61026c6108b336600461058f565b6120cb565b346102225761027e6104f26108ce3660046105ec565b906120a1565b34610222576103876108e7366004610462565b611de2565b61024a6000600161066a565b346102225761090836600461048e565b61027e61069c6108ec565b346102225761027e61026c6109293660046105ec565b90610e8d565b908160809103126102225790565b906080828203126102225761024a9161092f565b346102225761038761096436600461093d565b611d9c565b61024a6000610499565b61024a610969565b346102225761098b36600461048e565b61027e6104f2610973565b7f4e487b7100000000000000000000000000000000000000000000000000000000600052604160045260246000fd5b90601f017fffffffffffffffffffffffffffffffffffffffffffffffffffffffffffffffe016810190811067ffffffffffffffff821117610a0557604052565b610996565b90610234610a1760405190565b92836109c5565b67ffffffffffffffff8111610a055760208091020190565b90929192610a4b610a4682610a1e565b610a0a565b938185526020808601920283019281841161022257915b838310610a6f5750505050565b60208091610a7d848661029f565b815201920191610a62565b9080601f830112156102225781602061024a93359101610a36565b67ffffffffffffffff8111610a0557602090601f017fffffffffffffffffffffffffffffffffffffffffffffffffffffffffffffffe0160190565b90826000939282370152565b90929192610afa610a4682610aa3565b938185526020850190828401116102225761023492610ade565b9080601f830112156102225781602061024a93359101610aea565b91909160a08184031261022257610b4683826102e1565b92610b5481602084016102e1565b92604083013567ffffffffffffffff81116102225782610b75918501610a88565b92606081013567ffffffffffffffff81116102225783610b96918301610a88565b92608082013567ffffffffffffffff81116102225761024a9201610b14565b346102225761027e61042f610bcb366004610b2f565b9392909261116b565b3461022257610387610be73660046105ec565b90610fa1565b60e08183031261022257610c01828261028c565b92610c0f836020840161029f565b92610c1d81604085016102e1565b92610c2b82606083016102e1565b9261024a610c3c846080850161029f565b93610c4a8160a0860161029f565b9360c00161029f565b3461022257610387610c66366004610bed565b95949094939193611ac6565b61024a905b61ffff1690565b61024a9054610c72565b61024a9060101c610c77565b61024a9054610c88565b61024a9060201c610c77565b61024a9054610c9e565b61024a9060301c610c77565b61024a9054610cb4565b600590610cd682610c7e565b91610ce081610c94565b9161024a6000610cef84610caa565b9301610cc0565b610d3161023494610d26606094989795610d1b608086019a600087019061ffff169052565b61ffff166020850152565b61ffff166040830152565b019061ffff169052565b3461022257610d4b36600461048e565b61027e610d56610cca565b90610d6394929460405190565b94859485610cf6565b3461022257610387610d7f3660046105ec565b90611bd6565b91909160a08184031261022257610d9c83826102e1565b92610daa81602084016102e1565b92610db8826040850161029f565b92610b96836060830161029f565b346102225761027e61042f610ddc366004610d85565b93929092611150565b346102225761027e6104f2610dfb36600461058f565b612077565b60e08183031261022257610e14828261029f565b92610e2283602084016102e1565b92610c1d816040850161028c565b3461022257610387610e43366004610e00565b9594909493919361184a565b346102225761027e6104f2610e6536600461058f565b612090565b906106cd565b906106cd9061052f565b61024a906106f6565b61024a9054610e7a565b61024a91610ea791610ea160009182610e6a565b01610e70565b610e83565b6001610ec561024a92610ebd600090565b506000610e6a565b0161070d565b9061023491610ee1610edc82610eac565b610ef8565b90610eeb9161102f565b50565b9061023491610ecb565b610234903390610f2d565b73ffffffffffffffffffffffffffffffffffffffff90911681526040810192916102349160200152565b90610f3f610f3b8284610e8d565b1590565b610f47575050565b610f82610f5360405190565b9283927fe2517d3f00000000000000000000000000000000000000000000000000000000845260048401610f03565b0390fd5b9061023491610f97610edc82610eac565b90610eeb916110ab565b9061023491610f86565b90610fb5336102ac565b73ffffffffffffffffffffffffffffffffffffffff821603610fda57610eeb916110ab565b6040517f6697b232000000000000000000000000000000000000000000000000000000008152600490fd5b9060ff905b9181191691161790565b9061102461024a61102b92151590565b8254611005565b9055565b61103c610f3b8383610e8d565b156110a45760019161105d83611058836000610ea18782610e6a565b611014565b339061109361108d61108d7f2f8788117e7eff1d82e926ec794901d17c78024a50270940304540a733656f0d9590565b9261052f565b9261109d60405190565b600090a490565b5050600090565b906110b68183610e8d565b156110a4576110cf60006110588382610ea18782610e6a565b33906110ff61108d61108d7ff6391f5c32d9c69d2a47ea670b442974b53935d1edc7fd64eb21e047a839171b9590565b9261110960405190565b600090a4600190565b61112b61112561024a9263ffffffff1690565b60e01b90565b7fffffffff000000000000000000000000000000000000000000000000000000001690565b505050505061115d600090565b5061024a63f23a6e61611112565b5050505050611178600090565b5061024a63bc197c81611112565b906102349796959493929161119c610edc6104a6565b61126f565b61024a61024a61024a9261ffff1690565b7f4e487b7100000000000000000000000000000000000000000000000000000000600052601160045260246000fd5b919082018092116111ee57565b6111b2565b80151561021b565b90505190610234826111f3565b906020828203126102225761024a916111fb565b6040513d6000823e3d90fd5b9081526040810192916102349160200152565b73ffffffffffffffffffffffffffffffffffffffff909116815260608101939261023492909160409161081f906020830152565b92959391949095600461128561024a89836106c3565b908082019061129382610e83565b611554576112a360018093611014565b816112f36112ed6112e26112b68761070d565b60056112dc6112d66112d06112ca84610c7e565b93610c94565b926111a1565b916111a1565b91611e49565b92919490970161070d565b906111e1565b9b61134d60206113227f000000000000000000000000000000000000000000000000000000000000000061052f565b9361133163a9059cbb976106e4565b60405193849283926113438b60e01b90565b8452898401610f03565b03816000875af180156114eb57611538575b5061137060208661133160026106e4565b03816000875af180156114eb5761151c575b5061139861139361139360026106e4565b61052f565b9063bc300b7791803b15610222576113c6600080946113d06113b960405190565b9a8b968795869460e01b90565b84528a8401611228565b03925af180156114eb5760006020946114098f8e98611400956114f0575b506040515b9889978896879560e01b90565b85528401610f03565b03925af180156114eb576114bf575b5061142e85838584611429896107a3565b611f22565b61147761146461145e7f3d39fe5944bbeb5d33825c47767b16cac4b4b1f01c4569ed4e4414379c6c4fa69561052f565b956107a3565b9561146e60405190565b9384938461123b565b0390a36114ba6114b06114aa7f5b5b4c58fded589766d5845c3cddd53ffcb18bcb7e21933ec1858dddafb2d9a59361052f565b93610499565b936104f660405190565b0390a3565b6114df9060203d81116114e4575b6114d781836109c5565b810190611208565b611418565b503d6114cd565b61121c565b61150f90853d8111611515575b61150781836109c5565b81019061048e565b386113ee565b503d6114fd565b6115339060203d81116114e4576114d781836109c5565b611382565b61154f9060203d81116114e4576114d781836109c5565b61135f565b610f829061156160405190565b7f83ad52e0000000000000000000000000000000000000000000000000000000008152918291820190565b9061023497969594939291611186565b906102349695949392916115b1610edc6104a6565b611763565b907fffffffffffffffffffffffffffffffffffffffffffffffffffffffffffffffff9061100a565b906115ee61024a61102b92610499565b82546115b6565b61024a60a0610a0a565b9061024d90610799565b9073ffffffffffffffffffffffffffffffffffffffff9061100a565b9061163561024a61102b9261052f565b8254611609565b61024a9051610799565b9074ff00000000000000000000000000000000000000009060a01b61100a565b9061167661024a61102b926107a3565b8254611646565b6102349190611709906080906003906116c9816116b76116b1885173ffffffffffffffffffffffffffffffffffffffff1690565b82611625565b6116c36020880161163c565b90611666565b6116f7600182016116f1604088015173ffffffffffffffffffffffffffffffffffffffff1690565b90611625565b61170f60028201611709606088015190565b906115de565b0192015190565b906102349161167d565b61081f6102349461175c60609498979561173f608086019a6000870152565b73ffffffffffffffffffffffffffffffffffffffff166020850152565b6040830152565b91946117916114ba929597611709600161178161024a8860046106c3565b019161178c8361070d565b6111e1565b61180461179c6115f5565b73ffffffffffffffffffffffffffffffffffffffff871681526117c288602083016115ff565b73ffffffffffffffffffffffffffffffffffffffff861660408201526117e9896060830152565b6117f4836080830152565b6117ff8560036106c3565b611716565b6118376118317f2f063575bc8e2f6d95297c0aac5fe0de8abeb1259cac98a708106a9a564ca9ac9661052f565b966107a3565b9661184160405190565b94859485611720565b9061023496959493929161159c565b9061023496959493929161186e610edc6104a6565b6118b1565b61081f6102349461175c6060949897956118aa608086019a600087019073ffffffffffffffffffffffffffffffffffffffff169052565b6020850152565b949590939291936118c761024a600492836106c3565b818101906118d482610e83565b611ab9576118ee610ec59261190892600194858093611014565b60056112dc6112d66112d061190284610caa565b93610cc0565b9391909461193a60206113227f000000000000000000000000000000000000000000000000000000000000000061052f565b03816000875af180156114eb57611a9d575b5061195d60208761133160026106e4565b03816000875af180156114eb57611a81575b5061198061139361139360026106e4565b9063bc300b7791803b15610222576113c6600080946119ae6119a160405190565b9b8c968795869460e01b90565b03925af19485156114eb576000602094611400928b98611a65575b506119e4876119d760405190565b998a978896879560e01b90565b03925af19182156114eb576114ba92611a49575b50611a09878587866114298b6107a3565b611a366118317f60d24bbeb7cba2531bbe540ac80e60370129fdd8383be60d0b05c7535ad9d60c9661052f565b96611a4060405190565b94859485611873565b611a609060203d81116114e4576114d781836109c5565b6119f8565b611a7b90833d81116115155761150781836109c5565b386119c9565b611a989060203d81116114e4576114d781836109c5565b61196f565b611ab49060203d81116114e4576114d781836109c5565b61194c565b610f828361156160405190565b90610234969594939291611859565b9061023491611ae5610edc6104a6565b600491611af561024a83856106c3565b60038101611b06610ea78483610e70565b611bc957611b2c611b278460028195610ea160209661105885600192610e70565b61070d565b94611b567f000000000000000000000000000000000000000000000000000000000000000061052f565b611400600063a9059cbb611b6d8a6113f360405190565b03925af180156114eb57611bad575b506114ba6114b06114aa7f864a22f48b1eec5bc2b4ef07bfbb8489ced40d722426128b814dc248115f9dd69361052f565b611bc49060203d81116114e4576114d781836109c5565b611b7c565b610f828561156160405190565b9061023491611ad5565b906102349291611bf1610edc6104a6565b90611c27611c1a826002611c0961024a8760046106c3565b610ea1816117098a61178c8361070d565b6117098561178c8361070d565b6114ba6114b06114aa7fe13a11083ea057fb8dafb6f92e1707e2b3664de49c62bf01bdf4fcc1263b2f7f9361052f565b906102349291611be0565b61023490611c71610edc6104a6565b611d91565b61ffff811661021b565b3561024a81611c76565b9061ffff9061100a565b610c7761024a61024a9261ffff1690565b90611cb561024a61102b92611c94565b8254611c8a565b9063ffff00009060101b61100a565b90611cdb61024a61102b92611c94565b8254611cbc565b9065ffff000000009060201b61100a565b90611d0361024a61102b92611c94565b8254611ce2565b9067ffff0000000000009060301b61100a565b90611d2d61024a61102b92611c94565b8254611d0a565b61023491611d8190606090611d51611d4b82611c80565b85611ca5565b611d66611d6060208301611c80565b85611ccb565b611d7b611d7560408301611c80565b85611cf3565b01611c80565b90611d1d565b9061023491611d34565b610234906005611d87565b61023490611c62565b61023490611db4610edc6104a6565b610234906001611625565b61023490611da5565b61023490611dd7610edc6104a6565b610234906002611625565b61023490611dc8565b818102929181159184041417156111ee57565b7f4e487b7100000000000000000000000000000000000000000000000000000000600052601260045260246000fd5b8115611e37570490565b611dfe565b919082039182116111ee57565b919290611e6261024a91611e5b600090565b5084611deb565b611e93611e8b611e7a611e736105be565b8094611e2d565b92611e86849888611deb565b611e2d565b918295611e3c565b611e3c565b6106f661024a61024a9290565b73ffffffffffffffffffffffffffffffffffffffff91821681529116602082015261024a9260a0820192611edf9190610818906040850152565b60808183039101526000815260200190565b73ffffffffffffffffffffffffffffffffffffffff9182168152911660208201526060810192916102349160400152565b9192600092611f3084611e98565b60ff821603611fa057505090611f6d611f4e6113936020959461052f565b9163a9059cbb611f78611f6060405190565b9788968795869460e01b90565b845260048401610f03565b03925af180156114eb57611f895750565b610eeb9060203d81116114e4576114d781836109c5565b611fb8611fb1600197939597611e98565b9160ff1690565b036120275750611393611fca9161052f565b6342842e0e90611fd93061052f565b91813b156102225785611ff491611fff82966113f360405190565b855260048501611ef1565b03925af180156114eb57612011575050565b8161023492903d106115155761150781836109c5565b906113936120349161052f565b63f242432a926120433061052f565b92823b15610222578694611fff869261206c9461205f60405190565b998a988997889660e01b90565b865260048601611ea5565b6000610ec561024a92612088600090565b5060046106c3565b6001610ec561024a92612088600090565b61024a916002610ea1611b2793612088600090565b61024a916003610ea1610ea793612088600090565b61024a906120db600491826106c3565b01610e83565b50505050506120ee600090565b5061024a63150b7a02611112565b61024a907f4e2312e0000000000000000000000000000000000000000000000000000000007fffffffff00000000000000000000000000000000000000000000000000000000821614908115612150575090565b61024a91507f7965db0b000000000000000000000000000000000000000000000000000000007fffffffff000000000000000000000000000000000000000000000000000000008216149081156121a5575090565b7fffffffff00000000000000000000000000000000000000000000000000000000167f01ffc9a70000000000000000000000000000000000000000000000000000000014905061024a56fea26469706673582212201494857509cb3020098c662bca00aaf51b9fec44ef4cd99aeb61dccc8bc3298964736f6c63430008140033",
  "linkReferences": {},
  "deployedLinkReferences": {},
  "chainId": 80001,
  "address": "0x4754439Dec895Ca595717C0c12a603aAb097F829"
}