{
  "_format": "hh-sol-artifact-1",
  "contractName": "RewardVault",
  "sourceName": "contracts/vaults/RewardVault.sol",
  "abi": [
    {
      "inputs": [
        {
          "internalType": "contract IERC20",
          "name": "_fusdt",
          "type": "address"
        }
      ],
      "stateMutability": "nonpayable",
      "type": "constructor"
    },
    {
      "inputs": [],
      "name": "AccessControlBadConfirmation",
      "type": "error"
    },
    {
      "inputs": [
        {
          "internalType": "address",
          "name": "account",
          "type": "address"
        },
        {
          "internalType": "bytes32",
          "name": "neededRole",
          "type": "bytes32"
        }
      ],
      "name": "AccessControlUnauthorizedAccount",
      "type": "error"
    },
    {
      "anonymous": false,
      "inputs": [
        {
          "indexed": true,
          "internalType": "bytes32",
          "name": "role",
          "type": "bytes32"
        },
        {
          "indexed": true,
          "internalType": "bytes32",
          "name": "previousAdminRole",
          "type": "bytes32"
        },
        {
          "indexed": true,
          "internalType": "bytes32",
          "name": "newAdminRole",
          "type": "bytes32"
        }
      ],
      "name": "RoleAdminChanged",
      "type": "event"
    },
    {
      "anonymous": false,
      "inputs": [
        {
          "indexed": true,
          "internalType": "bytes32",
          "name": "role",
          "type": "bytes32"
        },
        {
          "indexed": true,
          "internalType": "address",
          "name": "account",
          "type": "address"
        },
        {
          "indexed": true,
          "internalType": "address",
          "name": "sender",
          "type": "address"
        }
      ],
      "name": "RoleGranted",
      "type": "event"
    },
    {
      "anonymous": false,
      "inputs": [
        {
          "indexed": true,
          "internalType": "bytes32",
          "name": "role",
          "type": "bytes32"
        },
        {
          "indexed": true,
          "internalType": "address",
          "name": "account",
          "type": "address"
        },
        {
          "indexed": true,
          "internalType": "address",
          "name": "sender",
          "type": "address"
        }
      ],
      "name": "RoleRevoked",
      "type": "event"
    },
    {
      "inputs": [],
      "name": "DEFAULT_ADMIN_ROLE",
      "outputs": [
        {
          "internalType": "bytes32",
          "name": "",
          "type": "bytes32"
        }
      ],
      "stateMutability": "view",
      "type": "function"
    },
    {
      "inputs": [],
      "name": "FUSDT",
      "outputs": [
        {
          "internalType": "contract IERC20",
          "name": "",
          "type": "address"
        }
      ],
      "stateMutability": "view",
      "type": "function"
    },
    {
      "inputs": [],
      "name": "MANAGER",
      "outputs": [
        {
          "internalType": "bytes32",
          "name": "",
          "type": "bytes32"
        }
      ],
      "stateMutability": "view",
      "type": "function"
    },
    {
      "inputs": [],
      "name": "getCurrentFUSDTBalance",
      "outputs": [
        {
          "internalType": "uint256",
          "name": "",
          "type": "uint256"
        }
      ],
      "stateMutability": "view",
      "type": "function"
    },
    {
      "inputs": [
        {
          "internalType": "bytes32",
          "name": "role",
          "type": "bytes32"
        }
      ],
      "name": "getRoleAdmin",
      "outputs": [
        {
          "internalType": "bytes32",
          "name": "",
          "type": "bytes32"
        }
      ],
      "stateMutability": "view",
      "type": "function"
    },
    {
      "inputs": [
        {
          "internalType": "bytes32",
          "name": "role",
          "type": "bytes32"
        },
        {
          "internalType": "address",
          "name": "account",
          "type": "address"
        }
      ],
      "name": "grantRole",
      "outputs": [],
      "stateMutability": "nonpayable",
      "type": "function"
    },
    {
      "inputs": [
        {
          "internalType": "bytes32",
          "name": "role",
          "type": "bytes32"
        },
        {
          "internalType": "address",
          "name": "account",
          "type": "address"
        }
      ],
      "name": "hasRole",
      "outputs": [
        {
          "internalType": "bool",
          "name": "",
          "type": "bool"
        }
      ],
      "stateMutability": "view",
      "type": "function"
    },
    {
      "inputs": [
        {
          "internalType": "bytes32",
          "name": "role",
          "type": "bytes32"
        },
        {
          "internalType": "address",
          "name": "callerConfirmation",
          "type": "address"
        }
      ],
      "name": "renounceRole",
      "outputs": [],
      "stateMutability": "nonpayable",
      "type": "function"
    },
    {
      "inputs": [
        {
          "internalType": "bytes32",
          "name": "role",
          "type": "bytes32"
        },
        {
          "internalType": "address",
          "name": "account",
          "type": "address"
        }
      ],
      "name": "revokeRole",
      "outputs": [],
      "stateMutability": "nonpayable",
      "type": "function"
    },
    {
      "inputs": [
        {
          "internalType": "uint256",
          "name": "_lotteryRound",
          "type": "uint256"
        },
        {
          "internalType": "uint256",
          "name": "_amount",
          "type": "uint256"
        }
      ],
      "name": "saveReward",
      "outputs": [],
      "stateMutability": "nonpayable",
      "type": "function"
    },
    {
      "inputs": [
        {
          "internalType": "bytes4",
          "name": "interfaceId",
          "type": "bytes4"
        }
      ],
      "name": "supportsInterface",
      "outputs": [
        {
          "internalType": "bool",
          "name": "",
          "type": "bool"
        }
      ],
      "stateMutability": "view",
      "type": "function"
    },
    {
      "inputs": [
        {
          "internalType": "uint256",
          "name": "",
          "type": "uint256"
        }
      ],
      "name": "totalRewardByRound",
      "outputs": [
        {
          "internalType": "uint256",
          "name": "",
          "type": "uint256"
        }
      ],
      "stateMutability": "view",
      "type": "function"
    },
    {
      "inputs": [
        {
          "internalType": "address",
          "name": "_receiver",
          "type": "address"
        },
        {
          "internalType": "uint256",
          "name": "_amount",
          "type": "uint256"
        }
      ],
      "name": "transferFUSDT",
      "outputs": [],
      "stateMutability": "nonpayable",
      "type": "function"
    }
  ],
  "bytecode": "0x60a06040523462000047576200001e62000018620000ea565b62000154565b604051610acf620002aa82396080518181816102810152818161092f0152610a030152610acf90f35b600080fd5b634e487b7160e01b600052604160045260246000fd5b90601f01601f191681019081106001600160401b038211176200008457604052565b6200004c565b90620000a16200009960405190565b928362000062565b565b6001600160a01b031690565b90565b6001600160a01b038116036200004757565b90505190620000a182620000b2565b906020828203126200004757620000af91620000c4565b620000af62000d798038038062000101816200008a565b928339810190620000d3565b620000af620000af620000af9290565b620000af7faf290d8680820aad922855f39b306097b20e28774d6c1ad35a20325630c3a02c6200010d565b620000af60006200010d565b60805262000183620001656200011d565b62000172338092620001f5565b506200017d62000148565b620001f5565b50565b905b600052602052604060002090565b620000af90620000a3906001600160a01b031682565b620000af9062000196565b620000af90620001ac565b906200018890620001b7565b90620001e1620000af620001f192151590565b825460ff191660ff919091161790565b9055565b620002096200020583836200028a565b1590565b1562000283576001916200023783620002318360006200022a878262000186565b01620001c2565b620001ce565b3390620002716200026a6200026a7f2f8788117e7eff1d82e926ec794901d17c78024a50270940304540a733656f0d9590565b92620001b7565b926200027c60405190565b600090a490565b5050600090565b620000af91620002a2916200022a6000918262000186565b5460ff169056fe6080604052600436101561001257600080fd5b60003560e01c806301ffc9a7146100e257806313f240bc146100dd5780631b2df850146100d857806323c35834146100d3578063248a9ca3146100ce5780632f2ff15d146100c957806336568abe146100c457806391d14854146100bf578063a217fddf146100ba578063b1db619e146100b5578063b5597a80146100b0578063bc300b77146100ab5763d547741f0361011257610470565b610457565b610424565b6103e6565b610386565b610358565b61033f565b610321565b6102cd565b610268565b6101e6565b61017d565b610141565b7fffffffff0000000000000000000000000000000000000000000000000000000081165b0361011257565b600080fd5b90503590610124826100e7565b565b906020828203126101125761013a91610117565b90565b9052565b346101125761016e61015c610157366004610126565b610489565b60405191829182901515815260200190565b0390f35b600091031261011257565b346101125761018d366004610172565b61016e6101986109f9565b6040519182918290815260200190565b61013a61013a61013a9290565b61013a7faf290d8680820aad922855f39b306097b20e28774d6c1ad35a20325630c3a02c6101a8565b61013a6101b5565b34610112576101f6366004610172565b61016e6101986101de565b61022461013a61013a9273ffffffffffffffffffffffffffffffffffffffff1690565b73ffffffffffffffffffffffffffffffffffffffff1690565b61013a90610201565b61013a9061023d565b61013d90610246565b602081019291610124919061024f565b3461011257610278366004610172565b6040518061016e7f000000000000000000000000000000000000000000000000000000000000000082610258565b8061010b565b90503590610124826102a6565b906020828203126101125761013a916102ac565b346101125761016e6101986102e33660046102b9565b61056c565b61010b81610224565b90503590610124826102e8565b91906040838203126101125761013a9061031881856102ac565b936020016102f1565b346101125761033a6103343660046102fe565b906105ae565b604051005b346101125761033a6103523660046102fe565b90610669565b346101125761016e61015c61036e3660046102fe565b9061053c565b61013a60006101a8565b61013a610374565b3461011257610396366004610172565b61016e61019861037e565b906103ab906101a8565b600052602052604060002090565b61013a916008021c81565b9061013a91546103b9565b61013a906103e16001916000926103a1565b6103c4565b346101125761016e6101986103fc3660046102b9565b6103cf565b91906040838203126101125761013a9061041b81856102f1565b936020016102ac565b346101125761033a610437366004610401565b906109be565b91906040838203126101125761013a9061041b81856102ac565b346101125761033a61046a36600461043d565b90610842565b346101125761033a6104833660046102fe565b9061065f565b7f7965db0b000000000000000000000000000000000000000000000000000000007fffffffff000000000000000000000000000000000000000000000000000000008216149081156104d9575090565b61013a91507fffffffff00000000000000000000000000000000000000000000000000000000167f01ffc9a7000000000000000000000000000000000000000000000000000000001490565b906103ab565b906103ab90610246565b5460ff1690565b61013a916105569161055060009182610525565b0161052b565b610535565b61013a9081565b61013a905461055b565b600161058561013a9261057d600090565b506000610525565b01610562565b90610124916105a161059c8261056c565b6105b8565b906105ab916106df565b50565b906101249161058b565b6101249033906105eb565b61013d90610224565b9160206101249294936105e7604082019660008301906105c3565b0152565b906105fd6105f9828461053c565b1590565b610605575050565b61064061061160405190565b9283927fe2517d3f000000000000000000000000000000000000000000000000000000008452600484016105cc565b0390fd5b906101249161065561059c8261056c565b906105ab9161075b565b9061012491610644565b9061067333610224565b61067c82610224565b0361068a576105ab9161075b565b6040517f6697b232000000000000000000000000000000000000000000000000000000008152600490fd5b9060ff905b9181191691161790565b906106d461013a6106db92151590565b82546106b5565b9055565b6106ec6105f9838361053c565b156107545760019161070d836107088360006105508782610525565b6106c4565b339061074361073d61073d7f2f8788117e7eff1d82e926ec794901d17c78024a50270940304540a733656f0d9590565b92610246565b9261074d60405190565b600090a490565b5050600090565b90610766818361053c565b156107545761077f600061070883826105508782610525565b33906107af61073d61073d7ff6391f5c32d9c69d2a47ea670b442974b53935d1edc7fd64eb21e047a839171b9590565b926107b960405190565b600090a4600190565b7f4e487b7100000000000000000000000000000000000000000000000000000000600052601160045260246000fd5b919082018092116107fe57565b6107c2565b907fffffffffffffffffffffffffffffffffffffffffffffffffffffffffffffffff906106ba565b9061083b61013a6106db926101a8565b8254610803565b906108636108546101249360016103a1565b9161085e83610562565b6107f1565b9061082b565b906101249161087961059c6101b5565b610927565b7f4e487b7100000000000000000000000000000000000000000000000000000000600052604160045260246000fd5b90601f017fffffffffffffffffffffffffffffffffffffffffffffffffffffffffffffffe016810190811067ffffffffffffffff8211176108ed57604052565b61087e565b80151561010b565b90505190610124826108f2565b906020828203126101125761013a916108fa565b6040513d6000823e3d90fd5b6020906109537f0000000000000000000000000000000000000000000000000000000000000000610246565b610976600063a9059cbb61098161096960405190565b9788968795869460e01b90565b8452600484016105cc565b03925af180156109b9576109925750565b6105ab9060203d81116109b2575b6109aa81836108ad565b810190610907565b503d6109a0565b61091b565b9061012491610869565b90505190610124826102a6565b906020828203126101125761013a916109c8565b60208101929161012491906105c3565b610a5b6020610a277f0000000000000000000000000000000000000000000000000000000000000000610246565b6370a0823190610a50610a3930610246565b92610a4360405190565b9586948593849360e01b90565b8352600483016109e9565b03915afa9081156109b957600091610a71575090565b61013a915060203d8111610a92575b610a8a81836108ad565b8101906109d5565b503d610a8056fea2646970667358221220c79aadb4749961add588fd86c0b02970d0644e6a5ed2e9e57f959dc068cfed0264736f6c63430008140033",
  "linkReferences": {},
  "deployedLinkReferences": {},
  "chainId": 80001,
  "address": "0xBFE762Cb6F97FB3b8F274b3ed70ec1D0839cA553"
}