{
  "_format": "hh-sol-artifact-1",
  "contractName": "Staking",
  "sourceName": "contracts/staking/Staking.sol",
  "abi": [
    {
      "inputs": [
        {
          "internalType": "contract IERC20",
          "name": "_usdt",
          "type": "address"
        },
        {
          "internalType": "contract IERC20",
          "name": "_aaveUsdt",
          "type": "address"
        },
        {
          "internalType": "contract IPool",
          "name": "_aavePool",
          "type": "address"
        },
        {
          "internalType": "contract ILottery",
          "name": "_lottery",
          "type": "address"
        },
        {
          "internalType": "contract IRewardVault",
          "name": "_rewardVault",
          "type": "address"
        },
        {
          "internalType": "address",
          "name": "_teamVault",
          "type": "address"
        }
      ],
      "stateMutability": "nonpayable",
      "type": "constructor"
    },
    {
      "inputs": [],
      "name": "AccessControlBadConfirmation",
      "type": "error"
    },
    {
      "inputs": [
        {
          "internalType": "address",
          "name": "account",
          "type": "address"
        },
        {
          "internalType": "bytes32",
          "name": "neededRole",
          "type": "bytes32"
        }
      ],
      "name": "AccessControlUnauthorizedAccount",
      "type": "error"
    },
    {
      "inputs": [],
      "name": "Frozen",
      "type": "error"
    },
    {
      "inputs": [],
      "name": "TooLow",
      "type": "error"
    },
    {
      "inputs": [],
      "name": "ZeroBalance",
      "type": "error"
    },
    {
      "inputs": [],
      "name": "ZeroReward",
      "type": "error"
    },
    {
      "anonymous": false,
      "inputs": [
        {
          "indexed": true,
          "internalType": "address",
          "name": "user",
          "type": "address"
        },
        {
          "indexed": false,
          "internalType": "uint256",
          "name": "amount",
          "type": "uint256"
        }
      ],
      "name": "Claim",
      "type": "event"
    },
    {
      "anonymous": false,
      "inputs": [
        {
          "indexed": true,
          "internalType": "bytes32",
          "name": "role",
          "type": "bytes32"
        },
        {
          "indexed": true,
          "internalType": "bytes32",
          "name": "previousAdminRole",
          "type": "bytes32"
        },
        {
          "indexed": true,
          "internalType": "bytes32",
          "name": "newAdminRole",
          "type": "bytes32"
        }
      ],
      "name": "RoleAdminChanged",
      "type": "event"
    },
    {
      "anonymous": false,
      "inputs": [
        {
          "indexed": true,
          "internalType": "bytes32",
          "name": "role",
          "type": "bytes32"
        },
        {
          "indexed": true,
          "internalType": "address",
          "name": "account",
          "type": "address"
        },
        {
          "indexed": true,
          "internalType": "address",
          "name": "sender",
          "type": "address"
        }
      ],
      "name": "RoleGranted",
      "type": "event"
    },
    {
      "anonymous": false,
      "inputs": [
        {
          "indexed": true,
          "internalType": "bytes32",
          "name": "role",
          "type": "bytes32"
        },
        {
          "indexed": true,
          "internalType": "address",
          "name": "account",
          "type": "address"
        },
        {
          "indexed": true,
          "internalType": "address",
          "name": "sender",
          "type": "address"
        }
      ],
      "name": "RoleRevoked",
      "type": "event"
    },
    {
      "anonymous": false,
      "inputs": [
        {
          "indexed": true,
          "internalType": "address",
          "name": "user",
          "type": "address"
        },
        {
          "indexed": true,
          "internalType": "uint256",
          "name": "stakingRound",
          "type": "uint256"
        },
        {
          "indexed": false,
          "internalType": "uint256",
          "name": "amount",
          "type": "uint256"
        }
      ],
      "name": "Stake",
      "type": "event"
    },
    {
      "anonymous": false,
      "inputs": [
        {
          "indexed": true,
          "internalType": "address",
          "name": "user",
          "type": "address"
        },
        {
          "indexed": true,
          "internalType": "uint256",
          "name": "unstakingRound",
          "type": "uint256"
        },
        {
          "indexed": false,
          "internalType": "uint256",
          "name": "amount",
          "type": "uint256"
        }
      ],
      "name": "Unstake",
      "type": "event"
    },
    {
      "inputs": [],
      "name": "AAVE_POOL",
      "outputs": [
        {
          "internalType": "contract IPool",
          "name": "",
          "type": "address"
        }
      ],
      "stateMutability": "view",
      "type": "function"
    },
    {
      "inputs": [],
      "name": "AAVE_USDT",
      "outputs": [
        {
          "internalType": "contract IERC20",
          "name": "",
          "type": "address"
        }
      ],
      "stateMutability": "view",
      "type": "function"
    },
    {
      "inputs": [],
      "name": "BPS",
      "outputs": [
        {
          "internalType": "uint16",
          "name": "",
          "type": "uint16"
        }
      ],
      "stateMutability": "view",
      "type": "function"
    },
    {
      "inputs": [],
      "name": "DEFAULT_ADMIN_ROLE",
      "outputs": [
        {
          "internalType": "bytes32",
          "name": "",
          "type": "bytes32"
        }
      ],
      "stateMutability": "view",
      "type": "function"
    },
    {
      "inputs": [],
      "name": "LOTTERY",
      "outputs": [
        {
          "internalType": "contract ILottery",
          "name": "",
          "type": "address"
        }
      ],
      "stateMutability": "view",
      "type": "function"
    },
    {
      "inputs": [],
      "name": "MANAGER",
      "outputs": [
        {
          "internalType": "bytes32",
          "name": "",
          "type": "bytes32"
        }
      ],
      "stateMutability": "view",
      "type": "function"
    },
    {
      "inputs": [],
      "name": "REWARD_VAULT",
      "outputs": [
        {
          "internalType": "contract IRewardVault",
          "name": "",
          "type": "address"
        }
      ],
      "stateMutability": "view",
      "type": "function"
    },
    {
      "inputs": [],
      "name": "TEAM_VAULT",
      "outputs": [
        {
          "internalType": "address",
          "name": "",
          "type": "address"
        }
      ],
      "stateMutability": "view",
      "type": "function"
    },
    {
      "inputs": [],
      "name": "USDT",
      "outputs": [
        {
          "internalType": "contract IERC20",
          "name": "",
          "type": "address"
        }
      ],
      "stateMutability": "view",
      "type": "function"
    },
    {
      "inputs": [],
      "name": "claim",
      "outputs": [],
      "stateMutability": "nonpayable",
      "type": "function"
    },
    {
      "inputs": [],
      "name": "collectProfitsFromAAVE",
      "outputs": [],
      "stateMutability": "nonpayable",
      "type": "function"
    },
    {
      "inputs": [
        {
          "internalType": "uint256",
          "name": "_currentRound",
          "type": "uint256"
        }
      ],
      "name": "finailizeRewardRate",
      "outputs": [],
      "stateMutability": "nonpayable",
      "type": "function"
    },
    {
      "inputs": [
        {
          "internalType": "address",
          "name": "_user",
          "type": "address"
        }
      ],
      "name": "getCurrentRewards",
      "outputs": [
        {
          "internalType": "uint256",
          "name": "",
          "type": "uint256"
        }
      ],
      "stateMutability": "view",
      "type": "function"
    },
    {
      "inputs": [
        {
          "internalType": "address",
          "name": "_user",
          "type": "address"
        }
      ],
      "name": "getLeftOverLockUpRound",
      "outputs": [
        {
          "internalType": "uint256",
          "name": "",
          "type": "uint256"
        }
      ],
      "stateMutability": "view",
      "type": "function"
    },
    {
      "inputs": [],
      "name": "getProfitsFromAAVE",
      "outputs": [
        {
          "internalType": "uint256",
          "name": "",
          "type": "uint256"
        }
      ],
      "stateMutability": "view",
      "type": "function"
    },
    {
      "inputs": [
        {
          "internalType": "bytes32",
          "name": "role",
          "type": "bytes32"
        }
      ],
      "name": "getRoleAdmin",
      "outputs": [
        {
          "internalType": "bytes32",
          "name": "",
          "type": "bytes32"
        }
      ],
      "stateMutability": "view",
      "type": "function"
    },
    {
      "inputs": [
        {
          "internalType": "address",
          "name": "_user",
          "type": "address"
        }
      ],
      "name": "getUserStakingShares",
      "outputs": [
        {
          "internalType": "uint256",
          "name": "",
          "type": "uint256"
        }
      ],
      "stateMutability": "view",
      "type": "function"
    },
    {
      "inputs": [
        {
          "internalType": "bytes32",
          "name": "role",
          "type": "bytes32"
        },
        {
          "internalType": "address",
          "name": "account",
          "type": "address"
        }
      ],
      "name": "grantRole",
      "outputs": [],
      "stateMutability": "nonpayable",
      "type": "function"
    },
    {
      "inputs": [
        {
          "internalType": "bytes32",
          "name": "role",
          "type": "bytes32"
        },
        {
          "internalType": "address",
          "name": "account",
          "type": "address"
        }
      ],
      "name": "hasRole",
      "outputs": [
        {
          "internalType": "bool",
          "name": "",
          "type": "bool"
        }
      ],
      "stateMutability": "view",
      "type": "function"
    },
    {
      "inputs": [],
      "name": "lockupRound",
      "outputs": [
        {
          "internalType": "uint32",
          "name": "",
          "type": "uint32"
        }
      ],
      "stateMutability": "view",
      "type": "function"
    },
    {
      "inputs": [
        {
          "internalType": "bytes32",
          "name": "role",
          "type": "bytes32"
        },
        {
          "internalType": "address",
          "name": "callerConfirmation",
          "type": "address"
        }
      ],
      "name": "renounceRole",
      "outputs": [],
      "stateMutability": "nonpayable",
      "type": "function"
    },
    {
      "inputs": [
        {
          "internalType": "bytes32",
          "name": "role",
          "type": "bytes32"
        },
        {
          "internalType": "address",
          "name": "account",
          "type": "address"
        }
      ],
      "name": "revokeRole",
      "outputs": [],
      "stateMutability": "nonpayable",
      "type": "function"
    },
    {
      "inputs": [
        {
          "internalType": "uint32",
          "name": "_lockupRound",
          "type": "uint32"
        }
      ],
      "name": "setLockupRound",
      "outputs": [],
      "stateMutability": "nonpayable",
      "type": "function"
    },
    {
      "inputs": [
        {
          "internalType": "uint256",
          "name": "_amount",
          "type": "uint256"
        }
      ],
      "name": "stake",
      "outputs": [],
      "stateMutability": "nonpayable",
      "type": "function"
    },
    {
      "inputs": [
        {
          "internalType": "bytes4",
          "name": "interfaceId",
          "type": "bytes4"
        }
      ],
      "name": "supportsInterface",
      "outputs": [
        {
          "internalType": "bool",
          "name": "",
          "type": "bool"
        }
      ],
      "stateMutability": "view",
      "type": "function"
    },
    {
      "inputs": [],
      "name": "totalRewardsOverAllTheRounds",
      "outputs": [
        {
          "internalType": "uint256",
          "name": "",
          "type": "uint256"
        }
      ],
      "stateMutability": "view",
      "type": "function"
    },
    {
      "inputs": [],
      "name": "totalStake",
      "outputs": [
        {
          "internalType": "uint256",
          "name": "",
          "type": "uint256"
        }
      ],
      "stateMutability": "view",
      "type": "function"
    },
    {
      "inputs": [],
      "name": "unstake",
      "outputs": [],
      "stateMutability": "nonpayable",
      "type": "function"
    },
    {
      "inputs": [
        {
          "internalType": "address",
          "name": "",
          "type": "address"
        }
      ],
      "name": "userStakingInfo",
      "outputs": [
        {
          "internalType": "uint256",
          "name": "balance",
          "type": "uint256"
        },
        {
          "internalType": "uint256",
          "name": "reward",
          "type": "uint256"
        },
        {
          "internalType": "uint256",
          "name": "rewardStartingPoint",
          "type": "uint256"
        },
        {
          "internalType": "uint256",
          "name": "lockUp",
          "type": "uint256"
        }
      ],
      "stateMutability": "view",
      "type": "function"
    }
  ],
  "bytecode": "0x61014060405234620000d2576200002662000019620001e5565b94939093929192620002a2565b604051611b8b6200041482396080518181816107c10152818161102e015281816114e00152611887015260a05181818161033a015281816117e70152611945015260c0518181816102f9015281816110a8015281816114b10152611858015260e05181818161057c01528181611180015281816114160152611a7001526101005181818161047601528181610d0701526116c80152610120518181816106f901526118ae0152611b8b90f35b600080fd5b634e487b7160e01b600052604160045260246000fd5b90601f01601f191681019081106001600160401b038211176200010f57604052565b620000d7565b906200012c6200012460405190565b9283620000ed565b565b6001600160a01b031690565b90565b6001600160a01b0381165b03620000d257565b905051906200012c826200013d565b6001600160a01b03811662000148565b905051906200012c826200015f565b909160c082840312620000d25762000197838362000150565b92620001a7816020850162000150565b92620001b7826040830162000150565b926200013a620001cb846060850162000150565b93620001db816080860162000150565b9360a0016200016f565b6200020862001f9f80380380620001fc8162000115565b9283398101906200017e565b909192939495565b9063ffffffff905b9181191691161790565b620002326200013a6200013a9290565b63ffffffff1690565b906200024f6200013a620002579262000222565b825462000210565b9055565b6200013a6200013a6200013a9290565b6200013a7faf290d8680820aad922855f39b306097b20e28774d6c1ad35a20325630c3a02c6200025b565b6200013a60006200025b565b620002af6003806200023b565b60805260a05260c05260e0526101005261012052620002ef620002d16200026b565b620002de3380926200035f565b50620002e962000296565b6200035f565b50565b905b600052602052604060002090565b6200013a906200012e906001600160a01b031682565b6200013a9062000302565b6200013a9062000318565b90620002f49062000323565b9060ff9062000218565b90620003576200013a6200025792151590565b82546200033a565b620003736200036f8383620003f4565b1590565b15620003ed57600191620003a1836200039b836000620003948782620002f2565b016200032e565b62000344565b3390620003db620003d4620003d47f2f8788117e7eff1d82e926ec794901d17c78024a50270940304540a733656f0d9590565b9262000323565b92620003e660405190565b600090a490565b5050600090565b6200013a916200040c916200039460009182620002f2565b5460ff169056fe6080604052600436101561001257600080fd5b60003560e01c806301ffc9a7146101e257806308a01675146101dd57806316118f89146101d85780631b2df850146101d3578063248a9ca3146101ce578063249d39e9146101c957806327f9387f146101c45780632def6620146101bf5780632f2ff15d146101ba5780632f860a29146101b557806336568abe146101b0578063494ac14c146101ab5780634e71d92d146101a65780634ebb9842146101a15780636cd8a9861461019c5780638b0e9f3f1461019757806391d148541461019257806394e116241461018d578063a217fddf14610188578063a694fc3a14610183578063ae21e4e51461017e578063b2e14f8d14610179578063b57cd11814610174578063bb22a44d1461016f578063c54e44eb1461016a578063c8e6bd7414610165578063d547741f14610160578063e818967d1461015b5763fe70078b03610212576108c6565b610816565b6107fd565b6107e5565b6107ac565b61077a565b610739565b61071e565b6106e0565b6106af565b610694565b610667565b61064b565b610630565b610609565b6105cc565b6105a0565b610567565b61054e565b610536565b6104f0565b61049a565b610461565b610431565b6103ef565b61039c565b610325565b6102e4565b610241565b7fffffffff0000000000000000000000000000000000000000000000000000000081165b0361021257565b600080fd5b90503590610224826101e7565b565b906020828203126102125761023a91610217565b90565b9052565b346102125761026e61025c610257366004610226565b6108f7565b60405191829182901515815260200190565b0390f35b600091031261021257565b6102a061023a61023a9273ffffffffffffffffffffffffffffffffffffffff1690565b73ffffffffffffffffffffffffffffffffffffffff1690565b61023a9061027d565b61023a906102b9565b61023d906102c2565b60208101929161022491906102cb565b34610212576102f4366004610272565b61026e7f00000000000000000000000000000000000000000000000000000000000000005b604051918291826102d4565b3461021257610335366004610272565b61026e7f0000000000000000000000000000000000000000000000000000000000000000610319565b61023a61023a61023a9290565b61023a7faf290d8680820aad922855f39b306097b20e28774d6c1ad35a20325630c3a02c61035e565b61023a61036b565b34610212576103ac366004610272565b61026e6103b7610394565b6040515b9182918290815260200190565b8061020b565b90503590610224826103c8565b906020828203126102125761023a916103ce565b346102125761026e6103b76104053660046103db565b6109bf565b61041761023a61023a9290565b61ffff1690565b61023a61271061040a565b61023a61041e565b3461021257610441366004610272565b61026e61044c610429565b6040519182918261ffff909116815260200190565b3461021257610471366004610272565b61026e7f0000000000000000000000000000000000000000000000000000000000000000610319565b34610212576104aa366004610272565b6104b2611665565b604051005b61020b816102a0565b90503590610224826104b7565b91906040838203126102125761023a906104e781856103ce565b936020016104c0565b34610212576104b26105033660046104cd565b90610a01565b63ffffffff811661020b565b9050359061022482610509565b906020828203126102125761023a91610515565b34610212576104b2610549366004610522565b611a19565b34610212576104b26105613660046104cd565b90610aaf565b3461021257610577366004610272565b61026e7f0000000000000000000000000000000000000000000000000000000000000000610319565b34610212576105b0366004610272565b6104b26117c7565b906020828203126102125761023a916104c0565b346102125761026e6103b76105e23660046105b8565b611a22565b61023a916008021c81565b9061023a91546105e7565b61023a600060026105f2565b3461021257610619366004610272565b61026e6103b76105fd565b61023a600060016105f2565b3461021257610640366004610272565b61026e6103b7610624565b346102125761026e61025c6106613660046104cd565b906109a0565b3461021257610677366004610272565b61026e6103b761193b565b61023a600061035e565b61023a610682565b34610212576106a4366004610272565b61026e6103b761068c565b34610212576104b26106c23660046103db565b611345565b61023d906102a0565b60208101929161022491906106c7565b34610212576106f0366004610272565b6040518061026e7f0000000000000000000000000000000000000000000000000000000000000000826106d0565b346102125761026e6103b76107343660046105b8565b610ed0565b3461021257610749366004610272565b6104b2611933565b61023a916008021c5b63ffffffff1690565b9061023a9154610751565b61023a60006003610763565b346102125761078a366004610272565b61026e61079561076e565b6040519182918263ffffffff909116815260200190565b34610212576107bc366004610272565b61026e7f0000000000000000000000000000000000000000000000000000000000000000610319565b34610212576104b26107f83660046103db565b610db2565b34610212576104b26108103660046104cd565b90610aa5565b346102125761026e6103b761082c3660046105b8565b61199a565b9061083b906102c2565b600052602052604060002090565b61023a9081565b61023a9054610849565b610865906004610831565b9061086f82610850565b9161087c60018201610850565b9161023a600361088e60028501610850565b9301610850565b6108c2610224946108bb6060949897956108b4608086019a6000870152565b6020850152565b6040830152565b0152565b346102125761026e6108e16108dc3660046105b8565b61085a565b906108ee94929460405190565b94859485610895565b7f7965db0b000000000000000000000000000000000000000000000000000000007fffffffff00000000000000000000000000000000000000000000000000000000821614908115610947575090565b61023a91507fffffffff00000000000000000000000000000000000000000000000000000000167f01ffc9a7000000000000000000000000000000000000000000000000000000001490565b9061083b565b5460ff1690565b61023a916109ba916109b460009182610993565b01610831565b610999565b60016109d861023a926109d0600090565b506000610993565b01610850565b90610224916109f46109ef826109bf565b610a0b565b906109fe91610b25565b50565b90610224916109de565b610224903390610a31565b9160206102249294936108c2604082019660008301906106c7565b90610a43610a3f82846109a0565b1590565b610a4b575050565b610a86610a5760405190565b9283927fe2517d3f00000000000000000000000000000000000000000000000000000000845260048401610a16565b0390fd5b9061022491610a9b6109ef826109bf565b906109fe91610ba1565b9061022491610a8a565b90610ab9336102a0565b610ac2826102a0565b03610ad0576109fe91610ba1565b6040517f6697b232000000000000000000000000000000000000000000000000000000008152600490fd5b9060ff905b9181191691161790565b90610b1a61023a610b2192151590565b8254610afb565b9055565b610b32610a3f83836109a0565b15610b9a57600191610b5383610b4e8360006109b48782610993565b610b0a565b3390610b89610b83610b837f2f8788117e7eff1d82e926ec794901d17c78024a50270940304540a733656f0d9590565b926102c2565b92610b9360405190565b600090a490565b5050600090565b90610bac81836109a0565b15610b9a57610bc56000610b4e83826109b48782610993565b3390610bf5610b83610b837ff6391f5c32d9c69d2a47ea670b442974b53935d1edc7fd64eb21e047a839171b9590565b92610bff60405190565b600090a4600190565b61022490610c176109ef61036b565b610cfc565b7f4e487b7100000000000000000000000000000000000000000000000000000000600052604160045260246000fd5b90601f017fffffffffffffffffffffffffffffffffffffffffffffffffffffffffffffffe016810190811067ffffffffffffffff821117610c8b57604052565b610c1c565b90505190610224826103c8565b906020828203126102125761023a91610c90565b6040513d6000823e3d90fd5b907fffffffffffffffffffffffffffffffffffffffffffffffffffffffffffffffff90610b00565b90610cf561023a610b219261035e565b8254610cbd565b6020610d5791610d2b7f00000000000000000000000000000000000000000000000000000000000000006102c2565b610d4963b1db619e610d3c60405190565b9586948593849360e01b90565b835260048301526024820190565b03915afa908115610dad5761022491610d7891600091610d7f575b50610e58565b6002610ce5565b610da0915060203d8111610da6575b610d988183610c4b565b810190610c9d565b38610d72565b503d610d8e565b610cb1565b61022490610c08565b7f4e487b7100000000000000000000000000000000000000000000000000000000600052601160045260246000fd5b81810292918115918404141715610dfd57565b610dbb565b7f4e487b7100000000000000000000000000000000000000000000000000000000600052601260045260246000fd5b90610e3b565b9190565b908115610e46570490565b610e02565b91908201809211610dfd57565b610e626001610850565b600090610e71610e378361035e565b14610eb9575061023a90610eb3610ea3610e8b6002610850565b92610e9d670de0b6b3a764000061035e565b90610dea565b610ead6001610850565b90610e31565b90610e4b565b61023a915061035e565b91908203918211610dfd57565b610eea61023a61023a92610ee2600090565b506004610831565b610eb3610f25610efc60018401610850565b92610e9d610f0982610850565b91610f1f6002610f1881610850565b9201610850565b90610ec3565b610ead670de0b6b3a764000061035e565b61022490610f7333610f61610f58610f5261023a846004610831565b92610ed0565b60018301610ce5565b6002610f6c81610850565b9101610ce5565b611007565b80151561020b565b9050519061022482610f78565b906020828203126102125761023a91610f80565b6040906108c26102249496959396610fc1606084019860008501906106c7565b60208301906106c7565b61023d9061040a565b61100061022494610ff66060949897956108b4608086019a60008701906106c7565b60408301906106c7565b0190610fcb565b60016110128161035e565b821061131a5733600461102861023a8383610831565b926110527f00000000000000000000000000000000000000000000000000000000000000006102c2565b906323b872dd90611062306102c2565b9161107661106f60405190565b9160e01b90565b81526020818061108a8b878b8b8501610fa1565b03816000885af18015610dad576112fe575b5063095ea7b3916110cc7f00000000000000000000000000000000000000000000000000000000000000006102c2565b926110d961106f60405190565b8152602081806110ec8c888b8401610a16565b03816000895af18015610dad576112d2575b5063617ba03790600093803b156102125761113285809461113b828b968f61112560405190565b9c8d998a98899760e01b90565b87528601610fd4565b03925af1908115610dad5761117b9361116c926112a6575b506111668861116183610850565b610e4b565b90610ce5565b84016111668661116183610850565b6111a47f00000000000000000000000000000000000000000000000000000000000000006102c2565b9063146ca531916111b460405190565b946111bf8460e01b90565b8652602086808581010381855afa938415610dad576111f36020956112049361120b99600092611284575b50600301610ce5565b6040515b9687948593849360e01b90565b8352820190565b03915afa918215610dad57600092611264575b5061125f61125561124f7f5af417134f72a9d41143ace85b0a26dce6f550f894f2cbc1eeee8810603d91b6936102c2565b9361035e565b936103bb60405190565b0390a3565b61127d91925060203d8111610da657610d988183610c4b565b903861121e565b600391925061129f90893d8111610da657610d988183610c4b565b91906111ea565b6112c590843d86116112cb575b6112bd8183610c4b565b810190610272565b38611153565b503d6112b3565b6112f29060203d81116112f7575b6112ea8183610c4b565b810190610f8d565b6110fe565b503d6112e0565b6113159060203d81116112f7576112ea8183610c4b565b61109c565b6040517f3ca55442000000000000000000000000000000000000000000000000000000008152600490fd5b61022490610f36565b61136633610f61610f58610f5261023a846004610831565b6102246113c2565b61023a9061075a565b61023a905461136e565b61023a61023a61023a9263ffffffff1690565b6040906113bb61022494969593966113b4606084019860008501906106c7565b6020830152565b01906106c7565b3360046113d261023a8383610831565b916113dc83610850565b926000926113e98461035e565b851461162d576114106113fe60038401610850565b610eb361140b6003611377565b611381565b9161143a7f00000000000000000000000000000000000000000000000000000000000000006102c2565b9063146ca5319361144a60405190565b6114548660e01b90565b8152602081808781010381875afa908115610dad5761147c91610e3791600091611615575090565b116115dd576114ac906114a261149b896114966001610850565b610ec3565b6001610ce5565b86610f6c8161035e565b6114d57f00000000000000000000000000000000000000000000000000000000000000006102c2565b926369328dec6115047f00000000000000000000000000000000000000000000000000000000000000006102c2565b853b1561021257889561152d8980946115378b61152060405190565b9b8c978896879560e01b90565b85528c8501611394565b03925af1908115610dad5761155c96602095611204936115c0575b50506040516111f7565b03915afa918215610dad576000926115a0575b5061125f61125561124f7ff960dbf9e5d0682f7a298ed974e33a28b4464914b7a2bfac12ae419a9afeb280936102c2565b6115b991925060203d8111610da657610d988183610c4b565b903861156f565b816115d692903d106112cb576112bd8183610c4b565b3880611552565b610a86836115ea60405190565b7fa8cab3d1000000000000000000000000000000000000000000000000000000008152918291820190565b61023a915060203d8111610da657610d988183610c4b565b610a869061163a60405190565b7f669567ea000000000000000000000000000000000000000000000000000000008152918291820190565b61022461134e565b61168533610f61610f58610f5261023a846004610831565b61022460043361169861023a8284610831565b6116a182610ed0565b926000916116ae8361035e565b851461178f576116c3906001610f6c8561035e565b6116ec7f00000000000000000000000000000000000000000000000000000000000000006102c2565b9063b5597a8090823b1561021257849261171c8580946117258a61170f60405190565b9889978896879560e01b90565b85528401610a16565b03925af18015610dad57611772575b505061176d6117637f47cee97cb7acd717b3c0aa1435d004cd5b3c8c57d70dbceb4e4458bbd60e39d4926102c2565b926103bb60405190565b0390a2565b8161178892903d106112cb576112bd8183610c4b565b3880611734565b610a868261179c60405190565b7f9c1b2784000000000000000000000000000000000000000000000000000000008152918291820190565b61022461166d565b6117da6109ef61036b565b610224611832602061180b7f00000000000000000000000000000000000000000000000000000000000000006102c2565b6370a082319061182761181d306102c2565b92610d3c60405190565b8352600483016106d0565b03915afa8015610dad5761185391600091611915575b50610f1f6001610850565b61187c7f00000000000000000000000000000000000000000000000000000000000000006102c2565b6369328dec906118ab7f00000000000000000000000000000000000000000000000000000000000000006102c2565b907f000000000000000000000000000000000000000000000000000000000000000092813b156102125760006118e9916118f4829661170f60405190565b855260048501611394565b03925af18015610dad576119055750565b6102249060006112bd8183610c4b565b61192d915060203d8111610da657610d988183610c4b565b38611848565b6102246117cf565b611969602061180b7f00000000000000000000000000000000000000000000000000000000000000006102c2565b03915afa8015610dad5761023a916000916119155750610f1f6001610850565b61023a61023a61023a9261ffff1690565b610ea36119b460006109d861023a61023a95610ee2600090565b610e9d6119bf61041e565b611989565b610224906119d36109ef61036b565b611a0e565b9063ffffffff90610b00565b61075a61023a61023a9263ffffffff1690565b90611a0761023a610b21926119e4565b82546119d8565b6102249060036119f7565b610224906119c4565b611a3161023a60049283610831565b611a3a81610850565b90600091611a4a610e378461035e565b03611a5a575061023a915061035e565b60030190611a6a6113fe83610850565b91611a947f00000000000000000000000000000000000000000000000000000000000000006102c2565b9163146ca53193611aa460405190565b611aae8660e01b90565b8152602081808981010381885afa908115610dad57611ad691610e3791600091611615575090565b1115611b47575092602091611204611b04611af3611b0e97610850565b611b0061140b6003611377565b0190565b946111f760405190565b03915afa908115610dad5761023a92600092611b2957500390565b611b4291925060203d8111610da657610d988183610c4b565b900390565b9250505061023a915061035e56fea26469706673582212208ade960817487ca82f537671c0ca8d6eec814059db6e4bd099bee795a9973a6964736f6c63430008140033",
  "linkReferences": {},
  "deployedLinkReferences": {},
  "chainId": 80001,
  "address": "0x59445DAbe9F0bb42Cf7DD9565A6D9811A29B0b00"
}