{
  "_format": "hh-sol-artifact-1",
  "contractName": "ClaimVault",
  "sourceName": "contracts/vaults/ClaimVault.sol",
  "abi": [
    {
      "inputs": [
        {
          "internalType": "contract IERC20",
          "name": "_fusdt",
          "type": "address"
        }
      ],
      "stateMutability": "nonpayable",
      "type": "constructor"
    },
    {
      "inputs": [],
      "name": "AccessControlBadConfirmation",
      "type": "error"
    },
    {
      "inputs": [
        {
          "internalType": "address",
          "name": "account",
          "type": "address"
        },
        {
          "internalType": "bytes32",
          "name": "neededRole",
          "type": "bytes32"
        }
      ],
      "name": "AccessControlUnauthorizedAccount",
      "type": "error"
    },
    {
      "anonymous": false,
      "inputs": [
        {
          "indexed": true,
          "internalType": "bytes32",
          "name": "role",
          "type": "bytes32"
        },
        {
          "indexed": true,
          "internalType": "bytes32",
          "name": "previousAdminRole",
          "type": "bytes32"
        },
        {
          "indexed": true,
          "internalType": "bytes32",
          "name": "newAdminRole",
          "type": "bytes32"
        }
      ],
      "name": "RoleAdminChanged",
      "type": "event"
    },
    {
      "anonymous": false,
      "inputs": [
        {
          "indexed": true,
          "internalType": "bytes32",
          "name": "role",
          "type": "bytes32"
        },
        {
          "indexed": true,
          "internalType": "address",
          "name": "account",
          "type": "address"
        },
        {
          "indexed": true,
          "internalType": "address",
          "name": "sender",
          "type": "address"
        }
      ],
      "name": "RoleGranted",
      "type": "event"
    },
    {
      "anonymous": false,
      "inputs": [
        {
          "indexed": true,
          "internalType": "bytes32",
          "name": "role",
          "type": "bytes32"
        },
        {
          "indexed": true,
          "internalType": "address",
          "name": "account",
          "type": "address"
        },
        {
          "indexed": true,
          "internalType": "address",
          "name": "sender",
          "type": "address"
        }
      ],
      "name": "RoleRevoked",
      "type": "event"
    },
    {
      "inputs": [],
      "name": "DEFAULT_ADMIN_ROLE",
      "outputs": [
        {
          "internalType": "bytes32",
          "name": "",
          "type": "bytes32"
        }
      ],
      "stateMutability": "view",
      "type": "function"
    },
    {
      "inputs": [],
      "name": "FUSDT",
      "outputs": [
        {
          "internalType": "contract IERC20",
          "name": "",
          "type": "address"
        }
      ],
      "stateMutability": "view",
      "type": "function"
    },
    {
      "inputs": [],
      "name": "MANAGER",
      "outputs": [
        {
          "internalType": "bytes32",
          "name": "",
          "type": "bytes32"
        }
      ],
      "stateMutability": "view",
      "type": "function"
    },
    {
      "inputs": [],
      "name": "getCurrentFUSDTBalance",
      "outputs": [
        {
          "internalType": "uint256",
          "name": "",
          "type": "uint256"
        }
      ],
      "stateMutability": "view",
      "type": "function"
    },
    {
      "inputs": [
        {
          "internalType": "bytes32",
          "name": "role",
          "type": "bytes32"
        }
      ],
      "name": "getRoleAdmin",
      "outputs": [
        {
          "internalType": "bytes32",
          "name": "",
          "type": "bytes32"
        }
      ],
      "stateMutability": "view",
      "type": "function"
    },
    {
      "inputs": [
        {
          "internalType": "bytes32",
          "name": "role",
          "type": "bytes32"
        },
        {
          "internalType": "address",
          "name": "account",
          "type": "address"
        }
      ],
      "name": "grantRole",
      "outputs": [],
      "stateMutability": "nonpayable",
      "type": "function"
    },
    {
      "inputs": [
        {
          "internalType": "bytes32",
          "name": "role",
          "type": "bytes32"
        },
        {
          "internalType": "address",
          "name": "account",
          "type": "address"
        }
      ],
      "name": "hasRole",
      "outputs": [
        {
          "internalType": "bool",
          "name": "",
          "type": "bool"
        }
      ],
      "stateMutability": "view",
      "type": "function"
    },
    {
      "inputs": [
        {
          "internalType": "bytes32",
          "name": "role",
          "type": "bytes32"
        },
        {
          "internalType": "address",
          "name": "callerConfirmation",
          "type": "address"
        }
      ],
      "name": "renounceRole",
      "outputs": [],
      "stateMutability": "nonpayable",
      "type": "function"
    },
    {
      "inputs": [
        {
          "internalType": "bytes32",
          "name": "role",
          "type": "bytes32"
        },
        {
          "internalType": "address",
          "name": "account",
          "type": "address"
        }
      ],
      "name": "revokeRole",
      "outputs": [],
      "stateMutability": "nonpayable",
      "type": "function"
    },
    {
      "inputs": [
        {
          "internalType": "bytes4",
          "name": "interfaceId",
          "type": "bytes4"
        }
      ],
      "name": "supportsInterface",
      "outputs": [
        {
          "internalType": "bool",
          "name": "",
          "type": "bool"
        }
      ],
      "stateMutability": "view",
      "type": "function"
    },
    {
      "inputs": [
        {
          "internalType": "address",
          "name": "_winner",
          "type": "address"
        },
        {
          "internalType": "uint256",
          "name": "_amount",
          "type": "uint256"
        }
      ],
      "name": "transferFUSDT",
      "outputs": [],
      "stateMutability": "nonpayable",
      "type": "function"
    }
  ],
  "bytecode": "0x60a06040523462000047576200001e62000018620000ea565b62000154565b604051610997620002aa8239608051818181610261015281816107f701526108cb015261099790f35b600080fd5b634e487b7160e01b600052604160045260246000fd5b90601f01601f191681019081106001600160401b038211176200008457604052565b6200004c565b90620000a16200009960405190565b928362000062565b565b6001600160a01b031690565b90565b6001600160a01b038116036200004757565b90505190620000a182620000b2565b906020828203126200004757620000af91620000c4565b620000af62000c418038038062000101816200008a565b928339810190620000d3565b620000af620000af620000af9290565b620000af7faf290d8680820aad922855f39b306097b20e28774d6c1ad35a20325630c3a02c6200010d565b620000af60006200010d565b60805262000183620001656200011d565b62000172338092620001f5565b506200017d62000148565b620001f5565b50565b905b600052602052604060002090565b620000af90620000a3906001600160a01b031682565b620000af9062000196565b620000af90620001ac565b906200018890620001b7565b90620001e1620000af620001f192151590565b825460ff191660ff919091161790565b9055565b620002096200020583836200028a565b1590565b1562000283576001916200023783620002318360006200022a878262000186565b01620001c2565b620001ce565b3390620002716200026a6200026a7f2f8788117e7eff1d82e926ec794901d17c78024a50270940304540a733656f0d9590565b92620001b7565b926200027c60405190565b600090a490565b5050600090565b620000af91620002a2916200022a6000918262000186565b5460ff169056fe6080604052600436101561001257600080fd5b60003560e01c806301ffc9a7146100c257806313f240bc146100bd5780631b2df850146100b857806323c35834146100b3578063248a9ca3146100ae5780632f2ff15d146100a957806336568abe146100a457806391d148541461009f578063a217fddf1461009a578063b5597a80146100955763d547741f036100f2576103bd565b6103a4565b610366565b610338565b61031f565b610301565b6102ad565b610248565b6101c6565b61015d565b610121565b7fffffffff0000000000000000000000000000000000000000000000000000000081165b036100f257565b600080fd5b90503590610104826100c7565b565b906020828203126100f25761011a916100f7565b90565b9052565b346100f25761014e61013c610137366004610106565b6103d6565b60405191829182901515815260200190565b0390f35b60009103126100f257565b346100f25761016d366004610152565b61014e6101786108c1565b6040519182918290815260200190565b61011a61011a61011a9290565b61011a7faf290d8680820aad922855f39b306097b20e28774d6c1ad35a20325630c3a02c610188565b61011a610195565b346100f2576101d6366004610152565b61014e6101786101be565b61020461011a61011a9273ffffffffffffffffffffffffffffffffffffffff1690565b73ffffffffffffffffffffffffffffffffffffffff1690565b61011a906101e1565b61011a9061021d565b61011d90610226565b602081019291610104919061022f565b346100f257610258366004610152565b6040518061014e7f000000000000000000000000000000000000000000000000000000000000000082610238565b806100eb565b9050359061010482610286565b906020828203126100f25761011a9161028c565b346100f25761014e6101786102c3366004610299565b6104c3565b6100eb81610204565b90503590610104826102c8565b91906040838203126100f25761011a906102f8818561028c565b936020016102d1565b346100f25761031a6103143660046102de565b90610505565b604051005b346100f25761031a6103323660046102de565b906105c0565b346100f25761014e61013c61034e3660046102de565b90610493565b61011a6000610188565b61011a610354565b346100f257610376366004610152565b61014e61017861035e565b91906040838203126100f25761011a9061039b81856102d1565b9360200161028c565b346100f25761031a6103b7366004610381565b90610886565b346100f25761031a6103d03660046102de565b906105b6565b7f7965db0b000000000000000000000000000000000000000000000000000000007fffffffff00000000000000000000000000000000000000000000000000000000821614908115610426575090565b61011a91507fffffffff00000000000000000000000000000000000000000000000000000000167f01ffc9a7000000000000000000000000000000000000000000000000000000001490565b905b600052602052604060002090565b9061047490610226565b5460ff1690565b61011a916104ad916104a760009182610472565b01610482565b61048c565b61011a9081565b61011a90546104b2565b60016104dc61011a926104d4600090565b506000610472565b016104b9565b90610104916104f86104f3826104c3565b61050f565b906105029161064e565b50565b90610104916104e2565b610104903390610542565b61011d90610204565b91602061010492949361053e6040820196600083019061051a565b0152565b906105546105508284610493565b1590565b61055c575050565b61059761056860405190565b9283927fe2517d3f00000000000000000000000000000000000000000000000000000000845260048401610523565b0390fd5b90610104916105ac6104f3826104c3565b90610502916106ca565b906101049161059b565b906105ca33610204565b6105d382610204565b036105e157610502916106ca565b6040517f6697b232000000000000000000000000000000000000000000000000000000008152600490fd5b9061061c61011a61064a92151590565b82547fffffffffffffffffffffffffffffffffffffffffffffffffffffffffffffff001660ff919091161790565b9055565b61065b6105508383610493565b156106c35760019161067c836106778360006104a78782610472565b61060c565b33906106b26106ac6106ac7f2f8788117e7eff1d82e926ec794901d17c78024a50270940304540a733656f0d9590565b92610226565b926106bc60405190565b600090a490565b5050600090565b906106d58183610493565b156106c3576106ee600061067783826104a78782610472565b339061071e6106ac6106ac7ff6391f5c32d9c69d2a47ea670b442974b53935d1edc7fd64eb21e047a839171b9590565b9261072860405190565b600090a4600190565b90610104916107416104f3610195565b6107ef565b7f4e487b7100000000000000000000000000000000000000000000000000000000600052604160045260246000fd5b90601f017fffffffffffffffffffffffffffffffffffffffffffffffffffffffffffffffe016810190811067ffffffffffffffff8211176107b557604052565b610746565b8015156100eb565b90505190610104826107ba565b906020828203126100f25761011a916107c2565b6040513d6000823e3d90fd5b60209061081b7f0000000000000000000000000000000000000000000000000000000000000000610226565b61083e600063a9059cbb61084961083160405190565b9788968795869460e01b90565b845260048401610523565b03925af180156108815761085a5750565b6105029060203d811161087a575b6108728183610775565b8101906107cf565b503d610868565b6107e3565b9061010491610731565b9050519061010482610286565b906020828203126100f25761011a91610890565b602081019291610104919061051a565b61092360206108ef7f0000000000000000000000000000000000000000000000000000000000000000610226565b6370a082319061091861090130610226565b9261090b60405190565b9586948593849360e01b90565b8352600483016108b1565b03915afa90811561088157600091610939575090565b61011a915060203d811161095a575b6109528183610775565b81019061089d565b503d61094856fea264697066735822122099633a56857c424837cd7241d94be8a8928cc96d0f97c3e7bb3c0e0391625a9364736f6c63430008140033",
  "linkReferences": {},
  "deployedLinkReferences": {},
  "chainId": 80001,
  "address": "0xfe6364306822AB31e568aFe64CAb4023D0f072A6"
}