{
  "_format": "hh-sol-artifact-1",
  "contractName": "FUSDT",
  "sourceName": "contracts/tokens/FUSDT.sol",
  "abi": [
    {
      "inputs": [
        {
          "internalType": "contract IERC20",
          "name": "_usdt",
          "type": "address"
        }
      ],
      "stateMutability": "nonpayable",
      "type": "constructor"
    },
    {
      "inputs": [
        {
          "internalType": "address",
          "name": "spender",
          "type": "address"
        },
        {
          "internalType": "uint256",
          "name": "allowance",
          "type": "uint256"
        },
        {
          "internalType": "uint256",
          "name": "needed",
          "type": "uint256"
        }
      ],
      "name": "ERC20InsufficientAllowance",
      "type": "error"
    },
    {
      "inputs": [
        {
          "internalType": "address",
          "name": "sender",
          "type": "address"
        },
        {
          "internalType": "uint256",
          "name": "balance",
          "type": "uint256"
        },
        {
          "internalType": "uint256",
          "name": "needed",
          "type": "uint256"
        }
      ],
      "name": "ERC20InsufficientBalance",
      "type": "error"
    },
    {
      "inputs": [
        {
          "internalType": "address",
          "name": "approver",
          "type": "address"
        }
      ],
      "name": "ERC20InvalidApprover",
      "type": "error"
    },
    {
      "inputs": [
        {
          "internalType": "address",
          "name": "receiver",
          "type": "address"
        }
      ],
      "name": "ERC20InvalidReceiver",
      "type": "error"
    },
    {
      "inputs": [
        {
          "internalType": "address",
          "name": "sender",
          "type": "address"
        }
      ],
      "name": "ERC20InvalidSender",
      "type": "error"
    },
    {
      "inputs": [
        {
          "internalType": "address",
          "name": "spender",
          "type": "address"
        }
      ],
      "name": "ERC20InvalidSpender",
      "type": "error"
    },
    {
      "inputs": [],
      "name": "InsufficientWrappedBalance",
      "type": "error"
    },
    {
      "inputs": [],
      "name": "ReentrancyGuardReentrantCall",
      "type": "error"
    },
    {
      "anonymous": false,
      "inputs": [
        {
          "indexed": true,
          "internalType": "address",
          "name": "owner",
          "type": "address"
        },
        {
          "indexed": true,
          "internalType": "address",
          "name": "spender",
          "type": "address"
        },
        {
          "indexed": false,
          "internalType": "uint256",
          "name": "value",
          "type": "uint256"
        }
      ],
      "name": "Approval",
      "type": "event"
    },
    {
      "anonymous": false,
      "inputs": [
        {
          "indexed": true,
          "internalType": "address",
          "name": "from",
          "type": "address"
        },
        {
          "indexed": true,
          "internalType": "address",
          "name": "to",
          "type": "address"
        },
        {
          "indexed": false,
          "internalType": "uint256",
          "name": "value",
          "type": "uint256"
        }
      ],
      "name": "Transfer",
      "type": "event"
    },
    {
      "anonymous": false,
      "inputs": [
        {
          "indexed": true,
          "internalType": "address",
          "name": "user",
          "type": "address"
        },
        {
          "indexed": false,
          "internalType": "uint256",
          "name": "_amount",
          "type": "uint256"
        }
      ],
      "name": "UnWrapUSDT",
      "type": "event"
    },
    {
      "anonymous": false,
      "inputs": [
        {
          "indexed": true,
          "internalType": "address",
          "name": "user",
          "type": "address"
        },
        {
          "indexed": false,
          "internalType": "uint256",
          "name": "_amount",
          "type": "uint256"
        }
      ],
      "name": "WrapUSDT",
      "type": "event"
    },
    {
      "inputs": [],
      "name": "USDT",
      "outputs": [
        {
          "internalType": "contract IERC20",
          "name": "",
          "type": "address"
        }
      ],
      "stateMutability": "view",
      "type": "function"
    },
    {
      "inputs": [
        {
          "internalType": "address",
          "name": "owner",
          "type": "address"
        },
        {
          "internalType": "address",
          "name": "spender",
          "type": "address"
        }
      ],
      "name": "allowance",
      "outputs": [
        {
          "internalType": "uint256",
          "name": "",
          "type": "uint256"
        }
      ],
      "stateMutability": "view",
      "type": "function"
    },
    {
      "inputs": [
        {
          "internalType": "address",
          "name": "spender",
          "type": "address"
        },
        {
          "internalType": "uint256",
          "name": "value",
          "type": "uint256"
        }
      ],
      "name": "approve",
      "outputs": [
        {
          "internalType": "bool",
          "name": "",
          "type": "bool"
        }
      ],
      "stateMutability": "nonpayable",
      "type": "function"
    },
    {
      "inputs": [
        {
          "internalType": "address",
          "name": "account",
          "type": "address"
        }
      ],
      "name": "balanceOf",
      "outputs": [
        {
          "internalType": "uint256",
          "name": "",
          "type": "uint256"
        }
      ],
      "stateMutability": "view",
      "type": "function"
    },
    {
      "inputs": [
        {
          "internalType": "uint256",
          "name": "value",
          "type": "uint256"
        }
      ],
      "name": "burn",
      "outputs": [],
      "stateMutability": "nonpayable",
      "type": "function"
    },
    {
      "inputs": [
        {
          "internalType": "address",
          "name": "account",
          "type": "address"
        },
        {
          "internalType": "uint256",
          "name": "value",
          "type": "uint256"
        }
      ],
      "name": "burnFrom",
      "outputs": [],
      "stateMutability": "nonpayable",
      "type": "function"
    },
    {
      "inputs": [],
      "name": "decimals",
      "outputs": [
        {
          "internalType": "uint8",
          "name": "",
          "type": "uint8"
        }
      ],
      "stateMutability": "view",
      "type": "function"
    },
    {
      "inputs": [],
      "name": "name",
      "outputs": [
        {
          "internalType": "string",
          "name": "",
          "type": "string"
        }
      ],
      "stateMutability": "view",
      "type": "function"
    },
    {
      "inputs": [],
      "name": "symbol",
      "outputs": [
        {
          "internalType": "string",
          "name": "",
          "type": "string"
        }
      ],
      "stateMutability": "view",
      "type": "function"
    },
    {
      "inputs": [],
      "name": "totalSupply",
      "outputs": [
        {
          "internalType": "uint256",
          "name": "",
          "type": "uint256"
        }
      ],
      "stateMutability": "view",
      "type": "function"
    },
    {
      "inputs": [
        {
          "internalType": "address",
          "name": "to",
          "type": "address"
        },
        {
          "internalType": "uint256",
          "name": "value",
          "type": "uint256"
        }
      ],
      "name": "transfer",
      "outputs": [
        {
          "internalType": "bool",
          "name": "",
          "type": "bool"
        }
      ],
      "stateMutability": "nonpayable",
      "type": "function"
    },
    {
      "inputs": [
        {
          "internalType": "address",
          "name": "from",
          "type": "address"
        },
        {
          "internalType": "address",
          "name": "to",
          "type": "address"
        },
        {
          "internalType": "uint256",
          "name": "value",
          "type": "uint256"
        }
      ],
      "name": "transferFrom",
      "outputs": [
        {
          "internalType": "bool",
          "name": "",
          "type": "bool"
        }
      ],
      "stateMutability": "nonpayable",
      "type": "function"
    },
    {
      "inputs": [
        {
          "internalType": "uint256",
          "name": "_amount",
          "type": "uint256"
        }
      ],
      "name": "unWrapUSDT",
      "outputs": [],
      "stateMutability": "nonpayable",
      "type": "function"
    },
    {
      "inputs": [
        {
          "internalType": "uint256",
          "name": "_amount",
          "type": "uint256"
        }
      ],
      "name": "wrapUSDT",
      "outputs": [],
      "stateMutability": "nonpayable",
      "type": "function"
    },
    {
      "inputs": [
        {
          "internalType": "address",
          "name": "",
          "type": "address"
        }
      ],
      "name": "wrappedBalanceOf",
      "outputs": [
        {
          "internalType": "uint256",
          "name": "",
          "type": "uint256"
        }
      ],
      "stateMutability": "view",
      "type": "function"
    }
  ],
  "bytecode": "0x60a06040523462000047576200001e62000018620000de565b6200018e565b6040516110bb6200042f82396080518181816104d401528181610dc60152610fcd01526110bb90f35b600080fd5b634e487b7160e01b600052604160045260246000fd5b90601f01601f191681019081106001600160401b038211176200008457604052565b6200004c565b90620000a16200009960405190565b928362000062565b565b90565b6001600160a01b038116036200004757565b90505190620000a182620000a6565b906020828203126200004757620000a391620000b8565b620000a3620014ea80380380620000f5816200008a565b928339810190620000c7565b6001600160401b0381116200008457602090601f01601f19160190565b90620001346200012e8362000101565b6200008a565b918252565b62000145600c6200011e565b6b119bdc9d1d5b99481554d11560a21b602082015290565b620000a362000139565b6200017360056200011e565b64119554d11560da1b602082015290565b620000a362000167565b620001ad6200019c6200015d565b620001a662000184565b90620001fe565b608052565b620000a3620000a3620000a39290565b620000a36001620001b2565b90600019905b9181191691161790565b90620001f2620000a3620001fa92620001b2565b8254620001ce565b9055565b906200020a9162000220565b620000a162000218620001c2565b6005620001de565b90620000a19162000414565b634e487b7160e01b600052602260045260246000fd5b906001600283049216801562000265575b60208310146200025f57565b6200022c565b91607f169162000253565b9160001960089290920291821b911b620001d4565b91906200029a620000a3620001fa93620001b2565b90835462000270565b620000a19160009162000285565b818110620002bd575050565b80620002cd6000600193620002a3565b01620002b1565b9190601f8111620002e457505050565b620002f8620000a193600052602060002090565b906020601f8401819004830193106200031c575b6020601f909101040190620002b1565b90915081906200030c565b9062000331815190565b906001600160401b0382116200008457620003598262000352855462000242565b85620002d4565b602090601f83116001146200039857620001fa9291600091836200038c575b5050600019600883021c1916906002021790565b01519050388062000378565b601f19831691620003ae85600052602060002090565b9260005b818110620003ef57509160029391856001969410620003d5575b50505002019055565b01516000196008601f8516021c19169055388080620003cc565b91936020600181928787015181550195019201620003b2565b90620000a19162000327565b9062000426620000a192600362000408565b60046200040856fe6080604052600436101561001257600080fd5b60003560e01c806306db3e651461010257806306fdde03146100fd578063095ea7b3146100f857806318160ddd146100f357806323b872dd146100ee578063313ce567146100e957806342966c68146100e457806352b8c4fb146100df57806370a08231146100da57806379cc6790146100d557806383546a9f146100d057806395d89b41146100cb578063a9059cbb146100c6578063c54e44eb146100c15763dd62ed3e036101425761051c565b6104bb565b610486565b61046b565b610453565b610432565b610417565b6103ff565b6103e2565b61039f565b610383565b610338565b61030a565b6102ad565b6101e8565b73ffffffffffffffffffffffffffffffffffffffff1690565b90565b73ffffffffffffffffffffffffffffffffffffffff81165b0361014257565b600080fd5b9050359061015482610123565b565b906020828203126101425761012091610147565b6101076101206101209273ffffffffffffffffffffffffffffffffffffffff1690565b6101209061016a565b6101209061018d565b906101a990610196565b600052602052604060002090565b610120916008021c81565b9061012091546101b7565b610120906101df60069160009261019f565b6101c2565b9052565b34610142576102146102036101fe366004610156565b6101cd565b6040515b9182918290815260200190565b0390f35b600091031261014257565b60005b8381106102365750506000910152565b8181015183820152602001610226565b6102676102706020936102989361025b815190565b80835293849260200190565b95869101610223565b601f017fffffffffffffffffffffffffffffffffffffffffffffffffffffffffffffffe01690565b0190565b602080825261012092910190610246565b34610142576102bd366004610218565b6102146102c86106bd565b6040519182918261029c565b8061013b565b90503590610154826102d4565b919060408382031261014257610120906103018185610147565b936020016102da565b34610142576102146103266103203660046102e7565b9061073d565b60405191829182901515815260200190565b3461014257610348366004610218565b6102146102036106e2565b90916060828403126101425761012061036c8484610147565b9361037a8160208601610147565b936040016102da565b3461014257610214610326610399366004610353565b91610748565b34610142576103af366004610218565b6102146103ba610d38565b6040519182918260ff909116815260200190565b9060208282031261014257610120916102da565b34610142576103fa6103f53660046103ce565b610cc7565b604051005b34610142576103fa6104123660046103ce565b61107c565b346101425761021461020361042d366004610156565b6106ec565b34610142576103fa6104453660046102e7565b61015491610ccd8233610754565b34610142576103fa6104663660046103ce565b610eaf565b346101425761047b366004610218565b6102146102c86106c7565b346101425761021461032661049c3660046102e7565b90610708565b6101e490610196565b60208101929161015491906104a2565b34610142576104cb366004610218565b604051806102147f0000000000000000000000000000000000000000000000000000000000000000826104ab565b919060408382031261014257610120906105138185610147565b93602001610147565b34610142576102146102036105323660046104f9565b9061071d565b7f4e487b7100000000000000000000000000000000000000000000000000000000600052602260045260246000fd5b9060016002830492168015610587575b602083101461058257565b610538565b91607f1691610577565b805460009392916105ae6105a483610567565b8085529360200190565b916001811690811561060057506001146105c757505050565b6105da9192939450600052602060002090565b916000925b8184106105ec5750500190565b8054848401526020909301926001016105df565b92949550505060ff1916825215156020020190565b9061012091610591565b7f4e487b7100000000000000000000000000000000000000000000000000000000600052604160045260246000fd5b90601f017fffffffffffffffffffffffffffffffffffffffffffffffffffffffffffffffe016810190811067ffffffffffffffff82111761068e57604052565b61061f565b906101546106ad926106a460405190565b93848092610615565b038361064e565b61012090610693565b61012060036106b4565b61012060046106b4565b6101209081565b61012090546106d1565b61012060026106d8565b610703610120916106fb600090565b50600061019f565b6106d8565b610718919033610770565b610770565b600190565b6101209161073861070392610730600090565b50600161019f565b61019f565b610718919033610aad565b61071892919061071383335b83610c25565b6101076101206101209290565b6101209061075a565b92919061077d6000610767565b9373ffffffffffffffffffffffffffffffffffffffff851673ffffffffffffffffffffffffffffffffffffffff82161461084a5773ffffffffffffffffffffffffffffffffffffffff851673ffffffffffffffffffffffffffffffffffffffff8316146107ef5761015493945061093b565b610846856107fc60405190565b9182917fec442f050000000000000000000000000000000000000000000000000000000083526004830173ffffffffffffffffffffffffffffffffffffffff909116815260200190565b0390fd5b6108468561085760405190565b9182917f96c6fd1e0000000000000000000000000000000000000000000000000000000083526004830173ffffffffffffffffffffffffffffffffffffffff909116815260200190565b73ffffffffffffffffffffffffffffffffffffffff90911681526060810193926101549290916040916108d5906020830152565b0152565b6101206101206101209290565b906101206101206108f6926108d9565b9055565b7f4e487b7100000000000000000000000000000000000000000000000000000000600052601160045260246000fd5b9190820180921161093657565b6108fa565b81600061094781610767565b73ffffffffffffffffffffffffffffffffffffffff811673ffffffffffffffffffffffffffffffffffffffff851603610a385761099b906101076109948861098f60026106d8565b610929565b60026108e6565b73ffffffffffffffffffffffffffffffffffffffff831603610a135750506109ce610994846109ca60026106d8565b0390565b610a0e610a046109fe7fddf252ad1be2c89b69c2b068fc378daa952ba7f163c4a11628f55a4df523b3ef93610196565b93610196565b9361020760405190565b0390a3565b610a3391610a209161019f565b610a2d85610298836106d8565b906108e6565b6109ce565b909150610a48610703848461019f565b858110610a7057849291610107610a618861099b940390565b610a6b878661019f565b6108e6565b8361084687610a7e60405190565b9384937fe450d38c000000000000000000000000000000000000000000000000000000008552600485016108a1565b9091610154926001925b909192610ac46000610767565b73ffffffffffffffffffffffffffffffffffffffff811673ffffffffffffffffffffffffffffffffffffffff841614610bce5773ffffffffffffffffffffffffffffffffffffffff811673ffffffffffffffffffffffffffffffffffffffff851614610b775750610b3e84610a6b8561073886600161019f565b610b4757505050565b610a0e610a046109fe7f8c5be1e5ebec7d5bd14f71427d1e84f3dd0314c0f7b2291e5b200ac8c7c3b92593610196565b61084690610b8460405190565b9182917f94280d620000000000000000000000000000000000000000000000000000000083526004830173ffffffffffffffffffffffffffffffffffffffff909116815260200190565b61084690610bdb60405190565b9182917fe602df050000000000000000000000000000000000000000000000000000000083526004830173ffffffffffffffffffffffffffffffffffffffff909116815260200190565b90929192610c33818361071d565b937fffffffffffffffffffffffffffffffffffffffffffffffffffffffffffffffff8503610c63575b5050509050565b808510610c8957610c7790610c8094950390565b90600092610ab7565b80388080610c5c565b906108468592610c9860405190565b9384937ffb8f41b2000000000000000000000000000000000000000000000000000000008552600485016108a1565b61015490335b9190610cd96000610767565b9273ffffffffffffffffffffffffffffffffffffffff841673ffffffffffffffffffffffffffffffffffffffff821614610d185792610154929361093b565b6108468461085760405190565b610d326101206101209290565b60ff1690565b6101206006610d25565b610d5390610d4e610f19565b610dc1565b610154610f72565b80151561013b565b9050519061015482610d5b565b906020828203126101425761012091610d63565b73ffffffffffffffffffffffffffffffffffffffff9182168152911660208201526060810192916101549160400152565b6040513d6000823e3d90fd5b610dea7f0000000000000000000000000000000000000000000000000000000000000000610196565b8160206323b872dd3393610e1c6000610e0230610196565b93610e28610e0f60405190565b9788968795869460e01b90565b84528a60048501610d84565b03925af18015610eaa57610e7e575b50610e428282610eb8565b610e79610e6f7fabbd23ed19128f9ed6b68dda7743c7f58f1de6bf8e7f34f2c20082b38fee763b92610196565b9261020760405190565b0390a2565b610e9e9060203d8111610ea3575b610e96818361064e565b810190610d70565b610e37565b503d610e8c565b610db5565b61015490610d42565b9190610ec46000610767565b9273ffffffffffffffffffffffffffffffffffffffff841673ffffffffffffffffffffffffffffffffffffffff821614610f0257610154929361093b565b610846846107fc60405190565b61012060026108d9565b610f2360056106d8565b610f2b610f0f565b908114610f3d576101549060056108e6565b6040517f3ee5aeb5000000000000000000000000000000000000000000000000000000008152600490fd5b61012060016108d9565b610154610f7d610f68565b60056108e6565b610d5390610f90610f19565b610fbf565b73ffffffffffffffffffffffffffffffffffffffff90911681526040810192916101549160200152565b610fc881610cc7565b610ff17f0000000000000000000000000000000000000000000000000000000000000000610196565b61100f602063a9059cbb339361100660405190565b93849260e01b90565b825281600081611023898960048401610f95565b03925af18015610eaa57611060575b50610e79610e6f7f23f1df62f9425b2c272f9d3c8e7e268e5131b5c07fd15bf7e188f366dc96cd6792610196565b6110779060203d8111610ea357610e96818361064e565b611032565b61015490610f8456fea264697066735822122013da250d6f7dcfb65fb4e773c26f89917fcf08b76226cd7432c8498ba533f58a64736f6c63430008140033",
  "linkReferences": {},
  "deployedLinkReferences": {},
  "chainId": 11155111,
  "address": "0x7aEcf9c9C656aC4044833B1387248ef2ed4579A3"
}