{
  "_format": "hh-sol-artifact-1",
  "contractName": "ChainLinkRegister",
  "sourceName": "contracts/chainlink/ChainLinkRegister.sol",
  "abi": [
    {
      "inputs": [
        {
          "internalType": "contract IERC20",
          "name": "_link",
          "type": "address"
        },
        {
          "internalType": "contract IAutomationRegistrar2_1",
          "name": "_registrar",
          "type": "address"
        },
        {
          "internalType": "contract VRFCoordinatorV2Interface",
          "name": "_vrfCoordinator",
          "type": "address"
        }
      ],
      "stateMutability": "nonpayable",
      "type": "constructor"
    },
    {
      "inputs": [],
      "name": "AccessControlBadConfirmation",
      "type": "error"
    },
    {
      "inputs": [
        {
          "internalType": "address",
          "name": "account",
          "type": "address"
        },
        {
          "internalType": "bytes32",
          "name": "neededRole",
          "type": "bytes32"
        }
      ],
      "name": "AccessControlUnauthorizedAccount",
      "type": "error"
    },
    {
      "inputs": [],
      "name": "registerFailure",
      "type": "error"
    },
    {
      "anonymous": false,
      "inputs": [
        {
          "indexed": true,
          "internalType": "bytes32",
          "name": "role",
          "type": "bytes32"
        },
        {
          "indexed": true,
          "internalType": "bytes32",
          "name": "previousAdminRole",
          "type": "bytes32"
        },
        {
          "indexed": true,
          "internalType": "bytes32",
          "name": "newAdminRole",
          "type": "bytes32"
        }
      ],
      "name": "RoleAdminChanged",
      "type": "event"
    },
    {
      "anonymous": false,
      "inputs": [
        {
          "indexed": true,
          "internalType": "bytes32",
          "name": "role",
          "type": "bytes32"
        },
        {
          "indexed": true,
          "internalType": "address",
          "name": "account",
          "type": "address"
        },
        {
          "indexed": true,
          "internalType": "address",
          "name": "sender",
          "type": "address"
        }
      ],
      "name": "RoleGranted",
      "type": "event"
    },
    {
      "anonymous": false,
      "inputs": [
        {
          "indexed": true,
          "internalType": "bytes32",
          "name": "role",
          "type": "bytes32"
        },
        {
          "indexed": true,
          "internalType": "address",
          "name": "account",
          "type": "address"
        },
        {
          "indexed": true,
          "internalType": "address",
          "name": "sender",
          "type": "address"
        }
      ],
      "name": "RoleRevoked",
      "type": "event"
    },
    {
      "inputs": [],
      "name": "DEFAULT_ADMIN_ROLE",
      "outputs": [
        {
          "internalType": "bytes32",
          "name": "",
          "type": "bytes32"
        }
      ],
      "stateMutability": "view",
      "type": "function"
    },
    {
      "inputs": [],
      "name": "LINK",
      "outputs": [
        {
          "internalType": "contract IERC20",
          "name": "",
          "type": "address"
        }
      ],
      "stateMutability": "view",
      "type": "function"
    },
    {
      "inputs": [],
      "name": "MANAGER",
      "outputs": [
        {
          "internalType": "bytes32",
          "name": "",
          "type": "bytes32"
        }
      ],
      "stateMutability": "view",
      "type": "function"
    },
    {
      "inputs": [],
      "name": "REGISTRAR",
      "outputs": [
        {
          "internalType": "contract IAutomationRegistrar2_1",
          "name": "",
          "type": "address"
        }
      ],
      "stateMutability": "view",
      "type": "function"
    },
    {
      "inputs": [],
      "name": "VRF_COORDINATOR",
      "outputs": [
        {
          "internalType": "contract VRFCoordinatorV2Interface",
          "name": "",
          "type": "address"
        }
      ],
      "stateMutability": "view",
      "type": "function"
    },
    {
      "inputs": [
        {
          "internalType": "bytes32",
          "name": "role",
          "type": "bytes32"
        }
      ],
      "name": "getRoleAdmin",
      "outputs": [
        {
          "internalType": "bytes32",
          "name": "",
          "type": "bytes32"
        }
      ],
      "stateMutability": "view",
      "type": "function"
    },
    {
      "inputs": [
        {
          "internalType": "bytes32",
          "name": "role",
          "type": "bytes32"
        },
        {
          "internalType": "address",
          "name": "account",
          "type": "address"
        }
      ],
      "name": "grantRole",
      "outputs": [],
      "stateMutability": "nonpayable",
      "type": "function"
    },
    {
      "inputs": [
        {
          "internalType": "bytes32",
          "name": "role",
          "type": "bytes32"
        },
        {
          "internalType": "address",
          "name": "account",
          "type": "address"
        }
      ],
      "name": "hasRole",
      "outputs": [
        {
          "internalType": "bool",
          "name": "",
          "type": "bool"
        }
      ],
      "stateMutability": "view",
      "type": "function"
    },
    {
      "inputs": [
        {
          "components": [
            {
              "internalType": "string",
              "name": "name",
              "type": "string"
            },
            {
              "internalType": "bytes",
              "name": "encryptedEmail",
              "type": "bytes"
            },
            {
              "internalType": "address",
              "name": "upkeepContract",
              "type": "address"
            },
            {
              "internalType": "uint32",
              "name": "gasLimit",
              "type": "uint32"
            },
            {
              "internalType": "address",
              "name": "adminAddress",
              "type": "address"
            },
            {
              "internalType": "uint8",
              "name": "triggerType",
              "type": "uint8"
            },
            {
              "internalType": "bytes",
              "name": "checkData",
              "type": "bytes"
            },
            {
              "internalType": "bytes",
              "name": "triggerConfig",
              "type": "bytes"
            },
            {
              "internalType": "bytes",
              "name": "offchainConfig",
              "type": "bytes"
            },
            {
              "internalType": "uint96",
              "name": "amount",
              "type": "uint96"
            }
          ],
          "internalType": "struct IAutomationStruct.RegistrationParams",
          "name": "_params",
          "type": "tuple"
        }
      ],
      "name": "registerUpKeep",
      "outputs": [],
      "stateMutability": "nonpayable",
      "type": "function"
    },
    {
      "inputs": [
        {
          "internalType": "address",
          "name": "_consumer",
          "type": "address"
        }
      ],
      "name": "registerVRF",
      "outputs": [],
      "stateMutability": "nonpayable",
      "type": "function"
    },
    {
      "inputs": [
        {
          "internalType": "bytes32",
          "name": "role",
          "type": "bytes32"
        },
        {
          "internalType": "address",
          "name": "callerConfirmation",
          "type": "address"
        }
      ],
      "name": "renounceRole",
      "outputs": [],
      "stateMutability": "nonpayable",
      "type": "function"
    },
    {
      "inputs": [
        {
          "internalType": "bytes32",
          "name": "role",
          "type": "bytes32"
        },
        {
          "internalType": "address",
          "name": "account",
          "type": "address"
        }
      ],
      "name": "revokeRole",
      "outputs": [],
      "stateMutability": "nonpayable",
      "type": "function"
    },
    {
      "inputs": [
        {
          "internalType": "bytes4",
          "name": "interfaceId",
          "type": "bytes4"
        }
      ],
      "name": "supportsInterface",
      "outputs": [
        {
          "internalType": "bool",
          "name": "",
          "type": "bool"
        }
      ],
      "stateMutability": "view",
      "type": "function"
    },
    {
      "inputs": [],
      "name": "upkeepRegisterId",
      "outputs": [
        {
          "internalType": "uint256",
          "name": "",
          "type": "uint256"
        }
      ],
      "stateMutability": "view",
      "type": "function"
    },
    {
      "inputs": [],
      "name": "vrfSubscriptionId",
      "outputs": [
        {
          "internalType": "uint64",
          "name": "",
          "type": "uint64"
        }
      ],
      "stateMutability": "view",
      "type": "function"
    }
  ],
  "bytecode": "0x60e060405234620000665762000024620000186200012a565b9160805260a05260c052565b6040516110cf6200015382396080518181816102c30152610c87015260a0518181816104600152610d22015260c0518181816102190152610f3e01526110cf90f35b600080fd5b634e487b7160e01b600052604160045260246000fd5b90601f01601f191681019081106001600160401b03821117620000a357604052565b6200006b565b90620000c0620000b860405190565b928362000081565b565b90565b6001600160a01b031690565b620000dc81620000c5565b036200006657565b90505190620000c082620000d1565b90916060828403126200006657620000c2620001108484620000e4565b93620001208160208601620000e4565b93604001620000e4565b6200014d62001222803803806200014181620000a9565b928339810190620000f3565b90919256fe6080604052600436101561001257600080fd5b60003560e01c806301ffc9a71461010257806305f6a924146100fd5780631b2df850146100f85780631b6b6d23146100f357806321719628146100ee578063248a9ca3146100e95780632f2ff15d146100e457806336568abe146100df57806391d14854146100da578063a217fddf146100d5578063b73ebc3e146100d0578063cb609077146100cb578063d017d743146100c6578063d547741f146100c15763ed647d210361013257610517565b6104d1565b6104b9565b61044b565b610433565b610404565b6103d6565b6103bd565b61039f565b61034b565b610309565b6102ae565b610283565b610204565b610161565b7fffffffff0000000000000000000000000000000000000000000000000000000081165b0361013257565b600080fd5b9050359061014482610107565b565b906020828203126101325761015a91610137565b90565b9052565b346101325761018e61017c610177366004610146565b61054d565b60405191829182901515815260200190565b0390f35b600091031261013257565b6101c061015a61015a9273ffffffffffffffffffffffffffffffffffffffff1690565b73ffffffffffffffffffffffffffffffffffffffff1690565b61015a9061019d565b61015a906101d9565b61015d906101e2565b60208101929161014491906101eb565b3461013257610214366004610192565b61018e7f00000000000000000000000000000000000000000000000000000000000000005b604051918291826101f4565b61015a61015a61015a9290565b61015a7faf290d8680820aad922855f39b306097b20e28774d6c1ad35a20325630c3a02c610245565b61015a610252565b3461013257610293366004610192565b61018e61029e61027b565b6040519182918290815260200190565b34610132576102be366004610192565b61018e7f0000000000000000000000000000000000000000000000000000000000000000610239565b61015a916008021c81565b9061015a91546102e7565b61015a600060026102f2565b3461013257610319366004610192565b61018e61029e6102fd565b8061012b565b9050359061014482610324565b906020828203126101325761015a9161032a565b346101325761018e61029e610361366004610337565b61063a565b61012b816101c0565b9050359061014482610366565b91906040838203126101325761015a90610396818561032a565b9360200161036f565b34610132576103b86103b236600461037c565b9061067c565b604051005b34610132576103b86103d036600461037c565b90610737565b346101325761018e61017c6103ec36600461037c565b9061060a565b61015a6000610245565b61015a6103f2565b3461013257610414366004610192565b61018e61029e6103fc565b906020828203126101325761015a9161036f565b34610132576103b861044636600461041f565b610f39565b346101325761045b366004610192565b61018e7f0000000000000000000000000000000000000000000000000000000000000000610239565b90816101409103126101325790565b9060208282031261013257813567ffffffffffffffff81116101325761015a9201610484565b34610132576103b86104cc366004610493565b610c82565b34610132576103b86104e436600461037c565b9061072d565b61015a916008021c5b67ffffffffffffffff1690565b9061015a91546104ea565b61015a60006001610500565b3461013257610527366004610192565b61018e61053261050b565b6040519182918267ffffffffffffffff909116815260200190565b7f7965db0b000000000000000000000000000000000000000000000000000000007fffffffff0000000000000000000000000000000000000000000000000000000082161490811561059d575090565b61015a91507fffffffff00000000000000000000000000000000000000000000000000000000167f01ffc9a7000000000000000000000000000000000000000000000000000000001490565b905b600052602052604060002090565b906105eb906101e2565b5460ff1690565b61015a916106249161061e600091826105e9565b016105f9565b610603565b61015a9081565b61015a9054610629565b600161065361015a9261064b600090565b5060006105e9565b01610630565b906101449161066f61066a8261063a565b610686565b90610679916107ad565b50565b9061014491610659565b6101449033906106b9565b61015d906101c0565b9160206101449294936106b560408201966000830190610691565b0152565b906106cb6106c7828461060a565b1590565b6106d3575050565b61070e6106df60405190565b9283927fe2517d3f0000000000000000000000000000000000000000000000000000000084526004840161069a565b0390fd5b906101449161072361066a8261063a565b9061067991610829565b9061014491610712565b90610741336101c0565b61074a826101c0565b036107585761067991610829565b6040517f6697b232000000000000000000000000000000000000000000000000000000008152600490fd5b9060ff905b9181191691161790565b906107a261015a6107a992151590565b8254610783565b9055565b6107ba6106c7838361060a565b15610822576001916107db836107d683600061061e87826105e9565b610792565b339061081161080b61080b7f2f8788117e7eff1d82e926ec794901d17c78024a50270940304540a733656f0d9590565b926101e2565b9261081b60405190565b600090a490565b5050600090565b90610834818361060a565b156108225761084d60006107d6838261061e87826105e9565b339061087d61080b61080b7ff6391f5c32d9c69d2a47ea670b442974b53935d1edc7fd64eb21e047a839171b9590565b9261088760405190565b600090a4600190565b6bffffffffffffffffffffffff811661012b565b3561015a81610890565b7f4e487b7100000000000000000000000000000000000000000000000000000000600052604160045260246000fd5b90601f017fffffffffffffffffffffffffffffffffffffffffffffffffffffffffffffffe016810190811067ffffffffffffffff82111761091d57604052565b6108ae565b80151561012b565b9050519061014482610922565b906020828203126101325761015a9161092a565b61015a61015a61015a926bffffffffffffffffffffffff1690565b61015d9061094b565b604090610999610144949695939661098f60608401986000850190610691565b6020830190610691565b0190610966565b6040513d6000823e3d90fd5b91602061014492949361099960408201966000830190610691565b9050519061014482610324565b906020828203126101325761015a916109c7565b90357fffffffffffffffffffffffffffffffffffffffffffffffffffffffffffffffe1368390030181121561013257016020813591019167ffffffffffffffff82116101325736829003831361013257565b90826000939282370152565b9190610a6481610a5d81610a8c9560209181520190565b8095610a3a565b601f017fffffffffffffffffffffffffffffffffffffffffffffffffffffffffffffffe01690565b0190565b5061015a90602081019061036f565b63ffffffff811661012b565b9050359061014482610a9f565b5061015a906020810190610aab565b60ff811661012b565b9050359061014482610ac7565b5061015a906020810190610ad0565b9050359061014482610890565b5061015a906020810190610aec565b9061015a90610120610c1f610c15610bf8610bdd610b57610b3c6101408801610b318b806109e8565b8a83038b5290610a46565b610b4960208b018b6109e8565b9089830360208b0152610a46565b610b71610b6760408b018b610a90565b6040890190610691565b610b8e610b8160608b018b610ab8565b63ffffffff166060890152565b610ba8610b9e60808b018b610a90565b6080890190610691565b610bc2610bb860a08b018b610add565b60ff1660a0890152565b610bcf60c08a018a6109e8565b9088830360c08a0152610a46565b610bea60e08901896109e8565b9087830360e0890152610a46565b610c066101008801886109e8565b90868303610100880152610a46565b9482810190610af9565b6bffffffffffffffffffffffff16910152565b602080825261015a92910190610b08565b907fffffffffffffffffffffffffffffffffffffffffffffffffffffffffffffffff90610788565b90610c7b61015a6107a992610245565b8254610c43565b610cab7f00000000000000000000000000000000000000000000000000000000000000006101e2565b33916323b872dd916020610ce9610cc1306101e2565b94610cf4610120860196610cd4886108a4565b90610cde60405190565b998a95869560e01b90565b85526004850161096f565b03816000855af1908115610e4b57610d6f94602092610e7b575b5063095ea7b390610d636000610d4c610d467f00000000000000000000000000000000000000000000000000000000000000006101e2565b976108a4565b93610d5660405190565b9889958694859360e01b90565b835289600484016109ac565b03925af1918215610e4b57610db293602093610e50575b50610da76000633f678e11610d9a60405190565b9687958694859360e01b90565b835260048301610c32565b03925af18015610e4b57610dd091600091610e1d575b506002610c6b565b610dda6002610630565b610deb610de76000610245565b9190565b14610df257565b6040517f4e6c4ddd000000000000000000000000000000000000000000000000000000008152600490fd5b610e3e915060203d8111610e44575b610e3681836108dd565b8101906109d4565b38610dc8565b503d610e2c565b6109a0565b610e6f90843d8111610e74575b610e6781836108dd565b810190610937565b610d86565b503d610e5d565b610e9190833d8111610e7457610e6781836108dd565b610d0e565b67ffffffffffffffff811661012b565b9050519061014482610e96565b906020828203126101325761015a91610ea6565b9067ffffffffffffffff90610788565b6104f361015a61015a9267ffffffffffffffff1690565b90610efe61015a6107a992610ed7565b8254610ec7565b61015a906104f3565b61015a9054610f05565b67ffffffffffffffff90911681526040810192916101449160200190610691565b610f627f00000000000000000000000000000000000000000000000000000000000000006101e2565b9063a21a23e4610f7b610f7460405190565b9160e01b90565b81526020816004816000875af18015610e4b57610fa29160009161106b575b506001610eee565b637341c10c610fb16001610f0e565b91833b1561013257600091610fe2610fd792610fcc60405190565b958694859460e01b90565b845260048401610f18565b038183865af18015610e4b57611055575b506304c357cb6110036001610f0e565b3392803b1561013257610fd76000809461102c61101f60405190565b9788968795869460e01b90565b03925af18015610e4b5761103d5750565b61014490600061104d81836108dd565b810190610192565b61106590600061104d81836108dd565b38610ff3565b61108c915060203d8111611092575b61108481836108dd565b810190610eb3565b38610f9a565b503d61107a56fea2646970667358221220d8b116ee10d75cb2fe8e9b556181cc32b2fda7ed3e7a5e607e5123a7a7a5e00764736f6c63430008140033",
  "linkReferences": {},
  "deployedLinkReferences": {},
  "chainId": 80001,
  "address": "0x7aE5b125b078DF75b8B8914E827c7Cf7B051C471"
}