{
  "_format": "hh-sol-artifact-1",
  "contractName": "Erc721Prize",
  "sourceName": "contracts/ForTest/Erc721Prize.sol",
  "abi": [
    {
      "inputs": [
        {
          "internalType": "string",
          "name": "_name",
          "type": "string"
        },
        {
          "internalType": "string",
          "name": "_symbol",
          "type": "string"
        },
        {
          "internalType": "address",
          "name": "_owner",
          "type": "address"
        }
      ],
      "stateMutability": "nonpayable",
      "type": "constructor"
    },
    {
      "inputs": [
        {
          "internalType": "address",
          "name": "sender",
          "type": "address"
        },
        {
          "internalType": "uint256",
          "name": "tokenId",
          "type": "uint256"
        },
        {
          "internalType": "address",
          "name": "owner",
          "type": "address"
        }
      ],
      "name": "ERC721IncorrectOwner",
      "type": "error"
    },
    {
      "inputs": [
        {
          "internalType": "address",
          "name": "operator",
          "type": "address"
        },
        {
          "internalType": "uint256",
          "name": "tokenId",
          "type": "uint256"
        }
      ],
      "name": "ERC721InsufficientApproval",
      "type": "error"
    },
    {
      "inputs": [
        {
          "internalType": "address",
          "name": "approver",
          "type": "address"
        }
      ],
      "name": "ERC721InvalidApprover",
      "type": "error"
    },
    {
      "inputs": [
        {
          "internalType": "address",
          "name": "operator",
          "type": "address"
        }
      ],
      "name": "ERC721InvalidOperator",
      "type": "error"
    },
    {
      "inputs": [
        {
          "internalType": "address",
          "name": "owner",
          "type": "address"
        }
      ],
      "name": "ERC721InvalidOwner",
      "type": "error"
    },
    {
      "inputs": [
        {
          "internalType": "address",
          "name": "receiver",
          "type": "address"
        }
      ],
      "name": "ERC721InvalidReceiver",
      "type": "error"
    },
    {
      "inputs": [
        {
          "internalType": "address",
          "name": "sender",
          "type": "address"
        }
      ],
      "name": "ERC721InvalidSender",
      "type": "error"
    },
    {
      "inputs": [
        {
          "internalType": "uint256",
          "name": "tokenId",
          "type": "uint256"
        }
      ],
      "name": "ERC721NonexistentToken",
      "type": "error"
    },
    {
      "inputs": [],
      "name": "OutOfNFT",
      "type": "error"
    },
    {
      "inputs": [
        {
          "internalType": "address",
          "name": "owner",
          "type": "address"
        }
      ],
      "name": "OwnableInvalidOwner",
      "type": "error"
    },
    {
      "inputs": [
        {
          "internalType": "address",
          "name": "account",
          "type": "address"
        }
      ],
      "name": "OwnableUnauthorizedAccount",
      "type": "error"
    },
    {
      "anonymous": false,
      "inputs": [
        {
          "indexed": true,
          "internalType": "address",
          "name": "owner",
          "type": "address"
        },
        {
          "indexed": true,
          "internalType": "address",
          "name": "approved",
          "type": "address"
        },
        {
          "indexed": true,
          "internalType": "uint256",
          "name": "tokenId",
          "type": "uint256"
        }
      ],
      "name": "Approval",
      "type": "event"
    },
    {
      "anonymous": false,
      "inputs": [
        {
          "indexed": true,
          "internalType": "address",
          "name": "owner",
          "type": "address"
        },
        {
          "indexed": true,
          "internalType": "address",
          "name": "operator",
          "type": "address"
        },
        {
          "indexed": false,
          "internalType": "bool",
          "name": "approved",
          "type": "bool"
        }
      ],
      "name": "ApprovalForAll",
      "type": "event"
    },
    {
      "anonymous": false,
      "inputs": [
        {
          "indexed": true,
          "internalType": "address",
          "name": "previousOwner",
          "type": "address"
        },
        {
          "indexed": true,
          "internalType": "address",
          "name": "newOwner",
          "type": "address"
        }
      ],
      "name": "OwnershipTransferred",
      "type": "event"
    },
    {
      "anonymous": false,
      "inputs": [
        {
          "indexed": true,
          "internalType": "address",
          "name": "from",
          "type": "address"
        },
        {
          "indexed": true,
          "internalType": "address",
          "name": "to",
          "type": "address"
        },
        {
          "indexed": true,
          "internalType": "uint256",
          "name": "tokenId",
          "type": "uint256"
        }
      ],
      "name": "Transfer",
      "type": "event"
    },
    {
      "inputs": [
        {
          "internalType": "address",
          "name": "to",
          "type": "address"
        },
        {
          "internalType": "uint256",
          "name": "tokenId",
          "type": "uint256"
        }
      ],
      "name": "approve",
      "outputs": [],
      "stateMutability": "nonpayable",
      "type": "function"
    },
    {
      "inputs": [
        {
          "internalType": "address",
          "name": "owner",
          "type": "address"
        }
      ],
      "name": "balanceOf",
      "outputs": [
        {
          "internalType": "uint256",
          "name": "",
          "type": "uint256"
        }
      ],
      "stateMutability": "view",
      "type": "function"
    },
    {
      "inputs": [
        {
          "internalType": "uint256",
          "name": "tokenId",
          "type": "uint256"
        }
      ],
      "name": "getApproved",
      "outputs": [
        {
          "internalType": "address",
          "name": "",
          "type": "address"
        }
      ],
      "stateMutability": "view",
      "type": "function"
    },
    {
      "inputs": [],
      "name": "id",
      "outputs": [
        {
          "internalType": "uint256",
          "name": "",
          "type": "uint256"
        }
      ],
      "stateMutability": "view",
      "type": "function"
    },
    {
      "inputs": [
        {
          "internalType": "address",
          "name": "owner",
          "type": "address"
        },
        {
          "internalType": "address",
          "name": "operator",
          "type": "address"
        }
      ],
      "name": "isApprovedForAll",
      "outputs": [
        {
          "internalType": "bool",
          "name": "",
          "type": "bool"
        }
      ],
      "stateMutability": "view",
      "type": "function"
    },
    {
      "inputs": [
        {
          "internalType": "address",
          "name": "_receiver",
          "type": "address"
        }
      ],
      "name": "mint",
      "outputs": [],
      "stateMutability": "nonpayable",
      "type": "function"
    },
    {
      "inputs": [],
      "name": "name",
      "outputs": [
        {
          "internalType": "string",
          "name": "",
          "type": "string"
        }
      ],
      "stateMutability": "view",
      "type": "function"
    },
    {
      "inputs": [],
      "name": "owner",
      "outputs": [
        {
          "internalType": "address",
          "name": "",
          "type": "address"
        }
      ],
      "stateMutability": "view",
      "type": "function"
    },
    {
      "inputs": [
        {
          "internalType": "uint256",
          "name": "tokenId",
          "type": "uint256"
        }
      ],
      "name": "ownerOf",
      "outputs": [
        {
          "internalType": "address",
          "name": "",
          "type": "address"
        }
      ],
      "stateMutability": "view",
      "type": "function"
    },
    {
      "inputs": [],
      "name": "renounceOwnership",
      "outputs": [],
      "stateMutability": "nonpayable",
      "type": "function"
    },
    {
      "inputs": [
        {
          "internalType": "address",
          "name": "from",
          "type": "address"
        },
        {
          "internalType": "address",
          "name": "to",
          "type": "address"
        },
        {
          "internalType": "uint256",
          "name": "tokenId",
          "type": "uint256"
        }
      ],
      "name": "safeTransferFrom",
      "outputs": [],
      "stateMutability": "nonpayable",
      "type": "function"
    },
    {
      "inputs": [
        {
          "internalType": "address",
          "name": "from",
          "type": "address"
        },
        {
          "internalType": "address",
          "name": "to",
          "type": "address"
        },
        {
          "internalType": "uint256",
          "name": "tokenId",
          "type": "uint256"
        },
        {
          "internalType": "bytes",
          "name": "data",
          "type": "bytes"
        }
      ],
      "name": "safeTransferFrom",
      "outputs": [],
      "stateMutability": "nonpayable",
      "type": "function"
    },
    {
      "inputs": [
        {
          "internalType": "address",
          "name": "operator",
          "type": "address"
        },
        {
          "internalType": "bool",
          "name": "approved",
          "type": "bool"
        }
      ],
      "name": "setApprovalForAll",
      "outputs": [],
      "stateMutability": "nonpayable",
      "type": "function"
    },
    {
      "inputs": [
        {
          "internalType": "bytes4",
          "name": "interfaceId",
          "type": "bytes4"
        }
      ],
      "name": "supportsInterface",
      "outputs": [
        {
          "internalType": "bool",
          "name": "",
          "type": "bool"
        }
      ],
      "stateMutability": "view",
      "type": "function"
    },
    {
      "inputs": [],
      "name": "symbol",
      "outputs": [
        {
          "internalType": "string",
          "name": "",
          "type": "string"
        }
      ],
      "stateMutability": "view",
      "type": "function"
    },
    {
      "inputs": [
        {
          "internalType": "uint256",
          "name": "tokenId",
          "type": "uint256"
        }
      ],
      "name": "tokenURI",
      "outputs": [
        {
          "internalType": "string",
          "name": "",
          "type": "string"
        }
      ],
      "stateMutability": "view",
      "type": "function"
    },
    {
      "inputs": [
        {
          "internalType": "address",
          "name": "from",
          "type": "address"
        },
        {
          "internalType": "address",
          "name": "to",
          "type": "address"
        },
        {
          "internalType": "uint256",
          "name": "tokenId",
          "type": "uint256"
        }
      ],
      "name": "transferFrom",
      "outputs": [],
      "stateMutability": "nonpayable",
      "type": "function"
    },
    {
      "inputs": [
        {
          "internalType": "address",
          "name": "newOwner",
          "type": "address"
        }
      ],
      "name": "transferOwnership",
      "outputs": [],
      "stateMutability": "nonpayable",
      "type": "function"
    }
  ],
  "bytecode": "0x60806040523462000031576200001f62000018620001b5565b916200025d565b604051611a8462000e168239611a8490f35b600080fd5b634e487b7160e01b600052604160045260246000fd5b90601f01601f191681019081106001600160401b038211176200006e57604052565b62000036565b906200008b6200008360405190565b92836200004c565b565b6001600160401b0381116200006e57602090601f01601f19160190565b0190565b60005b838110620000c25750506000910152565b8181015183820152602001620000b1565b90929192620000ec620000e6826200008d565b62000074565b9381855260208501908284011162000031576200008b92620000ae565b9080601f83011215620000315781516200012692602001620000d3565b90565b6001600160a01b031690565b6001600160a01b0381165b036200003157565b905051906200008b8262000135565b9091606082840312620000315781516001600160401b0381116200003157836200018391840162000109565b602083015190936001600160401b0382116200003157620001ab816200012693860162000109565b9360400162000148565b620001d86200289a80380380620001cc8162000074565b92833981019062000157565b909192565b620001269081565b620001269054620001dd565b634e487b7160e01b600052601160045260246000fd5b6000198114620002175760010190565b620001f1565b90600019905b9181191691161790565b6200012662000126620001269290565b90620002516200012662000259926200022d565b82546200021d565b9055565b6200026892620002b2565b6200008b33620002836200027d6007620001e5565b62000207565b90620002918260076200023d565b62000625565b6200012962000126620001269290565b620001269062000297565b91620002be916200050f565b620002ca6000620002a7565b6001600160a01b0381166001600160a01b03831614620002f057506200008b9062000598565b6200032390620002ff60405190565b631e4fbdf760e01b8152918291600483016001600160a01b03909116815260200190565b0390fd5b634e487b7160e01b600052602260045260246000fd5b906001600283049216801562000360575b60208310146200035a57565b62000327565b91607f16916200034e565b9160001960089290920291821b911b62000223565b9190620003956200012662000259936200022d565b9083546200036b565b6200008b9160009162000380565b818110620003b8575050565b80620003c860006001936200039e565b01620003ac565b9190601f8111620003df57505050565b620003f36200008b93600052602060002090565b906020601f84018190048301931062000417575b6020601f909101040190620003ac565b909150819062000407565b906200042c815190565b906001600160401b0382116200006e5762000454826200044d85546200033d565b85620003cf565b602090601f831160011462000493576200025992916000918362000487575b5050600019600883021c1916906002021790565b01519050388062000473565b601f19831691620004a985600052602060002090565b9260005b818110620004ea57509160029391856001969410620004d0575b50505002019055565b01516000196008601f8516021c19169055388080620004c7565b91936020600181928787015181550195019201620004ad565b906200008b9162000422565b90620005216200008b92600062000503565b600162000503565b620001269062000129565b62000126905462000529565b906001600160a01b039062000223565b620001269062000129906001600160a01b031682565b620001269062000550565b620001269062000566565b906200059062000126620002599262000571565b825462000540565b620005a4600662000534565b90620005b28160066200057c565b620005e9620005e27f8be0079c531659141344cd1fd0a4f28419497f9722a3daafe3b4186f6b6457e09362000571565b9162000571565b91620005f460405190565b600090a3565b906200060a620000e6836200008d565b918252565b620001266000620005fa565b620001266200060f565b6200008b91620006346200061b565b91906200008b92916200064882826200065a565b620006546000620002a7565b62000cce565b90620006676000620002a7565b916001600160a01b0383166001600160a01b03821614620006e7576200068f91839162000740565b620006ab6001600160a01b0383165b916001600160a01b031690565b03620006b45750565b6200032390620006c360405190565b6339e3563760e11b8152918291600483016001600160a01b03909116815260200190565b6200032383620006f660405190565b633250574960e11b8152918291600483016001600160a01b03909116815260200190565b90620007269062000571565b600052602052604060002090565b9062000726906200022d565b90620007a56200075082620008b7565b9360006200075e81620002a7565b91846001600160a01b0384166001600160a01b03831603620008a3575b50506001600160a01b0382166001600160a01b038716036200085d575b506001600160a01b031690565b6001600160a01b0383160362000823575b620007ce82620007c883600262000734565b6200057c565b7fddf252ad1be2c89b69c2b068fc378daa952ba7f163c4a11628f55a4df523b3ef91620008116200080a620008038662000571565b9262000571565b926200022d565b926200081c60405190565b600090a490565b620008576200083360016200022d565b62000850620008448560036200071a565b91620000aa83620001e5565b906200023d565b620007b6565b6200086b9082858162000a69565b6200089c6200087b60016200022d565b620008506200088c8860036200071a565b916200089883620001e5565b0390565b3862000798565b620008af9188620008f6565b38846200077b565b620008d26200012691620008c9600090565b50600262000734565b62000534565b6001600160a01b0390911681526040810192916200008b9160200152565b6200090b620009078484846200097d565b1590565b6200091557505050565b620009296200069e620001296000620002a7565b03620009585762000323826200093e60405190565b637e27328960e01b81529182916004830190815260200190565b620003236200096660405190565b63177e802f60e01b815292839260048401620008d8565b906200098e620001296000620002a7565b6001600160a01b03821614159283620009a8575b50505090565b919250906001600160a01b0382166001600160a01b0384161492831562000a0a575b508215620009de575b5050388080620009a2565b62000a01919250620009f46200069e9162000a4e565b926001600160a01b031690565b143880620009d3565b62000a19919350829062000a21565b9138620009ca565b620001269162000a4162000a479262000a38600090565b5060056200071a565b6200071a565b5460ff1690565b620008d2620001269162000a60600090565b50600462000734565b9291909180811562000ba7575b62000a90575b505090620007c86200008b92600462000734565b62000a9b8362000bca565b9162000aac620001296000620002a7565b6001600160a01b03821614158062000b8a575b8062000b73575b62000b40575091620007c8916200008b949362000ae7575b50919262000a7c565b62000b137f8c5be1e5ebec7d5bd14f71427d1e84f3dd0314c0f7b2291e5b200ac8c7c3b9259162000571565b62000b1e8562000571565b9062000b2a846200022d565b9262000b3560405190565b600090a43862000ade565b620003239062000b4f60405190565b63a9fbf51f60e01b8152918291600483016001600160a01b03909116815260200190565b5062000b8462000907828562000a21565b62000ac6565b506001600160a01b0381166001600160a01b038416141562000abf565b5062000bb8620001296000620002a7565b6001600160a01b038316141562000a76565b62000bd581620008b7565b9062000be6620001296000620002a7565b6001600160a01b0383161462000bfa575090565b62000323906200093e60405190565b6001600160e01b0319811662000140565b905051906200008b8262000c09565b906020828203126200003157620001269162000c1a565b62000c6562000c6f602093620000aa9362000c59815190565b80835293849260200190565b95869101620000ae565b601f01601f191690565b6001600160a01b039182168152911660208201526040810191909152608060608201819052620001269291019062000c40565b3d1562000cc95762000cbe3d620005fa565b903d6000602084013e565b606090565b909192823b9360009462000cea62000ce6876200022d565b9190565b1162000cf8575b5050505050565b60209162000d408662000d1562000d0f8862000571565b62000571565b9262000d4c63150b7a029162000d283390565b9662000d3360405190565b998a988997889660e01b90565b86526004860162000c79565b03925af16000918162000dde575b5062000dac575062000d72565b388080808062000cf1565b62000d7c62000cac565b9162000d8e62000ce66200080a855190565b0362000da3576200032390620006f660405190565b50805190602001fd5b909150630a85bd0160e11b906001600160e01b0319160362000dcf575062000d67565b6200032390620006f660405190565b62000e0591925060203d811162000e0d575b62000dfc81836200004c565b81019062000c29565b903862000d5a565b503d62000df056fe6080604052600436101561001257600080fd5b60003560e01c806301ffc9a71461013257806306fdde031461012d578063081812fc14610128578063095ea7b31461012357806323b872dd1461011e57806342842e0e146101195780636352211e146101145780636a6278421461010f57806370a082311461010a578063715018a6146101055780638da5cb5b1461010057806395d89b41146100fb578063a22cb465146100f6578063af640d0f146100f1578063b88d4fde146100ec578063c87b56dd146100e7578063e985e9c5146100e25763f2fde38b03610162576106d9565b6106bd565b61067f565b610663565b6104df565b6104a4565b610451565b61042c565b610414565b6103e9565b6103d1565b6103a2565b610389565b610370565b610322565b6102ae565b610254565b61018d565b7fffffffff0000000000000000000000000000000000000000000000000000000081165b0361016257565b600080fd5b9050359061017482610137565b565b906020828203126101625761018a91610167565b90565b34610162576101bb6101a86101a3366004610176565b6108e8565b6040515b91829182901515815260200190565b0390f35b600091031261016257565b60005b8381106101dd5750506000910152565b81810151838201526020016101cd565b61020e61021760209361023f93610202815190565b80835293849260200190565b958691016101ca565b601f017fffffffffffffffffffffffffffffffffffffffffffffffffffffffffffffffe01690565b0190565b602080825261018a929101906101ed565b34610162576102643660046101bf565b6101bb61026f610b59565b60405191829182610243565b8061015b565b905035906101748261027b565b906020828203126101625761018a91610281565b6001600160a01b031690565b34610162576101bb6102c96102c436600461028e565b610b78565b604051918291826001600160a01b03909116815260200190565b6001600160a01b03811661015b565b90503590610174826102e3565b91906040838203126101625761018a9061031981856102f2565b93602001610281565b346101625761033b6103353660046102ff565b90610b6d565b604051005b90916060828403126101625761018a61035984846102f2565b9361036781602086016102f2565b93604001610281565b346101625761033b610383366004610340565b91610bf3565b346101625761033b61039c366004610340565b91610cec565b34610162576101bb6102c96103b836600461028e565b610a3f565b906020828203126101625761018a916102f2565b346101625761033b6103e43660046103bd565b61159a565b34610162576101bb6104046103ff3660046103bd565b6109be565b6040519182918290815260200190565b34610162576104243660046101bf565b61033b610729565b346101625761043c3660046101bf565b6101bb6102c96006546001600160a01b031690565b34610162576104613660046101bf565b6101bb61026f610b63565b80151561015b565b905035906101748261046c565b91906040838203126101625761018a9061049b81856102f2565b93602001610474565b346101625761033b6104b7366004610481565b90610b8b565b61018a916008021c81565b9061018a91546104bd565b61018a600060076104c8565b34610162576104ef3660046101bf565b6101bb6104046104d3565b7f4e487b7100000000000000000000000000000000000000000000000000000000600052604160045260246000fd5b90601f017fffffffffffffffffffffffffffffffffffffffffffffffffffffffffffffffe016810190811067ffffffffffffffff82111761056957604052565b6104fa565b9061017461057b60405190565b9283610529565b67ffffffffffffffff811161056957602090601f017fffffffffffffffffffffffffffffffffffffffffffffffffffffffffffffffe0160190565b90826000939282370152565b909291926105de6105d982610582565b61056e565b9381855260208501908284011161016257610174926105bd565b9080601f830112156101625781602061018a933591016105c9565b906080828203126101625761062881836102f2565b9261063682602085016102f2565b926106448360408301610281565b92606082013567ffffffffffffffff81116101625761018a92016105f8565b346101625761033b610676366004610613565b92919091610cfc565b34610162576101bb61026f61069536600461028e565b61172d565b91906040838203126101625761018a906106b481856102f2565b936020016102f2565b34610162576101bb6101a86106d336600461069a565b90610b96565b346101625761033b6106ec3660046103bd565b61082a565b6106f9610731565b610174610717565b6102a261018a61018a9290565b61018a90610701565b610174610724600061070e565b61088b565b6101746106f1565b6006546001600160a01b03163390610751825b916001600160a01b031690565b036107595750565b6107a39061076660405190565b9182917f118cdaa7000000000000000000000000000000000000000000000000000000008352600483016001600160a01b03909116815260200190565b0390fd5b610174906107b3610731565b6107bd600061070e565b6001600160a01b0381166001600160a01b038316146107e057506101749061088b565b6107a3906107ed60405190565b9182917f1e4fbdf7000000000000000000000000000000000000000000000000000000008352600483016001600160a01b03909116815260200190565b610174906107a7565b906001600160a01b03905b9181191691161790565b6102a261018a61018a926001600160a01b031690565b61018a90610848565b61018a9061085e565b9061088061018a61088792610867565b8254610833565b9055565b6006546001600160a01b0316906108a3816006610870565b6108d66108d07f8be0079c531659141344cd1fd0a4f28419497f9722a3daafe3b4186f6b6457e093610867565b91610867565b916108e060405190565b80805b0390a3565b7f80ac58cd000000000000000000000000000000000000000000000000000000007fffffffff00000000000000000000000000000000000000000000000000000000821614908115610949575b811561093f575090565b61018a9150611481565b7fffffffff0000000000000000000000000000000000000000000000000000000081167f5b5e139f00000000000000000000000000000000000000000000000000000000149150610935565b9061099f90610867565b600052602052604060002090565b61018a9081565b61018a90546109ad565b6109c8600061070e565b6001600160a01b0381166001600160a01b038316146109f557506109f061018a916003610995565b6109b4565b6107a390610a0260405190565b9182917f89c62b64000000000000000000000000000000000000000000000000000000008352600483016001600160a01b03909116815260200190565b61018a9061128b565b7f4e487b7100000000000000000000000000000000000000000000000000000000600052602260045260246000fd5b9060016002830492168015610a97575b6020831014610a9257565b610a48565b91607f1691610a87565b80546000939291610abe610ab483610a77565b8085529360200190565b9160018116908115610b105750600114610ad757505050565b610aea9192939450600052602060002090565b916000925b818410610afc5750500190565b805484840152602090930192600101610aef565b92949550505060ff1916825215156020020190565b9061018a91610aa1565b90610174610b4992610b4060405190565b93848092610b25565b0383610529565b61018a90610b2f565b61018a6000610b50565b61018a6001610b50565b61017491339161104d565b61018a90610b858161128b565b50610d2a565b6101749190336111cd565b61018a91610bb1610bb692610ba9600090565b506005610995565b610995565b5460ff1690565b6001600160a01b039091168152606081019392610174929091604091610be4906020830152565b01906001600160a01b03169052565b90610bfe600061070e565b6001600160a01b0381166001600160a01b03831614610c7e5750610c2490833391610d8d565b6001600160a01b0382166001600160a01b03821603610c4257505050565b6107a390610c4f60405190565b9384937f64283d7b00000000000000000000000000000000000000000000000000000000855260048501610bbd565b6107a390610c8b60405190565b9182917f64a0ae92000000000000000000000000000000000000000000000000000000008352600483016001600160a01b03909116815260200190565b90610cd56105d983610582565b918252565b61018a6000610cc8565b61018a610cda565b909161017492610cfa610ce4565b925b90610174939291610d0e838383610bf3565b611333565b61018a61018a61018a9290565b9061099f90610d13565b610d4161018a91610d39600090565b506004610d20565b546001600160a01b031690565b907fffffffffffffffffffffffffffffffffffffffffffffffffffffffffffffffff9061083e565b90610d8661018a61088792610d13565b8254610d4e565b90610deb610d9a82610ed9565b936000610da68161070e565b91846001600160a01b0384166001600160a01b03831603610ec8575b50506001600160a01b0382166001600160a01b03871603610e8d575b506001600160a01b031690565b6001600160a01b03831603610e5d575b610e0f82610e0a836002610d20565b610870565b7fddf252ad1be2c89b69c2b068fc378daa952ba7f163c4a11628f55a4df523b3ef91610e4c610e46610e4086610867565b92610867565b92610d13565b92610e5660405190565b600090a490565b610e88610e6a6001610d13565b610e82610e78856003610995565b9161023f836109b4565b90610d76565b610dfb565b610e9990828581611057565b610ec2610ea66001610d13565b610e82610eb4886003610995565b91610ebe836109b4565b0390565b38610dde565b610ed29188610f0d565b3884610dc2565b610d4161018a91610ee8600090565b506002610d20565b6001600160a01b0390911681526040810192916101749160200152565b610f1f610f1b848484610fb8565b1590565b610f2857505050565b610f386107446102a2600061070e565b03610f7d576107a382610f4a60405190565b9182917f7e2732890000000000000000000000000000000000000000000000000000000083526004830190815260200190565b6107a3610f8960405190565b9283927f177e802f00000000000000000000000000000000000000000000000000000000845260048401610ef0565b90610fc66102a2600061070e565b6001600160a01b03821614159283610fdf575b50505090565b919250906001600160a01b0382166001600160a01b03841614928315611039575b508215611012575b5050388080610fd9565b61103191925061102461074491610d2a565b926001600160a01b031690565b143880611008565b6110469193508290610b96565b9138611000565b9091610174926001925b9291909180811561118e575b611079575b505090610e0a610174926004610d20565b6110828361128b565b916110906102a2600061070e565b6001600160a01b038216141580611172575b8061115f575b611115575091610e0a9161017494936110c4575b509192611068565b6110ee7f8c5be1e5ebec7d5bd14f71427d1e84f3dd0314c0f7b2291e5b200ac8c7c3b92591610867565b6110f785610867565b9061110184610d13565b9261110b60405190565b600090a4386110bc565b6107a39061112260405190565b9182917fa9fbf51f000000000000000000000000000000000000000000000000000000008352600483016001600160a01b03909116815260200190565b5061116d610f1b8285610b96565b6110a8565b506001600160a01b0381166001600160a01b03841614156110a2565b5061119c6102a2600061070e565b6001600160a01b0383161415611063565b9060ff9061083e565b906111c661018a61088792151590565b82546111ad565b6111da6102a2600061070e565b6001600160a01b0383161461124157611201836111fc84610bb1856005610995565b6111b6565b6108e36112376112317f17307eab39ab6107e8899845ad3d59bd9653f200f220920489ca2b5937696c3193610867565b93610867565b936101ac60405190565b6107a38261124e60405190565b9182917f5b08ba18000000000000000000000000000000000000000000000000000000008352600483016001600160a01b03909116815260200190565b61129481610ed9565b906112a26102a2600061070e565b6001600160a01b038316146112b5575090565b6107a390610f4a60405190565b9050519061017482610137565b906020828203126101625761018a916112c2565b6001600160a01b03918216815291166020820152604081019190915260806060820181905261018a929101906101ed565b3d1561132e576113233d610cc8565b903d6000602084013e565b606090565b909192823b9360009461134c61134887610d13565b9190565b11611359575b5050505050565b6020916113998661137161136c88610867565b610867565b926113a463150b7a02916113823390565b9661138c60405190565b998a988997889660e01b90565b8652600486016112e3565b03925af160009181611451575b506113f857506113c6565b3880808080611352565b6113ce611314565b916113dd611348610e46855190565b036113ef576107a390610c8b60405190565b50805190602001fd5b9091506114467f150b7a02000000000000000000000000000000000000000000000000000000005b917fffffffff000000000000000000000000000000000000000000000000000000001690565b03610c7e57506113bc565b61147391925060203d811161147a575b61146b8183610529565b8101906112cf565b90386113b1565b503d611461565b6114aa7f01ffc9a700000000000000000000000000000000000000000000000000000000611420565b1490565b610174906114ba610731565b61152b565b7f4e487b7100000000000000000000000000000000000000000000000000000000600052601160045260246000fd5b7fffffffffffffffffffffffffffffffffffffffffffffffffffffffffffffffff811461151b5760010190565b6114bf565b61018a611e61610d13565b61153d61153860076109b4565b6114ee565b611548816007610d76565b61155661134861018a611520565b1161156f576101749061156960076109b4565b906115a3565b6040517f69b087a2000000000000000000000000000000000000000000000000000000008152600490fd5b610174906114ae565b610174916115af610ce4565b919061017492916115c082826115ca565b610d0e600061070e565b906115d5600061070e565b916001600160a01b0383166001600160a01b0382161461165e576115fa918391610d8d565b61160c6001600160a01b038316610744565b036116145750565b6107a39061162160405190565b9182917f73c6ac6e000000000000000000000000000000000000000000000000000000008352600483016001600160a01b03909116815260200190565b6107a383610c8b60405190565b611675602d610cc8565b7f68747470733a2f2f6170692e6c696c6865726f65732e696f2f6c61746573742f60208201527f6d657461646174612f6e66742f00000000000000000000000000000000000000604082015290565b61018a61166b565b61023f6116e4926020926116de815190565b94859290565b938491016101ca565b6116fb9061018a93926116cc565b906116cc565b61172192916101749161171360405190565b9485926020840192836116ed565b90810382520383610529565b6117368161128b565b5061173f6116c4565b805161174e6113486000610d13565b11156117665761176061018a926117f4565b90611701565b505061018a610ce4565b369037565b9061017461178b61178584610cc8565b93610582565b7fffffffffffffffffffffffffffffffffffffffffffffffffffffffffffffffe00160208401611770565b7f4e487b7100000000000000000000000000000000000000000000000000000000600052601260045260246000fd5b81156117ef570490565b6117b6565b6117fd816118aa565b9061180d60019261023f84610d13565b918061181884611775565b936020018401905b61182a5750505090565b611889907fffffffffffffffffffffffffffffffffffffffffffffffffffffffffffffffff01927f3031323334353637383961626364656600000000000000000000000000000000600a82061a8453611883600a610d13565b906117e5565b90816118986113486000610d13565b146118a557909181611820565b610fd9565b6118b46000610d13565b907a184f03e93ff9f4daa797ed6e38ed64bf6a1f0100000000000000006118da81610d13565b821015611a2c575b506d04ee2d6d415b85acef81000000006118fb81610d13565b821015611a0a575b50662386f26fc1000061191581610d13565b8210156119e8575b506305f5e10061192c81610d13565b8210156119c6575b5061271061194181610d13565b8210156119a4575b50606461195581610d13565b821015611982575b5061196b611348600a610d13565b10156119745790565b61018a9061023f6001610d13565b61199d9161188361199292610d13565b9161023f6002610d13565b903861195d565b6119bf916118836119b492610d13565b9161023f6004610d13565b9038611949565b6119e1916118836119d692610d13565b9161023f6008610d13565b9038611934565b611a03916118836119f892610d13565b9161023f6010610d13565b903861191d565b611a2591611883611a1a92610d13565b9161023f6020610d13565b9038611903565b611a4791611883611a3c92610d13565b9161023f6040610d13565b90386118e256fea2646970667358221220d5fc682e8b9590bd3afe8277e7e2b480758aa3e50eeb8c022be61e767e503f4d64736f6c63430008140033",
  "linkReferences": {},
  "deployedLinkReferences": {},
  "chainId": 80001,
  "address": "0x893Eb3209B58b23668Af610e9930cd6CBA6cd1a7"
}