{
  "_format": "hh-sol-artifact-1",
  "contractName": "FirstPlacePrizeVault",
  "sourceName": "contracts/vaults/FirstPlacePrizeVault.sol",
  "abi": [
    {
      "inputs": [
        {
          "internalType": "contract IERC20",
          "name": "_fusdt",
          "type": "address"
        },
        {
          "internalType": "address",
          "name": "_claimVault",
          "type": "address"
        }
      ],
      "stateMutability": "nonpayable",
      "type": "constructor"
    },
    {
      "inputs": [],
      "name": "AccessControlBadConfirmation",
      "type": "error"
    },
    {
      "inputs": [
        {
          "internalType": "address",
          "name": "account",
          "type": "address"
        },
        {
          "internalType": "bytes32",
          "name": "neededRole",
          "type": "bytes32"
        }
      ],
      "name": "AccessControlUnauthorizedAccount",
      "type": "error"
    },
    {
      "anonymous": false,
      "inputs": [
        {
          "indexed": true,
          "internalType": "bytes32",
          "name": "role",
          "type": "bytes32"
        },
        {
          "indexed": true,
          "internalType": "bytes32",
          "name": "previousAdminRole",
          "type": "bytes32"
        },
        {
          "indexed": true,
          "internalType": "bytes32",
          "name": "newAdminRole",
          "type": "bytes32"
        }
      ],
      "name": "RoleAdminChanged",
      "type": "event"
    },
    {
      "anonymous": false,
      "inputs": [
        {
          "indexed": true,
          "internalType": "bytes32",
          "name": "role",
          "type": "bytes32"
        },
        {
          "indexed": true,
          "internalType": "address",
          "name": "account",
          "type": "address"
        },
        {
          "indexed": true,
          "internalType": "address",
          "name": "sender",
          "type": "address"
        }
      ],
      "name": "RoleGranted",
      "type": "event"
    },
    {
      "anonymous": false,
      "inputs": [
        {
          "indexed": true,
          "internalType": "bytes32",
          "name": "role",
          "type": "bytes32"
        },
        {
          "indexed": true,
          "internalType": "address",
          "name": "account",
          "type": "address"
        },
        {
          "indexed": true,
          "internalType": "address",
          "name": "sender",
          "type": "address"
        }
      ],
      "name": "RoleRevoked",
      "type": "event"
    },
    {
      "anonymous": false,
      "inputs": [
        {
          "indexed": true,
          "internalType": "address",
          "name": "receiver",
          "type": "address"
        },
        {
          "indexed": false,
          "internalType": "uint256",
          "name": "amount",
          "type": "uint256"
        }
      ],
      "name": "Withdraw",
      "type": "event"
    },
    {
      "inputs": [],
      "name": "DEFAULT_ADMIN_ROLE",
      "outputs": [
        {
          "internalType": "bytes32",
          "name": "",
          "type": "bytes32"
        }
      ],
      "stateMutability": "view",
      "type": "function"
    },
    {
      "inputs": [],
      "name": "FUSDT",
      "outputs": [
        {
          "internalType": "contract IERC20",
          "name": "",
          "type": "address"
        }
      ],
      "stateMutability": "view",
      "type": "function"
    },
    {
      "inputs": [],
      "name": "MANAGER",
      "outputs": [
        {
          "internalType": "bytes32",
          "name": "",
          "type": "bytes32"
        }
      ],
      "stateMutability": "view",
      "type": "function"
    },
    {
      "inputs": [],
      "name": "claimVault",
      "outputs": [
        {
          "internalType": "address",
          "name": "",
          "type": "address"
        }
      ],
      "stateMutability": "view",
      "type": "function"
    },
    {
      "inputs": [],
      "name": "getCurrentFUSDTBalance",
      "outputs": [
        {
          "internalType": "uint256",
          "name": "",
          "type": "uint256"
        }
      ],
      "stateMutability": "view",
      "type": "function"
    },
    {
      "inputs": [
        {
          "internalType": "bytes32",
          "name": "role",
          "type": "bytes32"
        }
      ],
      "name": "getRoleAdmin",
      "outputs": [
        {
          "internalType": "bytes32",
          "name": "",
          "type": "bytes32"
        }
      ],
      "stateMutability": "view",
      "type": "function"
    },
    {
      "inputs": [
        {
          "internalType": "bytes32",
          "name": "role",
          "type": "bytes32"
        },
        {
          "internalType": "address",
          "name": "account",
          "type": "address"
        }
      ],
      "name": "grantRole",
      "outputs": [],
      "stateMutability": "nonpayable",
      "type": "function"
    },
    {
      "inputs": [
        {
          "internalType": "bytes32",
          "name": "role",
          "type": "bytes32"
        },
        {
          "internalType": "address",
          "name": "account",
          "type": "address"
        }
      ],
      "name": "hasRole",
      "outputs": [
        {
          "internalType": "bool",
          "name": "",
          "type": "bool"
        }
      ],
      "stateMutability": "view",
      "type": "function"
    },
    {
      "inputs": [
        {
          "internalType": "bytes32",
          "name": "role",
          "type": "bytes32"
        },
        {
          "internalType": "address",
          "name": "callerConfirmation",
          "type": "address"
        }
      ],
      "name": "renounceRole",
      "outputs": [],
      "stateMutability": "nonpayable",
      "type": "function"
    },
    {
      "inputs": [
        {
          "internalType": "bytes32",
          "name": "role",
          "type": "bytes32"
        },
        {
          "internalType": "address",
          "name": "account",
          "type": "address"
        }
      ],
      "name": "revokeRole",
      "outputs": [],
      "stateMutability": "nonpayable",
      "type": "function"
    },
    {
      "inputs": [
        {
          "internalType": "uint256",
          "name": "_amount",
          "type": "uint256"
        }
      ],
      "name": "sendFirstPlacePrizeSourcedFromTeam",
      "outputs": [],
      "stateMutability": "nonpayable",
      "type": "function"
    },
    {
      "inputs": [
        {
          "internalType": "address",
          "name": "_claimVault",
          "type": "address"
        }
      ],
      "name": "setClaimVault",
      "outputs": [],
      "stateMutability": "nonpayable",
      "type": "function"
    },
    {
      "inputs": [
        {
          "internalType": "bytes4",
          "name": "interfaceId",
          "type": "bytes4"
        }
      ],
      "name": "supportsInterface",
      "outputs": [
        {
          "internalType": "bool",
          "name": "",
          "type": "bool"
        }
      ],
      "stateMutability": "view",
      "type": "function"
    },
    {
      "inputs": [
        {
          "internalType": "address",
          "name": "_receiver",
          "type": "address"
        }
      ],
      "name": "withdraw",
      "outputs": [],
      "stateMutability": "nonpayable",
      "type": "function"
    }
  ],
  "bytecode": "0x60a0604052346200004f576200001f6200001862000123565b90620001f2565b604051610bda620003278239608051818181610292015281816108a801528181610a110152610aba0152610bda90f35b600080fd5b634e487b7160e01b600052604160045260246000fd5b90601f01601f191681019081106001600160401b038211176200008c57604052565b62000054565b90620000a9620000a160405190565b92836200006a565b565b6001600160a01b031690565b90565b6001600160a01b0381165b036200004f57565b90505190620000a982620000ba565b6001600160a01b038116620000c5565b90505190620000a982620000dc565b91906040838203126200004f57620000b790620001198185620000cd565b93602001620000ec565b6200014662000f01803803806200013a8162000092565b928339810190620000fb565b9091565b906001600160a01b03905b9181191691161790565b620000b790620000ab906001600160a01b031682565b620000b7906200015f565b620000b79062000175565b906200019f620000b7620001a79262000180565b82546200014a565b9055565b620000b7620000b7620000b79290565b620000b77faf290d8680820aad922855f39b306097b20e28774d6c1ad35a20325630c3a02c620001ab565b620000b76000620001ab565b608052620002029060016200018b565b6200022e62000210620001bb565b6200021d33809262000272565b5062000228620001e6565b62000272565b50565b905b600052602052604060002090565b90620002339062000180565b9060ff9062000155565b906200026a620000b7620001a792151590565b82546200024d565b6200028662000282838362000307565b1590565b156200030057600191620002b483620002ae836000620002a7878262000231565b0162000241565b62000257565b3390620002ee620002e7620002e77f2f8788117e7eff1d82e926ec794901d17c78024a50270940304540a733656f0d9590565b9262000180565b92620002f960405190565b600090a490565b5050600090565b620000b7916200031f91620002a76000918262000231565b5460ff169056fe6080604052600436101561001257600080fd5b60003560e01c806301ffc9a7146100f257806313f240bc146100ed5780631b2df850146100e857806323c35834146100e3578063248a9ca3146100de5780632f2ff15d146100d957806336568abe146100d457806351cff8d9146100cf57806391d14854146100ca578063a217fddf146100c5578063aa434d1b146100c0578063ab518e6e146100bb578063d547741f146100b65763d76276d40361012257610473565b61045a565b610433565b6103de565b6103c3565b610395565b61037d565b610350565b610332565b6102de565b610279565b6101f7565b61018d565b610151565b7fffffffff0000000000000000000000000000000000000000000000000000000081165b0361012257565b600080fd5b90503590610134826100f7565b565b906020828203126101225761014a91610127565b90565b9052565b346101225761017e61016c610167366004610136565b61048b565b60405191829182901515815260200190565b0390f35b600091031261012257565b346101225761019d366004610182565b61017e6101a8610a07565b6040515b9182918290815260200190565b61014a61014a61014a9290565b61014a7faf290d8680820aad922855f39b306097b20e28774d6c1ad35a20325630c3a02c6101b9565b61014a6101c6565b3461012257610207366004610182565b61017e6101a86101ef565b61023561014a61014a9273ffffffffffffffffffffffffffffffffffffffff1690565b73ffffffffffffffffffffffffffffffffffffffff1690565b61014a90610212565b61014a9061024e565b61014d90610257565b6020810192916101349190610260565b3461012257610289366004610182565b6040518061017e7f000000000000000000000000000000000000000000000000000000000000000082610269565b8061011b565b90503590610134826102b7565b906020828203126101225761014a916102bd565b346101225761017e6101a86102f43660046102ca565b610578565b61011b81610235565b90503590610134826102f9565b91906040838203126101225761014a9061032981856102bd565b93602001610302565b346101225761034b61034536600461030f565b906105ba565b604051005b346101225761034b61036336600461030f565b9061066c565b906020828203126101225761014a91610302565b346101225761034b610390366004610369565b6109fe565b346101225761017e61016c6103ab36600461030f565b90610548565b61014a60006101b9565b61014a6103b1565b34610122576103d3366004610182565b61017e6101a86103bb565b346101225761034b6103f13660046102ca565b610b40565b61014a916008021c610235565b9061014a91546103f6565b61014a60006001610403565b61014d90610235565b602081019291610134919061041a565b3461012257610443366004610182565b61017e61044e61040e565b60405191829182610423565b346101225761034b61046d36600461030f565b90610662565b346101225761034b610486366004610369565b610b9b565b7f7965db0b000000000000000000000000000000000000000000000000000000007fffffffff000000000000000000000000000000000000000000000000000000008216149081156104db575090565b61014a91507fffffffff00000000000000000000000000000000000000000000000000000000167f01ffc9a7000000000000000000000000000000000000000000000000000000001490565b905b600052602052604060002090565b9061052990610257565b5460ff1690565b61014a916105629161055c60009182610527565b01610537565b610541565b61014a9081565b61014a9054610567565b600161059161014a92610589600090565b506000610527565b0161056e565b90610134916105ad6105a882610578565b6105c4565b906105b7916106e2565b50565b9061013491610597565b6101349033906105ee565b9160206101349294936105ea6040820196600083019061041a565b0152565b906106006105fc8284610548565b1590565b610608575050565b61064361061460405190565b9283927fe2517d3f000000000000000000000000000000000000000000000000000000008452600484016105cf565b0390fd5b90610134916106586105a882610578565b906105b79161075e565b9061013491610647565b9061067633610235565b61067f82610235565b0361068d576105b79161075e565b6040517f6697b232000000000000000000000000000000000000000000000000000000008152600490fd5b9060ff905b9181191691161790565b906106d761014a6106de92151590565b82546106b8565b9055565b6106ef6105fc8383610548565b15610757576001916107108361070b83600061055c8782610527565b6106c7565b33906107466107406107407f2f8788117e7eff1d82e926ec794901d17c78024a50270940304540a733656f0d9590565b92610257565b9261075060405190565b600090a490565b5050600090565b906107698183610548565b1561075757610782600061070b838261055c8782610527565b33906107b26107406107407ff6391f5c32d9c69d2a47ea670b442974b53935d1edc7fd64eb21e047a839171b9590565b926107bc60405190565b600090a4600190565b610134906107d46105a86101c6565b6108a3565b7f4e487b7100000000000000000000000000000000000000000000000000000000600052604160045260246000fd5b90601f017fffffffffffffffffffffffffffffffffffffffffffffffffffffffffffffffe016810190811067ffffffffffffffff82111761084857604052565b6107d9565b90505190610134826102b7565b906020828203126101225761014a9161084d565b6040513d6000823e3d90fd5b80151561011b565b905051906101348261087a565b906020828203126101225761014a91610882565b6108cc7f0000000000000000000000000000000000000000000000000000000000000000610257565b906370a082319160206108f96108e130610257565b946109046108ee60405190565b968793849360e01b90565b835260048301610423565b0381845afa9283156109c3576000936109c8575b5060206109379163a9059cbb9061092e60405190565b93849260e01b90565b82528160008161094b8989600484016105cf565b03925af180156109c357610997575b506109926109887f884edad9ce6fa2440d8a54cc123490eb96d2768479d49ff9c7366125a942436492610257565b926101ac60405190565b0390a2565b6109b79060203d81116109bc575b6109af8183610808565b81019061088f565b61095a565b503d6109a5565b61086e565b6109379193506109ef602091823d81116109f7575b6109e78183610808565b81019061085a565b939150610918565b503d6109dd565b610134906107c5565b610a5e6020610a357f0000000000000000000000000000000000000000000000000000000000000000610257565b6370a08231906108f9610a4730610257565b92610a5160405190565b9586948593849360e01b90565b03915afa9081156109c357600091610a74575090565b61014a915060203d81116109f7576109e78183610808565b61013490610a9b6105a86101c6565b610ab3565b61014a90610235565b61014a9054610aa0565b6020610ade7f0000000000000000000000000000000000000000000000000000000000000000610257565b63a9059cbb90610b0d6000610af36001610aa9565b93610b18610b0060405190565b9788968795869460e01b90565b8452600484016105cf565b03925af180156109c357610b295750565b6105b79060203d81116109bc576109af8183610808565b61013490610a8c565b61013490610b586105a86101c6565b610b90565b9073ffffffffffffffffffffffffffffffffffffffff906106bd565b90610b8961014a6106de92610257565b8254610b5d565b610134906001610b79565b61013490610b4956fea2646970667358221220c55b8b8e3bf3d7e55a2a4ac17d9acb64cf1b67c153fd0dbcc0ce28ab18ecaea564736f6c63430008140033",
  "linkReferences": {},
  "deployedLinkReferences": {},
  "chainId": 80001,
  "address": "0xfbF17A73FcD2250a8bE871A33911f10a81A14231"
}