{
  "_format": "hh-sol-artifact-1",
  "contractName": "RaffleUpkeep",
  "sourceName": "contracts/chainlink/RaffleUpkeep.sol",
  "abi": [
    {
      "inputs": [
        {
          "internalType": "contract IRaffle",
          "name": "_raffle",
          "type": "address"
        },
        {
          "internalType": "address",
          "name": "_vrfCoordinator",
          "type": "address"
        },
        {
          "internalType": "bytes32",
          "name": "_gasLane",
          "type": "bytes32"
        },
        {
          "internalType": "uint32",
          "name": "_callbackGasLimit",
          "type": "uint32"
        },
        {
          "internalType": "address",
          "name": "_owner",
          "type": "address"
        }
      ],
      "stateMutability": "nonpayable",
      "type": "constructor"
    },
    {
      "inputs": [
        {
          "internalType": "address",
          "name": "have",
          "type": "address"
        },
        {
          "internalType": "address",
          "name": "want",
          "type": "address"
        }
      ],
      "name": "OnlyCoordinatorCanFulfill",
      "type": "error"
    },
    {
      "inputs": [],
      "name": "OnlySimulatedBackend",
      "type": "error"
    },
    {
      "inputs": [
        {
          "internalType": "address",
          "name": "owner",
          "type": "address"
        }
      ],
      "name": "OwnableInvalidOwner",
      "type": "error"
    },
    {
      "inputs": [
        {
          "internalType": "address",
          "name": "account",
          "type": "address"
        }
      ],
      "name": "OwnableUnauthorizedAccount",
      "type": "error"
    },
    {
      "anonymous": false,
      "inputs": [
        {
          "indexed": true,
          "internalType": "address",
          "name": "previousOwner",
          "type": "address"
        },
        {
          "indexed": true,
          "internalType": "address",
          "name": "newOwner",
          "type": "address"
        }
      ],
      "name": "OwnershipTransferred",
      "type": "event"
    },
    {
      "inputs": [
        {
          "internalType": "bytes",
          "name": "",
          "type": "bytes"
        }
      ],
      "name": "checkUpkeep",
      "outputs": [
        {
          "internalType": "bool",
          "name": "upkeepNeeded",
          "type": "bool"
        },
        {
          "internalType": "bytes",
          "name": "",
          "type": "bytes"
        }
      ],
      "stateMutability": "view",
      "type": "function"
    },
    {
      "inputs": [],
      "name": "owner",
      "outputs": [
        {
          "internalType": "address",
          "name": "",
          "type": "address"
        }
      ],
      "stateMutability": "view",
      "type": "function"
    },
    {
      "inputs": [],
      "name": "pending",
      "outputs": [
        {
          "internalType": "bool",
          "name": "",
          "type": "bool"
        }
      ],
      "stateMutability": "view",
      "type": "function"
    },
    {
      "inputs": [
        {
          "internalType": "bytes",
          "name": "",
          "type": "bytes"
        }
      ],
      "name": "performUpkeep",
      "outputs": [],
      "stateMutability": "nonpayable",
      "type": "function"
    },
    {
      "inputs": [],
      "name": "raffle",
      "outputs": [
        {
          "internalType": "contract IRaffle",
          "name": "",
          "type": "address"
        }
      ],
      "stateMutability": "view",
      "type": "function"
    },
    {
      "inputs": [
        {
          "internalType": "uint256",
          "name": "requestId",
          "type": "uint256"
        },
        {
          "internalType": "uint256[]",
          "name": "randomWords",
          "type": "uint256[]"
        }
      ],
      "name": "rawFulfillRandomWords",
      "outputs": [],
      "stateMutability": "nonpayable",
      "type": "function"
    },
    {
      "inputs": [],
      "name": "renounceOwnership",
      "outputs": [],
      "stateMutability": "nonpayable",
      "type": "function"
    },
    {
      "inputs": [
        {
          "internalType": "uint64",
          "name": "_subscriptionId",
          "type": "uint64"
        }
      ],
      "name": "setSubscriptionId",
      "outputs": [],
      "stateMutability": "nonpayable",
      "type": "function"
    },
    {
      "inputs": [],
      "name": "subscriptionId",
      "outputs": [
        {
          "internalType": "uint64",
          "name": "",
          "type": "uint64"
        }
      ],
      "stateMutability": "view",
      "type": "function"
    },
    {
      "inputs": [
        {
          "internalType": "address",
          "name": "newOwner",
          "type": "address"
        }
      ],
      "name": "transferOwnership",
      "outputs": [],
      "stateMutability": "nonpayable",
      "type": "function"
    }
  ],
  "bytecode": "0x6101206040523462000078576200002362000019620001ad565b9392909262000203565b604051610fcd620003508239608051816105e2015260a05181610bb6015260c05181818161032e0152818161091501528181610b2c0152610dac015260e05181610be601526101005181610c1d0152610fcd90f35b600080fd5b634e487b7160e01b600052604160045260246000fd5b90601f01601f191681019081106001600160401b03821117620000b557604052565b6200007d565b90620000d2620000ca60405190565b928362000093565b565b6001600160a01b031690565b90565b6001600160a01b0381165b036200007857565b90505190620000d282620000e3565b6001600160a01b038116620000ee565b90505190620000d28262000105565b80620000ee565b90505190620000d28262000124565b63ffffffff8116620000ee565b90505190620000d2826200013a565b919060a08382031262000078576200016f8184620000f6565b926200017f826020830162000115565b92620000e06200019384604085016200012b565b93620001a3816060860162000147565b9360800162000115565b620001d06200131d80380380620001c481620000bb565b92833981019062000156565b9091929394565b620000e090620000d4906001600160a01b031682565b620000e090620001d7565b620000e090620001ed565b62000215826200021e94959662000245565b60c052620001f8565b60a05260e05261010052565b620000d4620000e0620000e09290565b620000e0906200022a565b906200025090608052565b6200025c60006200023a565b6001600160a01b0381166001600160a01b03831614620002825750620000d290620002ed565b620002b5906200029160405190565b631e4fbdf760e01b8152918291600483016001600160a01b03909116815260200190565b0390fd5b90620002cd620000e0620002e992620001f8565b82546001600160a01b0319166001600160a01b03919091161790565b9055565b6000546001600160a01b03169062000307816000620002b9565b6200033e620003377f8be0079c531659141344cd1fd0a4f28419497f9722a3daafe3b4186f6b6457e093620001f8565b91620001f8565b916200034960405190565b600090a356fe6080604052600436101561001257600080fd5b60003560e01c806309c1ba2e146100b25780631fe543e3146100ad57806333c1420a146100a85780634585e33b146100a35780636e04ff0d1461009e578063715018a6146100995780638da5cb5b14610094578063e20ccec31461008f578063ea7b4f771461008a5763f2fde38b036100c2576105a6565b610564565b610506565b6104b9565b610488565b610459565b6103ad565b610315565b610290565b6100fd565b60009103126100c257565b600080fd5b6100dd916008021c5b67ffffffffffffffff1690565b90565b906100dd91546100c7565b6100dd601460006100e0565b9052565b565b346100c25761010d3660046100b7565b6101336101186100eb565b6040519182918267ffffffffffffffff909116815260200190565b0390f35b805b036100c257565b905035906100fb82610137565b7f4e487b7100000000000000000000000000000000000000000000000000000000600052604160045260246000fd5b90601f017fffffffffffffffffffffffffffffffffffffffffffffffffffffffffffffffe016810190811067ffffffffffffffff8211176101bc57604052565b61014d565b906100fb6101ce60405190565b928361017c565b67ffffffffffffffff81116101bc5760208091020190565b909291926102026101fd826101d5565b6101c1565b93818552602080860192028301928184116100c257915b8383106102265750505050565b602080916102348486610140565b815201920191610219565b9080601f830112156100c2578160206100dd933591016101ed565b9190916040818403126100c2576102718382610140565b92602082013567ffffffffffffffff81116100c2576100dd920161023f565b346100c2576102a96102a336600461025a565b906105e0565b604051005b6102d16100dd6100dd9273ffffffffffffffffffffffffffffffffffffffff1690565b73ffffffffffffffffffffffffffffffffffffffff1690565b6100dd906102ae565b6100dd906102ea565b6100f7906102f3565b6020810192916100fb91906102fc565b346100c2576103253660046100b7565b604051806101337f000000000000000000000000000000000000000000000000000000000000000082610305565b909182601f830112156100c25781359167ffffffffffffffff83116100c25760200192600183028401116100c257565b906020828203126100c257813567ffffffffffffffff81116100c2576103a99201610353565b9091565b346100c2576102a96103c0366004610383565b90610b25565b60005b8381106103d95750506000910152565b81810151838201526020016103c9565b61040a61041360209361043b936103fe815190565b80835293849260200190565b958691016103c6565b601f017fffffffffffffffffffffffffffffffffffffffffffffffffffffffffffffffe01690565b0190565b90151581526040602082018190526100dd929101906103e9565b346100c25761047261046c366004610383565b90610902565b9061013361047f60405190565b9283928361043f565b346100c2576104983660046100b7565b6102a96106be565b6100f7906102d1565b6020810192916100fb91906104a0565b346100c2576104c93660046100b7565b6101336104d461067c565b604051918291826104a9565b6100dd916008021c5b60ff1690565b906100dd91546104e0565b6100dd601c60006104ef565b346100c2576105163660046100b7565b6101336105216104fa565b60405191829182901515815260200190565b67ffffffffffffffff8116610139565b905035906100fb82610533565b906020828203126100c2576100dd91610543565b346100c2576102a9610577366004610550565b6108a9565b610139816102d1565b905035906100fb8261057c565b906020828203126100c2576100dd91610585565b346100c2576102a96105b9366004610592565b610799565b9160206100fb9294936105d9604082019660008301906104a0565b01906104a0565b7f00000000000000000000000000000000000000000000000000000000000000009291903361060e856102d1565b610617826102d1565b0361062857506100fb929350610da6565b849061066561063660405190565b9283927f1cf993f4000000000000000000000000000000000000000000000000000000008452600484016105be565b0390fd5b6100dd906102d1565b6100dd9054610669565b6100dd6000610672565b61068e6106c6565b6100fb6106ac565b6102d16100dd6100dd9290565b6100dd90610696565b6100fb6106b960006106a3565b6107df565b6100fb610686565b6106ce61067c565b33906106e26106dc836102d1565b916102d1565b036106ea5750565b610665906106f760405190565b9182917f118cdaa7000000000000000000000000000000000000000000000000000000008352600483016104a9565b6100fb906107326106c6565b61073c60006106a3565b610745816102d1565b61074e836102d1565b1461075d57506100fb906107df565b6106659061076a60405190565b9182917f1e4fbdf7000000000000000000000000000000000000000000000000000000008352600483016104a9565b6100fb90610726565b9073ffffffffffffffffffffffffffffffffffffffff905b9181191691161790565b906107d46100dd6107db926102f3565b82546107a2565b9055565b6107e96000610672565b906107f58160006107c4565b6108286108227f8be0079c531659141344cd1fd0a4f28419497f9722a3daafe3b4186f6b6457e0936102f3565b916102f3565b9161083260405190565b600090a3565b6100fb906108446106c6565b61089e565b907bffffffffffffffff00000000000000000000000000000000000000009060a01b6107ba565b6100d06100dd6100dd9267ffffffffffffffff1690565b906108976100dd6107db92610870565b8254610849565b6100fb906000610887565b6100fb90610838565b905051906100fb82610137565b906020828203126100c2576100dd916108b2565b6040513d6000823e3d90fd5b6100dd6100dd6100dd9290565b6100dd9060e01c6104e9565b6100dd90546108ec565b505061090c600090565b906060906109397f00000000000000000000000000000000000000000000000000000000000000006102f3565b63fb6f049f61095161094a60405190565b9160e01b90565b8152602081600481855afa9081156109fe57600091610a1b575b5060009061097f61097b836108df565b9190565b14159081610a03575b506109905750565b6109b191935060209063c406196b906109a860405190565b93849260e01b90565b825260049082905afa9081156109fe576000916109d0575b5042101591565b6109f1915060203d81116109f7575b6109e9818361017c565b8101906108bf565b386109c9565b503d6109df565b6108d3565b610a159150610a11906108f8565b1590565b38610988565b610a33915060203d81116109f7576109e9818361017c565b3861096b565b907cff000000000000000000000000000000000000000000000000000000009060e01b6107ba565b90610a716100dd6107db92151590565b8254610a39565b6100dd9060a01c6100d0565b6100dd9054610a78565b610a9b6100dd6100dd9290565b61ffff1690565b6100dd6003610a8e565b610ab96100dd6100dd9290565b63ffffffff1690565b6100dd6001610aac565b909594926100fb94610b0c610b1992610b01608096610af060a088019c6000890152565b67ffffffffffffffff166020870152565b61ffff166040850152565b63ffffffff166060830152565b019063ffffffff169052565b5050610b507f00000000000000000000000000000000000000000000000000000000000000006102f3565b63fb6f049f90610b69610b6260405190565b9260e01b90565b8252602082600481845afa9182156109fe57600092610ce7575b50600091610b9361097b846108df565b14159081610c91575b50610ba45750565b610baf600182610a61565b6020610bda7f00000000000000000000000000000000000000000000000000000000000000006102f3565b91635d3b1d3092610c5b7f000000000000000000000000000000000000000000000000000000000000000092610c0f81610a84565b95610c66610c1b610aa2565b7f0000000000000000000000000000000000000000000000000000000000000000610c44610ac2565b91610c4e60405190565b9a8b998a98899760e01b90565b875260048701610acc565b03925af180156109fe57610c775750565b610c8e9060203d81116109f7576109e9818361017c565b50565b604051610ca7925060209163c406196b916109a8565b825260049082905afa9081156109fe57600091610cc9575b5042101538610b9c565b610ce1915060203d81116109f7576109e9818361017c565b38610cbf565b610d0091925060203d81116109f7576109e9818361017c565b9038610b83565b7f4e487b7100000000000000000000000000000000000000000000000000000000600052603260045260246000fd5b90610d3f825190565b811015610d50576020809102010190565b610d07565b7f4e487b7100000000000000000000000000000000000000000000000000000000600052601260045260246000fd5b8115610d8e570690565b610d55565b9081526040810192916100fb9160200152565b50610dd07f00000000000000000000000000000000000000000000000000000000000000006102f3565b9063aa871e5891610dea610de360405190565b9360e01b90565b83526020836004816000855af19283156109fe57600093610f77575b5060009263d98c28bb610e1860405190565b93610e238260e01b90565b855260048501839052602085602481875afa9485156109fe57600095610f57575b50600094610e5461097b876108df565b03610eda575b505063cf530b0d91803b156100c257610e88848094610e93610e7b60405190565b9889968795869460e01b90565b845260048401610d93565b03925af19182156109fe576100fb92610eae575b5080610a61565b610ecd90823d8411610ed3575b610ec5818361017c565b8101906100b7565b38610ea7565b503d610ebb565b610ef891929550610ef490610eee866108df565b90610d36565b5190565b610f04610b6260405190565b825260048201859052602082602481865afa9081156109fe57610f2f92600092610f37575b50610d84565b923880610e5a565b610f5091925060203d81116109f7576109e9818361017c565b9038610f29565b610f7091955060203d81116109f7576109e9818361017c565b9338610e44565b610f9091935060203d81116109f7576109e9818361017c565b9138610e0656fea26469706673582212209e7798f5b37562e5c9921b9a239623f22a6c69ac989008491318cbd9d82b635164736f6c63430008140033",
  "linkReferences": {},
  "deployedLinkReferences": {},
  "chainId": 80001,
  "address": "0xc83BD9103F15cB94BFd3ce3ec9E5852d5dCC5537"
}