{
  "_format": "hh-sol-artifact-1",
  "contractName": "TeamVault",
  "sourceName": "contracts/vaults/TeamVault.sol",
  "abi": [
    {
      "inputs": [
        {
          "internalType": "contract IERC20",
          "name": "_fusdt",
          "type": "address"
        },
        {
          "internalType": "address",
          "name": "_owner",
          "type": "address"
        }
      ],
      "stateMutability": "nonpayable",
      "type": "constructor"
    },
    {
      "inputs": [
        {
          "internalType": "address",
          "name": "owner",
          "type": "address"
        }
      ],
      "name": "OwnableInvalidOwner",
      "type": "error"
    },
    {
      "inputs": [
        {
          "internalType": "address",
          "name": "account",
          "type": "address"
        }
      ],
      "name": "OwnableUnauthorizedAccount",
      "type": "error"
    },
    {
      "anonymous": false,
      "inputs": [
        {
          "indexed": true,
          "internalType": "address",
          "name": "previousOwner",
          "type": "address"
        },
        {
          "indexed": true,
          "internalType": "address",
          "name": "newOwner",
          "type": "address"
        }
      ],
      "name": "OwnershipTransferred",
      "type": "event"
    },
    {
      "anonymous": false,
      "inputs": [
        {
          "indexed": true,
          "internalType": "address",
          "name": "receiver",
          "type": "address"
        },
        {
          "indexed": false,
          "internalType": "uint256",
          "name": "amount",
          "type": "uint256"
        }
      ],
      "name": "Withdraw",
      "type": "event"
    },
    {
      "inputs": [],
      "name": "FUSDT",
      "outputs": [
        {
          "internalType": "contract IERC20",
          "name": "",
          "type": "address"
        }
      ],
      "stateMutability": "view",
      "type": "function"
    },
    {
      "inputs": [],
      "name": "getCurrentFUSDTBalance",
      "outputs": [
        {
          "internalType": "uint256",
          "name": "",
          "type": "uint256"
        }
      ],
      "stateMutability": "view",
      "type": "function"
    },
    {
      "inputs": [],
      "name": "owner",
      "outputs": [
        {
          "internalType": "address",
          "name": "",
          "type": "address"
        }
      ],
      "stateMutability": "view",
      "type": "function"
    },
    {
      "inputs": [],
      "name": "renounceOwnership",
      "outputs": [],
      "stateMutability": "nonpayable",
      "type": "function"
    },
    {
      "inputs": [
        {
          "internalType": "address",
          "name": "newOwner",
          "type": "address"
        }
      ],
      "name": "transferOwnership",
      "outputs": [],
      "stateMutability": "nonpayable",
      "type": "function"
    },
    {
      "inputs": [
        {
          "internalType": "address",
          "name": "_receiver",
          "type": "address"
        }
      ],
      "name": "withdraw",
      "outputs": [],
      "stateMutability": "nonpayable",
      "type": "function"
    }
  ],
  "bytecode": "0x60a06040523462000048576200001f620000186200011c565b9062000143565b60405161072d6200029b823960805181818161014001528181610513015261067c015261072d90f35b600080fd5b634e487b7160e01b600052604160045260246000fd5b90601f01601f191681019081106001600160401b038211176200008557604052565b6200004d565b90620000a26200009a60405190565b928362000063565b565b6001600160a01b031690565b90565b6001600160a01b0381165b036200004857565b90505190620000a282620000b3565b6001600160a01b038116620000be565b90505190620000a282620000d5565b91906040838203126200004857620000b090620001128185620000c6565b93602001620000e5565b6200013f620009c88038038062000133816200008b565b928339810190620000f4565b9091565b906200014f906200016f565b608052565b620000a4620000b0620000b09290565b620000b09062000154565b6200017b600062000164565b6001600160a01b0381166001600160a01b03831614620001a15750620000a29062000238565b620001d490620001b060405190565b631e4fbdf760e01b8152918291600483016001600160a01b03909116815260200190565b0390fd5b620000b090620000a4906001600160a01b031682565b620000b090620001d8565b620000b090620001ee565b9062000218620000b06200023492620001f9565b82546001600160a01b0319166001600160a01b03919091161790565b9055565b6000546001600160a01b0316906200025281600062000204565b62000289620002827f8be0079c531659141344cd1fd0a4f28419497f9722a3daafe3b4186f6b6457e093620001f9565b91620001f9565b916200029460405190565b600090a356fe6080604052600436101561001257600080fd5b60003560e01c806313f240bc1461007257806323c358341461006d57806351cff8d914610068578063715018a6146100635780638da5cb5b1461005e5763f2fde38b036100825761020b565b6101e4565b6101b3565b610196565b610127565b61008d565b600091031261008257565b600080fd5b9052565b565b346100825761009d366004610077565b6100b96100a8610672565b6040515b9182918290815260200190565b0390f35b6100e36100e06100e09273ffffffffffffffffffffffffffffffffffffffff1690565b90565b73ffffffffffffffffffffffffffffffffffffffff1690565b6100e0906100bd565b6100e0906100fc565b61008790610105565b60208101929161008b919061010e565b3461008257610137366004610077565b604051806100b97f000000000000000000000000000000000000000000000000000000000000000082610117565b61016e816100e3565b0361008257565b9050359061008b82610165565b90602082820312610082576100e091610175565b34610082576101ae6101a9366004610182565b610669565b604051005b34610082576101c3366004610077565b6101ae610278565b610087906100e3565b60208101929161008b91906101cb565b34610082576101f4366004610077565b6100b96101ff610236565b604051918291826101d4565b34610082576101ae61021e366004610182565b610357565b6100e0906100e3565b6100e09054610223565b6100e0600061022c565b610248610280565b61008b610266565b6100e36100e06100e09290565b6100e090610250565b61008b610273600061025d565b6103b5565b61008b610240565b610288610236565b339061029c610296836100e3565b916100e3565b036102a45750565b6102e0906102b160405190565b9182917f118cdaa7000000000000000000000000000000000000000000000000000000008352600483016101d4565b0390fd5b61008b906102f0610280565b6102fa600061025d565b610303816100e3565b61030c836100e3565b1461031b575061008b906103b5565b6102e09061032860405190565b9182917f1e4fbdf7000000000000000000000000000000000000000000000000000000008352600483016101d4565b61008b906102e4565b906103706100e06103b192610105565b82547fffffffffffffffffffffffff00000000000000000000000000000000000000001673ffffffffffffffffffffffffffffffffffffffff919091161790565b9055565b6103bf600061022c565b906103cb816000610360565b6103fe6103f87f8be0079c531659141344cd1fd0a4f28419497f9722a3daafe3b4186f6b6457e093610105565b91610105565b9161040860405190565b600090a3565b61008b9061041a610280565b61050e565b7f4e487b7100000000000000000000000000000000000000000000000000000000600052604160045260246000fd5b90601f017fffffffffffffffffffffffffffffffffffffffffffffffffffffffffffffffe016810190811067ffffffffffffffff82111761048e57604052565b61041f565b8061016e565b9050519061008b82610493565b90602082820312610082576100e091610499565b6040513d6000823e3d90fd5b80151561016e565b9050519061008b826104c6565b90602082820312610082576100e0916104ce565b91602061008b92949361050a604082019660008301906101cb565b0152565b6105377f0000000000000000000000000000000000000000000000000000000000000000610105565b906370a0823191602061056461054c30610105565b9461056f61055960405190565b968793849360e01b90565b8352600483016101d4565b0381845afa92831561062e57600093610633575b5060206105a29163a9059cbb9061059960405190565b93849260e01b90565b8252816000816105b68989600484016104ef565b03925af1801561062e57610602575b506105fd6105f37f884edad9ce6fa2440d8a54cc123490eb96d2768479d49ff9c7366125a942436492610105565b926100ac60405190565b0390a2565b6106229060203d8111610627575b61061a818361044e565b8101906104db565b6105c5565b503d610610565b6104ba565b6105a291935061065a602091823d8111610662575b610652818361044e565b8101906104a6565b939150610583565b503d610648565b61008b9061040e565b6106c960206106a07f0000000000000000000000000000000000000000000000000000000000000000610105565b6370a08231906105646106b230610105565b926106bc60405190565b9586948593849360e01b90565b03915afa90811561062e576000916106df575090565b6100e0915060203d811161066257610652818361044e56fea2646970667358221220ee731b9b94c6fd1f2f15655c929075e606259a8e8927615db512507f2446c50664736f6c63430008140033",
  "linkReferences": {},
  "deployedLinkReferences": {},
  "chainId": 80001,
  "address": "0xcB506b57450fc5F309EbF33f345Be0bAAa828798"
}