{
  "_format": "hh-sol-artifact-1",
  "contractName": "Erc1155Prize",
  "sourceName": "contracts/ForTest/Erc1155Prize.sol",
  "abi": [
    {
      "inputs": [
        {
          "internalType": "address",
          "name": "_owner",
          "type": "address"
        }
      ],
      "stateMutability": "nonpayable",
      "type": "constructor"
    },
    {
      "inputs": [
        {
          "internalType": "address",
          "name": "sender",
          "type": "address"
        },
        {
          "internalType": "uint256",
          "name": "balance",
          "type": "uint256"
        },
        {
          "internalType": "uint256",
          "name": "needed",
          "type": "uint256"
        },
        {
          "internalType": "uint256",
          "name": "tokenId",
          "type": "uint256"
        }
      ],
      "name": "ERC1155InsufficientBalance",
      "type": "error"
    },
    {
      "inputs": [
        {
          "internalType": "address",
          "name": "approver",
          "type": "address"
        }
      ],
      "name": "ERC1155InvalidApprover",
      "type": "error"
    },
    {
      "inputs": [
        {
          "internalType": "uint256",
          "name": "idsLength",
          "type": "uint256"
        },
        {
          "internalType": "uint256",
          "name": "valuesLength",
          "type": "uint256"
        }
      ],
      "name": "ERC1155InvalidArrayLength",
      "type": "error"
    },
    {
      "inputs": [
        {
          "internalType": "address",
          "name": "operator",
          "type": "address"
        }
      ],
      "name": "ERC1155InvalidOperator",
      "type": "error"
    },
    {
      "inputs": [
        {
          "internalType": "address",
          "name": "receiver",
          "type": "address"
        }
      ],
      "name": "ERC1155InvalidReceiver",
      "type": "error"
    },
    {
      "inputs": [
        {
          "internalType": "address",
          "name": "sender",
          "type": "address"
        }
      ],
      "name": "ERC1155InvalidSender",
      "type": "error"
    },
    {
      "inputs": [
        {
          "internalType": "address",
          "name": "operator",
          "type": "address"
        },
        {
          "internalType": "address",
          "name": "owner",
          "type": "address"
        }
      ],
      "name": "ERC1155MissingApprovalForAll",
      "type": "error"
    },
    {
      "inputs": [
        {
          "internalType": "address",
          "name": "owner",
          "type": "address"
        }
      ],
      "name": "OwnableInvalidOwner",
      "type": "error"
    },
    {
      "inputs": [
        {
          "internalType": "address",
          "name": "account",
          "type": "address"
        }
      ],
      "name": "OwnableUnauthorizedAccount",
      "type": "error"
    },
    {
      "anonymous": false,
      "inputs": [
        {
          "indexed": true,
          "internalType": "address",
          "name": "account",
          "type": "address"
        },
        {
          "indexed": true,
          "internalType": "address",
          "name": "operator",
          "type": "address"
        },
        {
          "indexed": false,
          "internalType": "bool",
          "name": "approved",
          "type": "bool"
        }
      ],
      "name": "ApprovalForAll",
      "type": "event"
    },
    {
      "anonymous": false,
      "inputs": [
        {
          "indexed": true,
          "internalType": "address",
          "name": "previousOwner",
          "type": "address"
        },
        {
          "indexed": true,
          "internalType": "address",
          "name": "newOwner",
          "type": "address"
        }
      ],
      "name": "OwnershipTransferred",
      "type": "event"
    },
    {
      "anonymous": false,
      "inputs": [
        {
          "indexed": true,
          "internalType": "address",
          "name": "operator",
          "type": "address"
        },
        {
          "indexed": true,
          "internalType": "address",
          "name": "from",
          "type": "address"
        },
        {
          "indexed": true,
          "internalType": "address",
          "name": "to",
          "type": "address"
        },
        {
          "indexed": false,
          "internalType": "uint256[]",
          "name": "ids",
          "type": "uint256[]"
        },
        {
          "indexed": false,
          "internalType": "uint256[]",
          "name": "values",
          "type": "uint256[]"
        }
      ],
      "name": "TransferBatch",
      "type": "event"
    },
    {
      "anonymous": false,
      "inputs": [
        {
          "indexed": true,
          "internalType": "address",
          "name": "operator",
          "type": "address"
        },
        {
          "indexed": true,
          "internalType": "address",
          "name": "from",
          "type": "address"
        },
        {
          "indexed": true,
          "internalType": "address",
          "name": "to",
          "type": "address"
        },
        {
          "indexed": false,
          "internalType": "uint256",
          "name": "id",
          "type": "uint256"
        },
        {
          "indexed": false,
          "internalType": "uint256",
          "name": "value",
          "type": "uint256"
        }
      ],
      "name": "TransferSingle",
      "type": "event"
    },
    {
      "anonymous": false,
      "inputs": [
        {
          "indexed": false,
          "internalType": "string",
          "name": "value",
          "type": "string"
        },
        {
          "indexed": true,
          "internalType": "uint256",
          "name": "id",
          "type": "uint256"
        }
      ],
      "name": "URI",
      "type": "event"
    },
    {
      "inputs": [
        {
          "internalType": "address",
          "name": "account",
          "type": "address"
        },
        {
          "internalType": "uint256",
          "name": "id",
          "type": "uint256"
        }
      ],
      "name": "balanceOf",
      "outputs": [
        {
          "internalType": "uint256",
          "name": "",
          "type": "uint256"
        }
      ],
      "stateMutability": "view",
      "type": "function"
    },
    {
      "inputs": [
        {
          "internalType": "address[]",
          "name": "accounts",
          "type": "address[]"
        },
        {
          "internalType": "uint256[]",
          "name": "ids",
          "type": "uint256[]"
        }
      ],
      "name": "balanceOfBatch",
      "outputs": [
        {
          "internalType": "uint256[]",
          "name": "",
          "type": "uint256[]"
        }
      ],
      "stateMutability": "view",
      "type": "function"
    },
    {
      "inputs": [
        {
          "internalType": "address",
          "name": "account",
          "type": "address"
        },
        {
          "internalType": "address",
          "name": "operator",
          "type": "address"
        }
      ],
      "name": "isApprovedForAll",
      "outputs": [
        {
          "internalType": "bool",
          "name": "",
          "type": "bool"
        }
      ],
      "stateMutability": "view",
      "type": "function"
    },
    {
      "inputs": [
        {
          "internalType": "address",
          "name": "to",
          "type": "address"
        },
        {
          "internalType": "uint256",
          "name": "id",
          "type": "uint256"
        },
        {
          "internalType": "uint256",
          "name": "value",
          "type": "uint256"
        }
      ],
      "name": "mint",
      "outputs": [],
      "stateMutability": "nonpayable",
      "type": "function"
    },
    {
      "inputs": [],
      "name": "owner",
      "outputs": [
        {
          "internalType": "address",
          "name": "",
          "type": "address"
        }
      ],
      "stateMutability": "view",
      "type": "function"
    },
    {
      "inputs": [],
      "name": "renounceOwnership",
      "outputs": [],
      "stateMutability": "nonpayable",
      "type": "function"
    },
    {
      "inputs": [
        {
          "internalType": "address",
          "name": "from",
          "type": "address"
        },
        {
          "internalType": "address",
          "name": "to",
          "type": "address"
        },
        {
          "internalType": "uint256[]",
          "name": "ids",
          "type": "uint256[]"
        },
        {
          "internalType": "uint256[]",
          "name": "values",
          "type": "uint256[]"
        },
        {
          "internalType": "bytes",
          "name": "data",
          "type": "bytes"
        }
      ],
      "name": "safeBatchTransferFrom",
      "outputs": [],
      "stateMutability": "nonpayable",
      "type": "function"
    },
    {
      "inputs": [
        {
          "internalType": "address",
          "name": "from",
          "type": "address"
        },
        {
          "internalType": "address",
          "name": "to",
          "type": "address"
        },
        {
          "internalType": "uint256",
          "name": "id",
          "type": "uint256"
        },
        {
          "internalType": "uint256",
          "name": "value",
          "type": "uint256"
        },
        {
          "internalType": "bytes",
          "name": "data",
          "type": "bytes"
        }
      ],
      "name": "safeTransferFrom",
      "outputs": [],
      "stateMutability": "nonpayable",
      "type": "function"
    },
    {
      "inputs": [
        {
          "internalType": "address",
          "name": "operator",
          "type": "address"
        },
        {
          "internalType": "bool",
          "name": "approved",
          "type": "bool"
        }
      ],
      "name": "setApprovalForAll",
      "outputs": [],
      "stateMutability": "nonpayable",
      "type": "function"
    },
    {
      "inputs": [
        {
          "internalType": "uint256",
          "name": "_id",
          "type": "uint256"
        },
        {
          "internalType": "string",
          "name": "_uri",
          "type": "string"
        }
      ],
      "name": "setUri",
      "outputs": [],
      "stateMutability": "nonpayable",
      "type": "function"
    },
    {
      "inputs": [
        {
          "internalType": "bytes4",
          "name": "interfaceId",
          "type": "bytes4"
        }
      ],
      "name": "supportsInterface",
      "outputs": [
        {
          "internalType": "bool",
          "name": "",
          "type": "bool"
        }
      ],
      "stateMutability": "view",
      "type": "function"
    },
    {
      "inputs": [
        {
          "internalType": "address",
          "name": "newOwner",
          "type": "address"
        }
      ],
      "name": "transferOwnership",
      "outputs": [],
      "stateMutability": "nonpayable",
      "type": "function"
    },
    {
      "inputs": [
        {
          "internalType": "uint256",
          "name": "_id",
          "type": "uint256"
        }
      ],
      "name": "uri",
      "outputs": [
        {
          "internalType": "string",
          "name": "",
          "type": "string"
        }
      ],
      "stateMutability": "view",
      "type": "function"
    }
  ],
  "bytecode": "0x60806040523462000030576200001e62000018620000d4565b62000305565b604051611da962000e6a8239611da990f35b600080fd5b634e487b7160e01b600052604160045260246000fd5b90601f01601f191681019081106001600160401b038211176200006d57604052565b62000035565b906200008a6200008260405190565b92836200004b565b565b6001600160a01b031690565b90565b6001600160a01b0381165b036200003057565b905051906200008a826200009b565b9060208282031262000030576200009891620000ae565b6200009862002c1380380380620000eb8162000073565b928339810190620000bd565b6001600160401b0381116200006d57602090601f01601f19160190565b0190565b906200012e6200012883620000f7565b62000073565b918252565b62000098600062000118565b6200009862000133565b6200009862000098620000989290565b90620001659062000149565b600052602052604060002090565b634e487b7160e01b600052602260045260246000fd5b9060016002830492168015620001ac575b6020831014620001a657565b62000173565b91607f16916200019a565b9160001960089290920291821b911b5b9181191691161790565b9190620001e662000098620001ef9362000149565b908354620001b7565b9055565b6200008a91600091620001d1565b8181106200020d575050565b806200021d6000600193620001f3565b0162000201565b9190601f81116200023457505050565b620002486200008a93600052602060002090565b906020601f8401819004830193106200026c575b6020601f90910104019062000201565b90915081906200025c565b6002620002ad626d336560e81b926200029e604362000297835462000189565b8362000224565b60878155600052602060002090565b7f68747470733a2f2f697066732e696f2f697066732f516d5578453443334d6f6181557f634c67705a6b6f535545597778314b3235737a647377587a4164393537586b6460018201550155565b6200008a9062000277565b6200031b90620003146200013f565b9062000370565b6200008a6200034f60016200034733620003358362000149565b80620003406200013f565b92620005bb565b600462000159565b620002fa565b6200008c62000098620000989290565b620000989062000355565b906200037c90620003e5565b62000388600062000365565b6001600160a01b0381166001600160a01b03831614620003ae57506200008a906200045f565b620003e190620003bd60405190565b631e4fbdf760e01b8152918291600483016001600160a01b03909116815260200190565b0390fd5b6200008a90620005ae565b62000098906200008c565b620000989054620003f0565b906001600160a01b0390620001c7565b62000098906200008c906001600160a01b031682565b620000989062000417565b62000098906200042d565b906200045762000098620001ef9262000438565b825462000407565b6200046b6003620003fb565b906200047981600362000443565b620004b0620004a97f8be0079c531659141344cd1fd0a4f28419497f9722a3daafe3b4186f6b6457e09362000438565b9162000438565b91620004bb60405190565b600090a3565b90620004cb815190565b906001600160401b0382116200006d57620004f382620004ec855462000189565b8562000224565b602090601f83116001146200053257620001ef92916000918362000526575b5050600019600883021c1916906002021790565b01519050388062000512565b601f198316916200054885600052602060002090565b9260005b81811062000589575091600293918560019694106200056f575b50505002019055565b01516000196008601f8516021c1916905538808062000566565b919360206001819287870151815501950192016200054c565b906200008a91620004c1565b6200008a906002620005a2565b90939291620005cb600062000365565b946001600160a01b0386166001600160a01b038416146200061e576200008a9495916200061560405192600184526020840152604083019160018352602083015260408201604052565b92909162000651565b620003e1866200062d60405190565b632bfa23e760e11b8152918291600483016001600160a01b03909116815260200190565b9193929062000663828683866200085c565b600092620006756200008c8562000365565b6001600160a01b038316036200068e575b505050505050565b339362000699875190565b620006ad620006a9600162000149565b9190565b03620006ed57620006e196620006d3620006cb620006da9362000149565b809262000e52565b9462000e52565b9362000c19565b38808080808062000686565b50620006fb95929362000de5565b620006e1565b9081526040810192916200008a9160200152565b0152565b634e487b7160e01b600052601160045260246000fd5b60001981146200073f5760010190565b62000719565b90620001659062000438565b620000989081565b62000098905462000751565b620007156200008a946200079a60609498979562000793608086019a60008701906001600160a01b03169052565b6020850152565b6040830152565b9060001990620001c7565b90620007c062000098620001ef9262000149565b8254620007a1565b919082018092116200073f57565b90620007f9620007f2620007e8845190565b8084529260200190565b9260200190565b9060005b8181106200080b5750505090565b9091926200082a620008236001928651815260200190565b9460200190565b929101620007fd565b6040808252620000989391926200084d91840190620007d6565b916020818403910152620007d6565b93929091926200086a845190565b6200087b620006a962000098855190565b0362000acc573393600091620008918362000149565b6200089e62000098845190565b811015620009e557620008b2818462000e52565b90620008bf818762000e52565b91620008cb8662000365565b92886001600160a01b0385166001600160a01b038d160362000958575b62000911946001600160a01b03165b6001600160a01b0382160362000917575b5050506200072f565b62000891565b620009366200094891620009306200094f958b62000159565b62000745565b91620009428362000759565b620007c8565b90620007ac565b38808862000908565b5090919262000977620009718c62000930868b62000159565b62000759565b828110620009bd57620008f78392620009b48a8f620009ae908f968a620009a7620009119d9c9b62000930930390565b9462000159565b620007ac565b955050620008e8565b8b620003e18585620009ce60405190565b6303dee4c560e01b81529485946004860162000765565b5095929491620009f3825190565b62000a03620006a9600162000149565b0362000a7d579062000a1d620006cb62000a249362000149565b9562000e52565b62000a5f62000a5862000a587fc3d58168c5ae7397731d063d5bbf3d657854427343f4c083240f7aacaa2d0f629462000438565b9462000438565b9462000a7862000a6e60405190565b9283928362000701565b0390a4565b509362000ab362000a5862000a587f4a39dc06d4c0dbc64b70af90fd698a233a518aa5d07e595d983b8c0526c8f7fb9462000438565b9462000a7862000ac260405190565b9283928362000833565b5062000adf62000ada845190565b915190565b90620003e162000aee60405190565b635b05999160e01b81529283926004840162000701565b6001600160e01b03198116620000a6565b905051906200008a8262000b05565b906020828203126200003057620000989162000b16565b60005b83811062000b505750506000910152565b818101518382015260200162000b3f565b62000b8662000b90602093620001149362000b7a815190565b80835293849260200190565b9586910162000b3c565b601f01601f191690565b919362000be262000098969462000bdb62000be9949762000bcb60a088019960008901906001600160a01b03169052565b6001600160a01b03166020870152565b6040850152565b6060830152565b608081840391015262000b61565b3d1562000c145762000c093d62000118565b903d6000602084013e565b606090565b60009592949390853b62000c31620006a98962000149565b1162000c41575b50505050505050565b6020928762000c5a62000c548962000438565b62000438565b9262000c8d63f23a6e619762000c6f60405190565b998a978896879562000c818d60e01b90565b87526004870162000b9a565b03925af16000928162000d41575b5062000cfb575050600162000cba5750505b3880808080808062000c38565b62000cc462000bf7565b9162000cdd620006a962000cd6855190565b9262000149565b0362000cf257620003e1906200062d60405190565b50805190602001fd5b62000d259192935062000d179060e01b63ffffffff60e01b1690565b916001600160e01b03191690565b0362000d32575062000cad565b620003e1906200062d60405190565b62000d6891935060203d811162000d70575b62000d5f81836200004b565b81019062000b25565b913862000c9b565b503d62000d53565b939062000dc79062000098969462000db962000dd69562000da960a08a019460008b01906001600160a01b03169052565b6001600160a01b03166020890152565b8682036040880152620007d6565b908482036060860152620007d6565b91608081840391015262000b61565b60009592949390853b62000dfd620006a98962000149565b1162000e0c5750505050505050565b6020928762000e1f62000c548962000438565b9262000c8d63bc197c819762000e3460405190565b998a978896879562000e468d60e01b90565b87526004870162000d78565b906020809162000e60600090565b5002910101519056fe6080604052600436101561001257600080fd5b60003560e01c8062fdd58e146100e157806301ffc9a7146100dc5780630e89341c146100d7578063156e29f6146100d25780632eb2c2d6146100cd5780634e1273f4146100c8578063715018a6146100c3578063782f08ae146100be5780638da5cb5b146100b9578063a22cb465146100b4578063e985e9c5146100af578063f242432a146100aa5763f2fde38b03610121576108a0565b610870565b610813565b6107d7565b610746565b61072d565b6106ab565b610678565b610544565b610307565b6102b0565b6101e4565b61016b565b73ffffffffffffffffffffffffffffffffffffffff1690565b90565b73ffffffffffffffffffffffffffffffffffffffff81165b0361012157565b600080fd5b9050359061013382610102565b565b8061011a565b9050359061013382610135565b9190604083820312610121576100ff906101628185610126565b9360200161013b565b3461012157610197610187610181366004610148565b90610bf4565b6040519182918290815260200190565b0390f35b7fffffffff00000000000000000000000000000000000000000000000000000000811661011a565b905035906101338261019b565b90602082820312610121576100ff916101c3565b34610121576101976101ff6101fa3660046101d0565b610b07565b6040515b91829182901515815260200190565b90602082820312610121576100ff9161013b565b60005b8381106102395750506000910152565b8181015183820152602001610229565b61026a61027360209361029b9361025e815190565b80835293849260200190565b95869101610226565b601f017fffffffffffffffffffffffffffffffffffffffffffffffffffffffffffffffe01690565b0190565b60208082526100ff92910190610249565b34610121576101976102cb6102c6366004610212565b611b4a565b6040519182918261029f565b9091606082840312610121576100ff6102f08484610126565b936102fe816020860161013b565b9360400161013b565b346101215761032061031a3660046102d7565b916119b2565b604051005b7f4e487b7100000000000000000000000000000000000000000000000000000000600052604160045260246000fd5b90601f017fffffffffffffffffffffffffffffffffffffffffffffffffffffffffffffffe016810190811067ffffffffffffffff82111761039457604052565b610325565b906101336103a660405190565b9283610354565b67ffffffffffffffff81116103945760208091020190565b909291926103da6103d5826103ad565b610399565b938185526020808601920283019281841161012157915b8383106103fe5750505050565b6020809161040c848661013b565b8152019201916103f1565b9080601f83011215610121578160206100ff933591016103c5565b67ffffffffffffffff811161039457602090601f017fffffffffffffffffffffffffffffffffffffffffffffffffffffffffffffffe0160190565b90826000939282370152565b909291926104896103d582610432565b93818552602085019082840111610121576101339261046d565b9080601f83011215610121578160206100ff93359101610479565b91909160a081840312610121576104d58382610126565b926104e38160208401610126565b92604083013567ffffffffffffffff81116101215782610504918501610417565b92606081013567ffffffffffffffff81116101215783610525918301610417565b92608082013567ffffffffffffffff8111610121576100ff92016104a3565b34610121576103206105573660046104be565b93929092610eda565b909291926105706103d5826103ad565b938185526020808601920283019281841161012157915b8383106105945750505050565b602080916105a28486610126565b815201920191610587565b9080601f83011215610121578160206100ff93359101610560565b91909160408184031261012157803567ffffffffffffffff811161012157836105f29183016105ad565b92602082013567ffffffffffffffff8111610121576100ff9201610417565b9061063161062a610620845190565b8084529260200190565b9260200190565b9060005b8181106106425750505090565b90919261065f6106586001928651815260200190565b9460200190565b929101610635565b60208082526100ff92910190610611565b346101215761019761069461068e3660046105c8565b90610d37565b60405191829182610667565b600091031261012157565b34610121576106bb3660046106a0565b6103206108f0565b909182601f830112156101215781359167ffffffffffffffff831161012157602001926001830284011161012157565b9190916040818403126101215761070a838261013b565b92602082013567ffffffffffffffff81116101215761072992016106c3565b9091565b34610121576103206107403660046106f3565b91611d68565b34610121576107563660046106a0565b61019761077860035473ffffffffffffffffffffffffffffffffffffffff1690565b6040519182918273ffffffffffffffffffffffffffffffffffffffff909116815260200190565b80151561011a565b905035906101338261079f565b9190604083820312610121576100ff906107ce8185610126565b936020016107a7565b34610121576103206107ea3660046107b4565b90610e02565b9190604083820312610121576100ff9061080a8185610126565b93602001610126565b34610121576101976101ff6108293660046107f0565b90610e0d565b91909160a081840312610121576108468382610126565b926108548160208401610126565b92610862826040850161013b565b92610525836060830161013b565b346101215761032061088336600461082f565b93929092610e2f565b90602082820312610121576100ff91610126565b34610121576103206108b336600461088c565b610a22565b6108c06108f8565b6101336108de565b6100e66100ff6100ff9290565b6100ff906108c8565b6101336108eb60006108d5565b610a9d565b6101336108b8565b600354339073ffffffffffffffffffffffffffffffffffffffff1681900361091d5750565b6109749061092a60405190565b9182917f118cdaa70000000000000000000000000000000000000000000000000000000083526004830173ffffffffffffffffffffffffffffffffffffffff909116815260200190565b0390fd5b610133906109846108f8565b61098e60006108d5565b73ffffffffffffffffffffffffffffffffffffffff811673ffffffffffffffffffffffffffffffffffffffff8316146109cb575061013390610a9d565b610974906109d860405190565b9182917f1e4fbdf70000000000000000000000000000000000000000000000000000000083526004830173ffffffffffffffffffffffffffffffffffffffff909116815260200190565b61013390610978565b9073ffffffffffffffffffffffffffffffffffffffff905b9181191691161790565b6100e66100ff6100ff9273ffffffffffffffffffffffffffffffffffffffff1690565b6100ff90610a4d565b6100ff90610a70565b90610a926100ff610a9992610a79565b8254610a2b565b9055565b60035473ffffffffffffffffffffffffffffffffffffffff1690610ac2816003610a82565b610af5610aef7f8be0079c531659141344cd1fd0a4f28419497f9722a3daafe3b4186f6b6457e093610a79565b91610a79565b91610aff60405190565b80805b0390a3565b7fd9b67a26000000000000000000000000000000000000000000000000000000007fffffffff00000000000000000000000000000000000000000000000000000000821614908115610b68575b8115610b5e575090565b6100ff915061194c565b7fffffffff0000000000000000000000000000000000000000000000000000000081167f0e89341c00000000000000000000000000000000000000000000000000000000149150610b54565b6100ff6100ff6100ff9290565b90610bcb90610bb4565b600052602052604060002090565b90610bcb90610a79565b6100ff9081565b6100ff9054610be3565b610c1490610c0f6100ff93610c07600090565b506000610bc1565b610bd9565b610bea565b9081526040810192916101339160200152565b0152565b90610c3d6103d5836103ad565b918252565b369037565b90610133610c5d610c5784610c30565b936103ad565b7fffffffffffffffffffffffffffffffffffffffffffffffffffffffffffffffe00160208401610c42565b7f4e487b7100000000000000000000000000000000000000000000000000000000600052601160045260246000fd5b7fffffffffffffffffffffffffffffffffffffffffffffffffffffffffffffffff8114610ce45760010190565b610c88565b7f4e487b7100000000000000000000000000000000000000000000000000000000600052603260045260246000fd5b90610d21825190565b811015610d32576020809102010190565b610ce9565b908151610d4c610d486100ff845190565b9190565b03610db957610d61610d5c835190565b610c47565b91610d6c6000610bb4565b610d776100ff835190565b811015610db35780610da9610d9c610d92610dae9486611936565b6101818488611936565b610da68388610d18565b52565b610cb7565b610d6c565b50505090565b519051610dc6565b915190565b90610974610dd360405190565b9283927f5b05999100000000000000000000000000000000000000000000000000000000845260048401610c19565b610133919033611502565b6100ff91610c0f610e2892610e20600090565b506001610bd9565b5460ff1690565b94939291903373ffffffffffffffffffffffffffffffffffffffff871681141580610ec3575b610e6457506101339495610f22565b8690610974610e7260405190565b9283927fe237d9220000000000000000000000000000000000000000000000000000000084526004840173ffffffffffffffffffffffffffffffffffffffff91821681529116602082015260400190565b50610ed5610ed18289610e0d565b1590565b610e55565b94939291903373ffffffffffffffffffffffffffffffffffffffff871681141580610f0f575b610e6457506101339495611447565b50610f1d610ed18289610e0d565b610f00565b909194939294610f3260006108d5565b73ffffffffffffffffffffffffffffffffffffffff811673ffffffffffffffffffffffffffffffffffffffff8516146110245773ffffffffffffffffffffffffffffffffffffffff811673ffffffffffffffffffffffffffffffffffffffff841614610fcd57506101339495610fc560405192600184526020840152604083019160018352602083015260408201604052565b92909161107b565b61097490610fda60405190565b9182917f01a835140000000000000000000000000000000000000000000000000000000083526004830173ffffffffffffffffffffffffffffffffffffffff909116815260200190565b6109749061103160405190565b9182917f57f447ce0000000000000000000000000000000000000000000000000000000083526004830173ffffffffffffffffffffffffffffffffffffffff909116815260200190565b9193929061108b828683866111d3565b60009261109a6100e6856108d5565b73ffffffffffffffffffffffffffffffffffffffff8316036110bf575b505050505050565b33936110c9875190565b6110d6610d486001610bb4565b0361110c57611101966110f56110ee6110fb93610bb4565b8092611936565b94611936565b936116ad565b3880808080806110b7565b5061111895929361187b565b611101565b610c2c6101339461115b606094989795611154608086019a600087019073ffffffffffffffffffffffffffffffffffffffff169052565b6020850152565b6040830152565b907fffffffffffffffffffffffffffffffffffffffffffffffffffffffffffffffff90610a43565b9061119a6100ff610a9992610bb4565b8254611162565b91908201809211610ce457565b60408082526100ff9391926111c591840190610611565b916020818403910152610611565b93929091926111e0845190565b6111ee610d486100ff855190565b0361143b57339360009161120183610bb4565b61120c6100ff845190565b81101561136d5761121d8184611936565b906112288187611936565b91611232866108d5565b928873ffffffffffffffffffffffffffffffffffffffff851673ffffffffffffffffffffffffffffffffffffffff8d16036112de575b6112a89473ffffffffffffffffffffffffffffffffffffffff165b73ffffffffffffffffffffffffffffffffffffffff8216036112ad575b505050610cb7565b611201565b6112c16112d091610c0f6112d6958b610bc1565b916112cb83610bea565b6111a1565b9061118a565b3880886112a0565b509091926112f3610c148c610c0f868b610bc1565b82811061132f5761128383926113278a8f611322908f968a61131c6112a89d9c9b610c0f930390565b94610bc1565b61118a565b955050611268565b8b610974858561133e60405190565b9485947f03dee4c50000000000000000000000000000000000000000000000000000000086526004860161111d565b509592949161137a825190565b611387610d486001610bb4565b036113f3579061139c6110ee6113a293610bb4565b95611936565b6113d86113d26113d27fc3d58168c5ae7397731d063d5bbf3d657854427343f4c083240f7aacaa2d0f6294610a79565b94610a79565b946113ee6113e560405190565b92839283610c19565b0390a4565b50936114256113d26113d27f4a39dc06d4c0dbc64b70af90fd698a233a518aa5d07e595d983b8c0526c8f7fb94610a79565b946113ee61143260405190565b928392836111ae565b50610dc6610dc1845190565b949392919061145660006108d5565b9573ffffffffffffffffffffffffffffffffffffffff871673ffffffffffffffffffffffffffffffffffffffff8316146114d55773ffffffffffffffffffffffffffffffffffffffff871673ffffffffffffffffffffffffffffffffffffffff8216146114c85761013395965061107b565b61097487610fda60405190565b6109748761103160405190565b9060ff90610a43565b906114fb6100ff610a9992151590565b82546114e2565b61150c60006108d5565b73ffffffffffffffffffffffffffffffffffffffff811673ffffffffffffffffffffffffffffffffffffffff84161461159857506115588361155384610c0f856001610bd9565b6114eb565b610b0261158e6115887f17307eab39ab6107e8899845ad3d59bd9653f200f220920489ca2b5937696c3193610a79565b93610a79565b9361020360405190565b610974906115a560405190565b9182917fced3e1000000000000000000000000000000000000000000000000000000000083526004830173ffffffffffffffffffffffffffffffffffffffff909116815260200190565b905051906101338261019b565b90602082820312610121576100ff916115ef565b919361166d6100ff9694611666611674949761164960a0880199600089019073ffffffffffffffffffffffffffffffffffffffff169052565b73ffffffffffffffffffffffffffffffffffffffff166020870152565b6040850152565b6060830152565b6080818403910152610249565b90610c3d6103d583610432565b3d156116a85761169d3d611681565b903d6000602084013e565b606090565b9092949193843b956000966116c4610d4889610bb4565b116116d3575b50505050505050565b8661170c916117176020966116ef6116ea8b610a79565b610a79565b9563f23a6e61936116ff60405190565b9a8b998a98899760e01b90565b875260048701611610565b03925af1600091816117cc575b50611773575061173b565b388080808080806116ca565b61174361168e565b91611758610d48611752855190565b92610bb4565b0361176a576109749061103160405190565b50805190602001fd5b9091506117c17ff23a6e61000000000000000000000000000000000000000000000000000000005b917fffffffff000000000000000000000000000000000000000000000000000000001690565b03611024575061172f565b6117ee91925060203d81116117f5575b6117e68183610354565b8101906115fc565b9038611724565b503d6117dc565b939061185f906100ff969461185261186d9561183560a08a019460008b019073ffffffffffffffffffffffffffffffffffffffff169052565b73ffffffffffffffffffffffffffffffffffffffff166020890152565b8682036040880152610611565b908482036060860152610611565b916080818403910152610249565b9092949193843b95600096611892610d4889610bb4565b116118a05750505050505050565b866118c7916118d26020966118b76116ea8b610a79565b9563bc197c81936116ff60405190565b8752600487016117fc565b03925af160009181611916575b506118ea575061173b565b9091506117c17fbc197c810000000000000000000000000000000000000000000000000000000061179b565b61192f91925060203d81116117f5576117e68183610354565b90386118df565b9060208091611943600090565b50029101015190565b6119757f01ffc9a70000000000000000000000000000000000000000000000000000000061179b565b1490565b9061013392916119876108f8565b61199e565b6100ff6000611681565b6100ff61198c565b9091610133926119ac611996565b926119bd565b906101339291611979565b909392916119cb60006108d5565b9473ffffffffffffffffffffffffffffffffffffffff861673ffffffffffffffffffffffffffffffffffffffff841614611a2c57610133949591610fc560405192600184526020840152604083019160018352602083015260408201604052565b6109748661103160405190565b7f4e487b7100000000000000000000000000000000000000000000000000000000600052602260045260246000fd5b9060016002830492168015611a88575b6020831014611a8357565b611a39565b91607f1691611a78565b80546000939291611aaf611aa583611a68565b8085529360200190565b9160018116908115611b015750600114611ac857505050565b611adb9192939450600052602060002090565b916000925b818410611aed5750500190565b805484840152602090930192600101611ae0565b92949550505060ff1916825215156020020190565b906100ff91611a92565b90610133611b3a92611b3160405190565b93848092611b16565b0383610354565b6100ff90611b20565b611b616100ff91611b59606090565b506004610bc1565b611b41565b906101339291611b746108f8565b611d53565b91906008610a43910291611bac7fffffffffffffffffffffffffffffffffffffffffffffffffffffffffffffffff841b90565b921b90565b9190611bc26100ff610a9993610bb4565b908354611b79565b61013391600091611bb1565b818110611be1575050565b80611bef6000600193611bca565b01611bd6565b9190601f8111611c0457505050565b611c1661013393600052602060002090565b906020601f840181900483019310611c38575b6020601f909101040190611bd6565b9091508190611c29565b919067ffffffffffffffff821161039457611c6782611c618554611a68565b85611bf5565b600090601f8311600114611cc057610a99929160009183611cb5575b50507fffffffffffffffffffffffffffffffffffffffffffffffffffffffffffffffff600883021c1916906002021790565b013590503880611c83565b601f19831691611cd585600052602060002090565b92815b818110611d3057509160029391856001969410611cf9575b50505002019055565b01357fffffffffffffffffffffffffffffffffffffffffffffffffffffffffffffffff601f84166008021c19169055388080611cf0565b91936020600181928787013581550195019201611cd8565b906101339291611c42565b90611d6361013393926004610bc1565b611d48565b906101339291611b6656fea26469706673582212204171d194eca490b0ff1900a08e9e2be45ad44fbc70ad84e8da864dafc1fbbad064736f6c63430008140033",
  "linkReferences": {},
  "deployedLinkReferences": {},
  "chainId": 11155111,
  "address": "0x8FA15CbFCf5017B8E829f3368793819c00dA456C"
}